:10000000A4C00000BDC00000BBC00000B9C000001B
:10001000B7C00000B5C00000B3C00000B1C0000010
:10002000AFC00000ADC00000FBC30000BEC30000B5
:10003000A7C00000A5C00000A3C00000A1C0000030
:100040009FC000009DC000009BC0000099C0000040
:1000500097C0000095C0000093C0000091C0000050
:100060008FC00000DDC000008BC0000089C0000010
:1000700087C0000085C0000083C0000081C0000070
:100080007FC000007DC000007BC0000079C0000080
:1000900077C0000075C0000073C0000071C0000090
:1000A0006FC000006DC000006BC0000012011001A5
:1000B00002000008EB034B2000000102DC010902F2
:1000C0003E00020100C0FA09040000010202010022
:1000D000052400100104240206052406000107057A
:1000E00082030800FF09040100020A00000007055E
:1000F000040210000507058302100005040309042B
:1001000018034400650061006E0020004300610098
:100110006D00650072006100000030034C00550066
:100120004600410020005500530042002D005200BF
:1001300053003200330032002000410064006100AF
:100140007000740065007200000011241FBECFEF24
:10015000DAE0DEBFCDBF11E0A0E0B1E0E8E6F1E11A
:1001600002C005900D92AC32B107D9F712E0ACE2B3
:10017000B1E001C01D92A035B107E1F73FD1F2C750
:100180003FCF80FF02C0299A01C0299881FF02C099
:100190002A9A08952A98089586E084B985B18A7FBD
:1001A00085B90895CF93DF93EC01E881F9816083ED
:1001B000888199810196998388832E813F81821756
:1001C000930721F48C819D81998388832FB7F894BC
:1001D0008A859B8501969B878A872FBFDF91CF9168
:1001E0000895CF93DF93EC01EA81FB813191FB838A
:1001F000EA838E819F81E817F90721F48C819D8124
:100200009B838A832FB7F8948A859B8501979B8768
:100210008A872FBF832FDF91CF9108950895089586
:100220001F920F920FB60F9211242F933F934F936B
:100230005F936F937F938F939F93AF93BF93EF934E
:10024000FF936091CE008EB3843019F488EB91E077
:10025000A9DFFF91EF91BF91AF919F918F917F9116
:100260006F915F914F913F912F910F900FBE0F9023
:100270001F9018951F93FC01818D813019F08230F9
:1002800019F404C010E303C010E001C010E2808D37
:10029000823009F41860828D873031F0883031F077
:1002A000863029F4126003C0146001C016601092F9
:1002B000C9001092C8001092CA0024893589468965
:1002C0005789CA01B9019695879577956795605CBE
:1002D0007D4B804F9F4F24D7215030403093CD002D
:1002E0002093CC001093CA0082E08093C80088E974
:1002F0008093C9001F91089529EC30E0F901108224
:10030000A8ECB0E01C92EAECF0E0108287E690E006
:100310009093CD008093CC0086E0808382E08C9324
:1003200088E0F9018083089580E191E04DC680E185
:1003300091E023C6DF93CF93CDB7DEB760970FB6BA
:10034000F894DEBF0FBECDBFDE011196E0E0F1E014
:1003500080E101900D928150E1F784B7877F84BFDF
:1003600088E10FB6F89480936000109260000FBE91
:1003700080E090E020E80FB6F8942093610080932D
:1003800061000FBE09DF81E090E0FBDE88E893E1C9
:1003900028EC30E0F9013197F1F70197D9F7ACDF9C
:1003A00088EE93E028EC30E0F9013197F1F70197FE
:1003B000D9F7FE0106C08091C80085FFFCCF90935D
:1003C000CE00319690819923B1F78091C800867054
:1003D000E1F388E893E128EC30E0F9013197F1F797
:1003E0000197D9F7CAD184E085BD60960FB6F8941D
:1003F000DEBF0FBECDBFCF91DF910895CF93DF93C6
:1004000099DFECE2F1E02FB7F89488E391E0918373
:100410008083938382839583848388EB91E09783A1
:10042000868380E890E091878087138612862FBFAD
:10043000E8EBF1E02FB7F89484EC91E091838083AE
:10044000938382839583848384E492E09783868375
:1004500080E890E091878087138612862FBF80E026
:1004600090E08FDE78941E9B03C082E090E002C093
:1004700080E090E086DE8FB7F894209136013091CD
:1004800037018FBF809134019091350128173907CA
:1004900049F080E191E0CED4BC0197FD03C08CE22D
:1004A00091E080DE8FB7F894C091C201D091C30172
:1004B0008FBFA89903C0C136D10590F0A89A0EC08D
:1004C000E091BA01F091BB0180E191E0608130D50B
:1004D0002197882329F488EB91E083DE209781F728
:1004E0002FB7F89480913601909137012FBF892B57
:1004F00051F08CE291E075DE982F8091C80085FF65
:10050000FCCF9093CE0080E191E003D57FD4ABCFB8
:10051000DA01923049F0933061F09130F9F4ECEA6D
:10052000F0E022E130E01EC0EEEBF0E02EE330E040
:1005300019C0813049F0813018F0823079F408C058
:10054000ECEFF0E0849107C0E0E0F1E0849103C0BB
:10055000EAE1F1E08491282F30E004C0E0E0F0E02F
:1005600020E030E0ED93FC93C9010895382F282F47
:100570002EC0822F8F708093E900231721F4762FED
:10058000942F50E006C07091EC009091ED005091D6
:10059000F00091FF1BC08091EB008E7F8093EB00F9
:1005A0008091ED008D7F8093ED008091EB00816064
:1005B0008093EB007093EC009093ED005093F0006B
:1005C0008091EE0087FD02C080E008952F5F273004
:1005D00080F23F703093E90081E008950F931F93FC
:1005E000CF93DF93062FEC0110E02AC09881992366
:1005F00029F16B81E981FA812C81892F8F708730F5
:1006000018F5223010F452E001C056E040E028E036
:1006100030E003C04F5F220F331F2E173F07D0F388
:100620006295660F660F607C991F9927991F692B49
:100630004295407F452B9ADF882331F01F5F259636
:100640001017A0F281E001C080E0DF91CF911F91EF
:100650000F9108958091480288238CF403C08EB3D3
:100660008823B1F08091E80082FFF9CF8091E80003
:100670008B778093E80008958EB3882349F08091AA
:10068000E80080FFF9CF8091E8008E778093E80042
:1006900008954091E4005091E50024E68091EC003B
:1006A00080FF23C08091E80080FD1DC08EB38823A9
:1006B00011F482E00895853011F483E0089580916B
:1006C000EB0085FF02C081E008958091E4009091E5
:1006D000E5008417950711F3222311F484E00895AF
:1006E0002150AC01DBCF80E008958091E80082FFCB
:1006F000DDCFF9CFEF92FF920F931F9349D050D0E7
:1007000008ED10E0F80180818F7780838081806818
:10071000808380818F7D808319BC1EBA1092440231
:10072000109246021092450280EEE82EF12CF7015D
:1007300080818B7F8083F80180818160808380E06D
:1007400060E042E013DFE1EEF0E080818E7F8083A5
:10075000E2EEF0E080818160808380818860808328
:10076000F70180818E7F8083F801808180618083A2
:100770001F910F91FF90EF900895E7EDF0E08081D9
:100780008160808384E082BF81E080934702B2CFA2
:10079000E8EDF0E080818E7F80831092E200089582
:1007A0001092DA001092E10008951F920F920FB696
:1007B0000F9211241F932F933F934F935F936F9347
:1007C0007F938F939F93AF93BF93EF93FF9310917A
:1007D000E9008091EC001092E9008091F000877FA1
:1007E0008093F0007894A8D11092E9008091F000F5
:1007F00088608093F0001F701093E900FF91EF91E3
:10080000BF91AF919F918F917F916F915F914F9128
:100810003F912F911F910F900FBE0F901F90189531
:100820001F920F920FB60F9211242F933F934F9365
:100830005F936F937F938F939F93AF93BF93EF9348
:10084000FF938091E10082FF0AC08091E20082FF65
:1008500006C08091E1008B7F8093E100D6D2809129
:10086000DA0080FF1AC08091D80080FF16C0809106
:10087000DA008E7F8093DA008091D90080FF0AC071
:1008800019BC82E089BD09B400FEFDCF81E08EBBBA
:10089000C5DC03C019BC1EBAC2DC8091E10080FF38
:1008A00017C08091E20080FF13C08091E2008E7F2C
:1008B0008093E2008091E20080618093E200809169
:1008C000D80080628093D80019BC85E08EBB9DD291
:1008D0008091E10084FF2BC08091E20084FF27C05B
:1008E00019BC82E089BD09B400FEFDCF8091D8001B
:1008F0008F7D8093D8008091E1008F7E8093E1000E
:100900008091E2008F7E8093E2008091E20081601E
:100910008093E20080914402882331F48091E300C7
:1009200087FD02C081E001C084E08EBB6ED2809161
:10093000E10083FF26C08091E20083FF22C0809106
:10094000E100877F8093E10082E08EBB1092440239
:100950008091E1008E7F8093E1008091E2008E7FA4
:100960008093E2008091E20080618093E20080E069
:1009700060E042E0FBDD8091F00088608093F00051
:1009800044D2FF91EF91BF91AF919F918F917F9151
:100990006F915F914F913F912F910F900FBE0F90EC
:1009A0001F9018959C0140914E0250914F0246179E
:1009B000570718F4F90190E044C06115710511F072
:1009C000AB01F8CF8091E8008E778093E80040E09B
:1009D00050E0F0CF8EB3882309F444C0853009F489
:1009E00043C08091E80083FF02C081E008958091B8
:1009F000E80082FD31C08091E80080FF22C0809134
:100A0000F3009091F200782F60E0292F30E0262B40
:100A1000372B07C081918093F100415050402F5FE8
:100A20003F4F4115510519F02830310598F390E0FA
:100A30002830310509F491E08091E8008E778093A9
:100A4000E8004115510531F6992321F605C08EB312
:100A5000882341F0853041F08091E80082FFF7CF94
:100A600080E0089582E0089583E008959C0140911C
:100A70004E0250914F024617570718F4F90190E0C3
:100A800045C06115710511F0AB01F8CF8091E80008
:100A90008E778093E80040E050E0F0CF8EB388235B
:100AA00009F446C0853009F445C08091E80083FF11
:100AB00002C081E008958091E80082FD33C08091FA
:100AC000E80080FF23C08091F3009091F200782F1E
:100AD00060E0292F30E0262B372B08C084918093CB
:100AE000F1003196415050402F5F3F4F4115510565
:100AF00019F02830310590F390E02830310509F4E1
:100B000091E08091E8008E778093E80041155105CF
:100B100029F6992309F0C2CF05C08EB3882341F08E
:100B2000853041F08091E80082FFF7CF80E00895A2
:100B300082E0089583E008950F931F93DF93CF938E
:100B4000CDB7DEB7AC970FB6F894DEBF0FBECDBF02
:100B5000E8E4F2E08091F100819322E0E035F207D1
:100B6000C9F7E2DB8091E80083FF36C1809148023B
:100B700030914902353009F487C0363040F43130C5
:100B8000C9F1313070F0333009F026C133C038304C
:100B900009F4F5C0393009F404C1363009F01CC13C
:100BA00096C0803821F0823809F016C108C09091B3
:100BB000450280914602882399F0926011C080918D
:100BC0004C028F708093E9008091EB0090E025E06B
:100BD000969587952A95E1F7982F91701092E900E4
:100BE0008091E800877F8093E8009093F100109255
:100BF000F100D0C0882319F0823009F0EDC090E0F8
:100C00008F719070009721F0029709F0E5C00CC039
:100C100080914A02813009F0DFC0109246023330E1
:100C200069F5809346022AC080914A02882331F5F3
:100C300020914C022F7009F4CFC02093E9008091DD
:100C4000EB0080FF1BC0333021F48091EB00806209
:100C500013C08091EB0080618093EB0081E090E015
:100C600002C0880F991F2A95E2F78093EA0010923C
:100C7000EA008091EB0088608093EB001092E9001D
:100C80008091E800877F89C0882309F0A5C0109172
:100C90004A021F770FB7F8948091E800877F80930E
:100CA000E800D8DC8091E80080FFFCCF8091E30071
:100CB0008078812B8093E30080688093E300112388
:100CC00011F482E001C083E08EBB0FBF85C0805865
:100CD000823008F081C080914A0290914B0223E05B
:100CE0008C3D920709F033C083E08C838AE28B83CA
:100CF0007FB7F894DE0115966EE040E050E011E217
:100D0000E62FF0E010935700849140FF03C08295D6
:100D10008F706F5F8F70282F30E08A3018F0C90114
:100D2000C79602C0C901C0968D939D934F5F5F4FD8
:100D30004431510529F77FBF8091E800877F809378
:100D4000E800CE0103966AE270E02CDE12C06091EA
:100D50004C02AE014F5F5F4FDBDBBC01009709F433
:100D60003BC08091E800877F8093E80089819A8169
:100D70007DDE8091E8008B778093E8002DC080387D
:100D800059F58091E800877F8093E80080914402C4
:100D90008093F1008091E8008E778093E8005ADC20
:100DA0001BC08823C9F490914A029230A8F4809124
:100DB000E800877F8093E800909344024BDC8091A9
:100DC0004402882331F48091E30087FD02C081E072
:100DD00001C084E08EBBABDA8091E80083FF0AC0DB
:100DE0008091EB0080628093EB008091E800877F28
:100DF0008093E800AC960FB6F894DEBF0FBECDBF6F
:100E0000CF91DF911F910F91089508951F938EB395
:100E1000882371F01091E9008091EC001092E900B4
:100E20008091E80083FF01C087DE1F701093E90006
:100E30001F910895FC018EB3843099F584899589BA
:100E4000A689B7890097A105B10559F186818F70F0
:100E50008093E9008091E80082FF23C04091F30075
:100E60002091F200942F80E030E0822B932B892B8D
:100E700019F46FEF7FEF04C08091F100682F70E0EC
:100E80004091F3002091F200942F80E030E0822B1B
:100E9000932B892B41F48091E8008B778093E800B5
:100EA00002C06FEF7FEFCB0108950895FC018EB370
:100EB000843051F584899589A689B7890097A10561
:100EC000B10511F181818F708093E9004091F300A9
:100ED0002091F200942F80E030E0822B932B892B1D
:100EE000A9F09091E8008091E8008E778093E80067
:100EF00095FD0CC0CEDB982F882349F48091E80043
:100F00008E778093E80003C092E001C090E0892FC3
:100F10000895FC018EB3843051F484899589A689A3
:100F2000B7890097A105B10511F0CF01BFCF089592
:100F30001F93FC01162F8EB38430E1F484899589C8
:100F4000A689B7890097A105B105A1F081818F70AD
:100F50008093E9008091E80085FD08C08091E80059
:100F60008E778093E80095DB882329F41093F100B5
:100F700080E001C082E01F910895CF93DF93EC01E0
:100F80004096FC018BE0DF011D928A95E9F782E033
:100F90008C83898783E08E87CE01019661E01EDB1A
:100FA000882371F0CE01069661E018DB882341F0BA
:100FB000CE010B9661E012DB882319F081E001C0BD
:100FC00080E0DF91CF910895CF93DF93EC01809182
:100FD000E80083FFA2C0888190E020914C0230910C
:100FE0004D022817390709F098C0809149028132D3
:100FF00069F0823220F4803209F08FC03CC0823226
:1010000009F46AC0833209F088C079C0809148022F
:10101000813A09F082C08091E800877F8093E800E0
:101020008091E80080FFFCCF8C899D89AE89BF89C3
:101030008093F100292F3A2F4B2F55272093F10051
:101040009D01442755272093F1008B2F9927AA272C
:10105000BB278093F100888D8093F100898D809368
:10106000F1008A8D8093F1008091E8008E77809363
:10107000E800F0DA52C080914802813209F04DC098
:101080008091E800877F8093E80004C08EB38823B6
:1010900009F443C08091E80082FFF8CF8091F1000D
:1010A0009091F1002091F1003091F1008C8B9D8B9B
:1010B0002E8B3F8B8091F100888F8091F100898F7A
:1010C0008091F1008A8F8091E8008B778093E8000F
:1010D000C1DACE01CFD821C0809148028132E9F433
:1010E0008091E800877F8093E800B4DA80914A021B
:1010F00090914B02998B888BCE01D7DE0EC08091E8
:101100004802813251F48091E800877F8093E800A3
:10111000A1DACE0160914A02C8DEDF91CF91089535
:10112000A1E21A2EAA1BBB1BFD010DC0AA1FBB1FEB
:10113000EE1FFF1FA217B307E407F50720F0A21B5D
:10114000B30BE40BF50B661F771F881F991F1A94CA
:1011500069F760957095809590959B01AC01BD01F4
:08116000CF010895F894FFCFC0
:1011680024504D544B3138352C302A32320D0A0078
:101178000083100000010410000001820800000133
:0C1188000000000000000000000000005B
:00000001FF
