:10000000A4C00000BFC00000BDC00000BBC0000015
:10001000B9C00000B7C00000B5C00000B3C0000008
:10002000B1C00000AFC00000F5C30000B4C40000C0
:10003000A9C00000A7C00000A5C00000A3C0000028
:10004000A1C000009FC000009DC000009BC0000038
:1000500099C0000097C0000095C0000093C0000048
:1000600091C00000EDC000008DC000008BC00000FA
:1000700089C0000087C0000085C0000083C0000068
:1000800081C000007FC000007DC000007BC0000078
:1000900079C0000077C0000075C0000073C0000088
:1000A00071C000006FC000006DC0000030034C0044
:1000B00055004600410020005500530042002D002D
:1000C000520053003200330032002000410064002F
:1000D00061007000740065007200000018034400A5
:1000E000650061006E002000430061006D00650046
:1000F0007200610000000403090409023E000201CD
:1001000000C0FA09040000010202010005240010E9
:1001100001042402060524060001070582030800E5
:10012000FF09040100020A00000007050402100094
:1001300005070583021000051201100102000008E6
:10014000EB034B2000000102DC0111241FBECFEFA6
:10015000DAE0DEBFCDBF11E0A0E0B1E0EEEDF1E10D
:1001600003C0C89531960D92A637B107D1F712E0BA
:10017000A6E7B1E001C01D92AA39B107E1F769D144
:100180000C94ED083DCFFC01A081B1816C9380817E
:10019000918101969183808326813781821793070D
:1001A00021F484819581918380832FB7F89482858F
:1001B00093850196938782872FBF0895FC01A281C2
:1001C000B3818D91B383A28326813781A217B307B0
:1001D00021F424813581338322839FB7F8942285CB
:1001E000338521503109338722879FBF089580FFCF
:1001F00002C0299A01C0299881FF02C02A9A089555
:100200002A98089586E084B985B18A7F85B90895D2
:10021000FC0106C09091C80095FFFCCF8093CE00F2
:1002200081918111F7CF8091C8008670E1F3089524
:100230000895089580E091E02EC680E091E0EAC63E
:100240001F920F920FB60F9211242F933F934F934B
:100250005F936F937F938F939F93AF93BF93EF932E
:10026000FF936091CE008EB3843019F482E092E067
:100270008ADFFF91EF91BF91AF919F918F917F9115
:100280006F915F914F913F912F910F900FBE0F9003
:100290001F901895CF93FC01A18DA150A23028F496
:1002A000B0E0A55EBE4FCC9101C0C0E0808D823031
:1002B00009F4C860828D873031F0883031F08630A3
:1002C00029F4C26003C0C46001C0C6601092C900B6
:1002D0001092C8001092CA0024893589468957892E
:1002E000CA01B9019695879577956795605C7D4BB6
:1002F000804F9F4F4BD7215031093093CD00209331
:10030000CC00C093CA0082E08093C80088E9809343
:10031000C900CF910895CF93DF93E9ECF0E010820C
:10032000A8ECB0E01C92CAECD0E0188287E690E01E
:100330009093CD008093CC0086E0888382E08C93FC
:1003400088E08083DF91CF910895CF93DF93CDB77D
:10035000DEB7C855D1090FB6F894DEBF0FBECDBFCA
:1003600084E3EDE1F1E0DE01119601900D928A95B2
:10037000E1F780E1E1E5F1E0DE01A75BBF4F01902D
:100380000D928A95E1F784E1E1E6F1E0DE01D59690
:1003900001900D928A95E1F784B7877F84BF88E149
:1003A0000FB6F89480936000109260000FBE90E04A
:1003B00080E80FB6F89480936100909361000FBEBF
:1003C00021DF81E090E013DF2FEF80E792E0215002
:1003D00080409040E1F700C000009DDF2FEF80E7F4
:1003E00092E0215080409040E1F700C00000CE0133
:1003F00001960EDF2FEF80E792E021508040904081
:10040000E1F700C00000CE01C59602DF2FEF80E7C4
:1004100092E0215080409040E1F700C00000CE0102
:10042000875B9F4FF5DE2FEF80E792E02150804001
:100430009040E1F700C00000D5D184E085BDC85AE6
:10044000DF4F0FB6F894DEBF0FBECDBFDF91CF9167
:1004500008957BDFE6E7F1E04FB7F89482E891E09A
:1004600091838083938382839583848382E092E067
:100470009783868320E830E03187208713861286B1
:100480004FBFE2E0F2E04FB7F8948EE092E0918344
:10049000808393838283958384838EE892E097831D
:1004A000868331872087138612864FBF80E090E0D5
:1004B0009EDE78941E9B03C082E090E002C080E044
:1004C00090E095DE8FB7F894209180013091810102
:1004D0008FBF80917E0190917F012817390749F0E5
:1004E00080E091E060D597FD04C0682F86E791E039
:1004F0004ADE8FB7F894C0910C02D0910D028FBFE5
:10050000A8990DC0C136D10550F42FB7F894809149
:100510008001909181012FBF892BE9F013C0A89A27
:100520000EC0E0910402F0910502608180E091E04C
:10053000D7D421978111E9CF82E092E03FDE209766
:1005400081F7E3CF86E791E039DE9091C80095FF0F
:10055000FCCF8093CE0080E091E017D581D4AACF64
:10056000292F33272230310539F02330310549F066
:100570002130310521F128C0EEE3F0E08AEF90E070
:1005800027C099278130910561F08230910581F073
:10059000892BD1F4E6EFF0E0E491F0E086EF90E013
:1005A00017C0ECEDF0E0E491F0E08CED90E010C0CD
:1005B000ECEAF0E0E491F0E08CEA90E009C0E2E1DE
:1005C000F0E088E391E004C0E0E0F0E080E090E05B
:1005D000DA018D939C93CF010895982F2CC09093AE
:1005E000E900981739F07091EC002091ED005091DE
:1005F000F00003C0242F762F50E021FD02C09F5F42
:100600001AC03091EB003E7F3093EB003091ED004B
:100610003D7F3093ED003091EB0031603093EB0083
:100620007093EC002093ED005093F0002091EE00C9
:1006300027FDE5CF07C0973090F28F708093E900D7
:1006400081E0089580E008950F931F93CF93DF9387
:10065000062FEC0110E02FC09881911103C01F5F9D
:10066000259629C02C81E981FA817B81892F8F70A1
:10067000873010F080E022C0223010F056E001C038
:1006800052E028E030E040E003C04F5F220F331F0C
:100690002E173F07D0F34295407F452B692F661FE9
:1006A0006627661F90E4799F90011124622B95DFE5
:1006B0008111D5CFDFCF1013CFCF81E0DF91CF9164
:1006C0001F910F9108958091920287FD05C080913E
:1006D000E80080FF0DC010C08091E80082FD04C0DA
:1006E0008EB38111F9CF08958091E8008B7707C010
:1006F0008EB38111ECCF08958091E8008E778093BE
:10070000E80008958091E4009091E50045E620918D
:10071000EC0020FD1EC022C02EB3222391F0253014
:1007200091F02091EB0025FD10C02091E400309164
:10073000E5002817390759F34150C90141F784E012
:10074000089582E0089583E0089581E0089580E0AF
:1007500008952091E80020FFDFCFF9CF2091E80035
:1007600022FFDACFF4CF0F931F93CF93DF9345D0BF
:100770004CD0C8EDD0E088818F77888388818068ED
:10078000888388818F7D888319BC1EBA10928E025F
:100790001092900210928F0200EE10E0F80180811A
:1007A0008B7F808388818160888342E060E080E085
:1007B00014DFE1EEF0E080818E7F8083E2EEF0E0F6
:1007C000808181608083808188608083F80180815E
:1007D0008E7F8083888180618883DF91CF911F9194
:1007E0000F910895E7EDF0E080818160808384E0DF
:1007F00082BF81E080939102B6CFE8EDF0E0808186
:100800008E7F80831092E20008951092DA00109299
:10081000E10008951F920F920FB60F9211242F93AB
:100820003F934F935F936F937F938F939F93AF9378
:10083000BF93EF93FF938091E10082FF0AC0809104
:10084000E20082FF06C08091E1008B7F8093E1008F
:1008500006D38091DA0080FF19C08091D80080FF14
:1008600015C08091DA008E7F8093DA008091D900E4
:1008700019BC80FF09C082E089BD09B400FEFDCF2C
:1008800081E08EBBD5DC02C01EBAD3DC8091E100D2
:1008900080FF17C08091E20080FF13C08091E200CA
:1008A0008E7F8093E2008091E20080618093E2007D
:1008B0008091D80080628093D80019BC85E08EBBFF
:1008C000CED28091E10084FF2BC08091E20084FFB2
:1008D00027C019BC82E089BD09B400FEFDCF80911C
:1008E000D8008F7D8093D8008091E1008F7E809327
:1008F000E1008091E2008F7E8093E2008091E2002F
:1009000081608093E20080918E02811104C0809109
:10091000E30087FF02C084E001C081E08EBB9FD26C
:100920008091E10083FF26C08091E20083FF22C016
:100930008091E100877F8093E10082E08EBB10927E
:100940008E028091E1008E7F8093E1008091E20031
:100950008E7F8093E2008091E20080618093E200CC
:1009600042E060E080E039DE8091F00088608093B2
:10097000F00075D2FF91EF91BF91AF919F918F9150
:100980007F916F915F914F913F912F910F900FBE8B
:100990000F901F9018951F920F920FB60F9211246F
:1009A0002F933F934F935F936F937F938F939F9377
:1009B000AF93BF93CF93EF93FF938091E9008F7034
:1009C0009091EC0090FF02C090E801C090E0C92F28
:1009D000C82B1092E9008091F000877F8093F0008F
:1009E0007894D7D01092E9008091F00088608093CD
:1009F000F000CF70C093E900FF91EF91CF91BF91CC
:100A0000AF919F918F917F916F915F914F913F91A6
:100A10002F910F900FBE0F901F9018954091980244
:100A2000509199024617570748F06115710539F43E
:100A30004091E8004E774093E80001C0BA01FC0104
:100A400040E032C08EB3882309F441C0853009F4F8
:100A500040C08091E80083FD38C08091E80082FDAD
:100A60002EC08091E80080FF1FC09091F30080911C
:100A7000F200392F20E0A901482BCA0106C041919C
:100A80004093F1006150710901966115710519F0EB
:100A900088309105A0F341E0089709F040E080918B
:100AA000E8008E778093E8006115710559F64111D1
:100AB000C9CF05C08EB3882351F0853051F08091A5
:100AC000E80082FFF7CF80E0089581E0089582E09A
:100AD000089583E008954091980250919902461735
:100AE000570748F06115710539F44091E8004E77D9
:100AF0004093E80001C0BA01FC0140E033C08EB36E
:100B0000882309F442C0853009F441C08091E8008F
:100B100083FD39C08091E80082FD2FC08091E800FC
:100B200080FF20C09091F3008091F200392F20E0E7
:100B3000A901482BCA0107C044914093F1003196A6
:100B40006150710901966115710519F088309105A0
:100B500098F341E0089709F040E08091E8008E7733
:100B60008093E8006115710551F64111C8CF05C0A9
:100B70008EB3882351F0853051F08091E80082FFD8
:100B8000F7CF80E0089581E0089582E0089583E042
:100B90000895EF92FF920F931F93CF93DF93CDB7FA
:100BA000DEB7AC970FB6F894DEBF0FBECDBFE2E95B
:100BB000F2E08091F100819322E0EA39F207C9F76F
:100BC0003CDB8091E80083FF2FC1809192029091DD
:100BD0009302953009F487C038F49130B1F170F088
:100BE000933009F021C131C0983009F4F3C0993035
:100BF00009F4FFC0963009F017C19BC0803821F07E
:100C0000823809F011C108C080918F029091900242
:100C1000992389F082600FC080919602909197028B
:100C20008F7099278093E9008091EB0085FB8827DE
:100C300080F91092E9009091E800977F9093E80086
:100C40008093F1001092F100D0C0882319F0823017
:100C500009F0EAC08F7121F0823009F0E5C00BC0C5
:100C600080919402813009F0DFC0933009F080E078
:100C7000809390022FC08091940281112BC08091AB
:100C80009602909197028F709927009709F4CCC033
:100C90008093E9002091EB0020FF1CC0209193027B
:100CA000233021F48091EB00806212C09091EB0020
:100CB00090619093EB0021E030E001C0220F8A9513
:100CC000EAF72093EA001092EA008091EB00886036
:100CD0008093EB001092E9008091E800877F809379
:100CE000E800F1DCA1C081119FC000919402109135
:100CF00095020F771127E02EFFB6F8948091E80057
:100D0000877F8093E800DFDC8091E80080FFFCCFE4
:100D10008091E3008078802B8093E300806880934B
:100D2000E300EE2011F083E001C082E08EBBFFBE45
:100D30007BC08058823008F077C0809194029091F7
:100D400095028C3D23E0920771F583E08A838AE265
:100D500089834FB7F894DE01139620E03EE051E21C
:100D6000E32FF0E050935700E49120FF03C0E29599
:100D7000EF703F5FEF708E2F90E0EA3010F0C79673
:100D800001C0C0968D939D932F5F243149F74FBFCB
:100D90008091E800877F8093E8006AE270E0CE01EE
:100DA00001963CDE11C0AE01455D5F4F6091960239
:100DB000D7DB0097C9F12091E800277F2093E80056
:100DC000BC018BA59CA587DE8091E8008B77809382
:100DD000E8002AC0803841F58091E800877F809341
:100DE000E80080918E028093F1008091E8008E7778
:100DF00076CF811119C0909194029230A8F480911D
:100E0000E800877F8093E80090938E025CDC8091FD
:100E10008E02811104C08091E30087FF02C084E04C
:100E200001C081E08EBB06DA8091E80083FF0AC032
:100E30008091EB0080628093EB008091E800877FD7
:100E40008093E800AC960FB6F894DEBF0FBECDBF1E
:100E5000DF91CF911F910F91FF90EF90089508952A
:100E6000CF938EB38823A9F08091E9008F70909181
:100E7000EC0090FF02C090E801C090E0C92FC82BA1
:100E80001092E9008091E80083FD83DECF70C0936B
:100E9000E900CF910895CF93DF93EC014096FC01D8
:100EA0008BE0DF011D928A95E9F782E08C838987C8
:100EB00083E08E8761E0CE010196C6DB882361F076
:100EC00061E0CE010696C0DB882331F061E0CE01FF
:100ED0000B96DF91CF91B8CB80E0DF91CF91089551
:100EE000CF93C62F2EB32430F1F4FC0144895589E9
:100EF00066897789452B462B472BA9F081818F7016
:100F00008093E9008091E80085FF04C0C093F10060
:100F100080E00AC08091E8008E778093E800F2DBE1
:100F20008823A1F301C082E0CF9108952EB324302D
:100F300051F5FC014489558966897789452B462BF3
:100F4000472B09F181818F708093E9003091F30084
:100F50002091F200932F80E0822B892B11F480E006
:100F600008959091E8008091E8008E778093E800E2
:100F700095FDF5CFC7DB811107C09091E8009E7702
:100F80009093E800089582E008952EB3243051F440
:100F9000FC014489558966897789452B462B472B67
:100FA00009F0C4CF08952EB3243019F02FEF3FEF8E
:100FB0002EC0FC014489558966897789452B462BCB
:100FC000472BA1F386818F708093E9008091E80020
:100FD00082FFECCF3091F3002091F200932F80E05C
:100FE000822B892B21F02091F10030E002C02FEFFD
:100FF0003FEF5091F3004091F200952F80E0842B59
:10100000892B29F48091E8008B778093E800C9014F
:10101000089508950F931F93CF93DF93EC01809170
:10102000E80083FFAEC0888190E020919602309165
:1010300097022817390709F0A4C0809193028132E2
:1010400061F020F4803209F09CC03FC0823209F484
:1010500070C0833209F095C082C080919202813ABB
:1010600009F08FC08091E800877F8093E80080912D
:10107000E80080FFFCCF4C895D896E897F894093B1
:10108000F100052F162F272F33270093F1008B0136
:10109000222733270093F100472F5527662777270C
:1010A0004093F100888D8093F100898D8093F10049
:1010B0008A8D8093F1008091E8008E778093E8001C
:1010C000DF91CF911F910F91FECA809192028132E0
:1010D00009F057C08091E800877F8093E80004C042
:1010E0008EB3882309F44DC08091E80082FFF8CFC9
:1010F0003091F1002091F1009091F1008091F10088
:101100003C8B2D8B9E8B8F8B8091F100888F8091F3
:10111000F100898F8091F1008A8F8091E8008B77B0
:101120008093E800D0DACE01DF91CF911F910F912B
:10113000B1C880919202813221F58091E800877FC9
:101140008093E800C0DA8091940290919502998B87
:10115000888BCE01DF91CF911F910F915ACF809153
:101160009202813271F48091E800877F8093E800D9
:10117000AADA60919402CE01DF91CF911F910F9175
:1011800048CFDF91CF911F910F910895A1E21A2EC0
:10119000AA1BBB1BEA2FFB2F0DC0AA1FBB1FEE1FF4
:1011A000FF1FA217B307E407F50720F0A21BB30B3C
:1011B000E40BF50B661F771F881F991F1A9469F7B8
:1011C0006095709580959095262F372F482F592F31
:0E11D0006A2F7B2F8E2F9F2F0895F894FFCF4C
:1011DE0000831000000104100000018208000001CD
:1011EE000000000000000000000000302024504DE0
:1011FE00544B3331342C302C312C302C302C302CB1
:10120E00302C302C302C302C302C302C302C302CF0
:10121E00302C302C302C302C302C302A32390D0A18
:10122E000024504D544B3138352C302A32320D0AB1
:10123E000024504D544B3232302C31303030302A65
:06124E0032460D0A00000B
:00000001FF
