:100000009DC0B7C0B6C0B5C097C1B3C0B2C0C2C36F
:10001000B0C0AFC0AEC0ADC0ACC0ABC0AAC0A9C07C
:10002000A8C0A7C03BC2A5C0A4C0A3C0A2C0A1C015
:10003000A0C09FC0009500918F8D8E9800969492DD
:100040009000AC00000000000051210000005A5355
:1000500041572200004358444524A33A0020564605
:1000600054522500004E424847595E00004C4D4A0C
:1000700055262A00003C4B494F292800003E3F4CA2
:100080003A505F00000040007B2B000000000D7D17
:10009000007E0000007C00000008000031003437C2
:1000A00000000000302E323536380300972B332DF8
:1000B0002A39000000000087008900858381828C36
:1000C000008A888684070600000000000071310065
:1000D00000007A7361773200006378646534333BE3
:1000E0000020766674723500006E626867793607A4
:1000F000082C6D6A75373800002C6B696F30390039
:10010000002E2F6C3B702D00000027005B3D00008F
:1001100000000D5D00230000005C000000000800EE
:100120000031003437000000302E323536380300FD
:100130008B2B332D2A3900000000008711241FBEAD
:10014000CFEFD4E0DEBFCDBF11E0A0E0B1E0E6EE3E
:10015000F9E002C005900D92A030B107D9F714E084
:10016000A0E0B1E001C01D92AE36B107E1F742D385
:1001700038C446CF28B1207296B19071990F2917D3
:10018000C9F795B19E7D80FD9F5F84FD905E95B916
:1001900081FF02C090E801C090E082FD905C83FD89
:1001A000905E85FD905F86FD985F87FD9C5F9BB9A3
:1001B00088B190E2892788B90895459896B19071E1
:1001C000E9F795B19E7F84FD9F5F95B985FF02C0D9
:1001D00090E801C090E086FD905C87FD905E9BB941
:1001E000459A96B19071E9F395B19E7F80FD9F5F2E
:1001F00095B981FF02C090E801C090E082FD905C5B
:1002000083FD905E9BB94598089584EA8093BC0075
:100210008091BC0087FFFCCF6091B900687F683097
:1002200021F081E090E070E017D082E08093BB0085
:1002300084E88093BC008091BC0087FFFCCF609174
:10024000B900687F683121F082E090E070E004D06E
:1002500081E080935E0408950895CF93C82F809124
:100260005E04882309F4D1DFC093BB0084E8809347
:10027000BC008091BC0087FFFCCF8091B900887FD3
:10028000883299F0C2DFC093BB0084E88093BC0041
:100290008091BC0087FFFCCF6091B900687F683215
:1002A00021F083E090E070E0D7DFCF910895809156
:1002B000690490916A042091590430915A0482177C
:1002C000930710F4805E9C4F821B930B8032910544
:1002D00010F44398089523E08130920708F0439A80
:1002E0000895E2EBF0E0108286E695E00197F1F7E1
:1002F0000000399A419886E695E00197F1F70000F1
:100300003A9A429886E695E00197F1F7000039980D
:100310004198108281E080936204109233018093AF
:100320006504089587B1897F87B90895813011F4F4
:10033000429A0895429808951F920F920FB60F9215
:1003400011242F933F934F935F936F937F938F93DA
:100350009F93AF93BF93EF93FF931092B20080915E
:1003600065048130A9F5319B6CC0809133018F5FAA
:10037000809333018A3009F4D5DF809133018B30CB
:1003800029F4109265041092330159C0893039F470
:1003900080916204813009F080E0C8DF52C0809112
:1003A000000180FF0DC081E0C1DF809162048130D7
:1003B00019F41092620406C081E08093620402C0C6
:1003C00080E0B4DF8091000186958093000139C000
:1003D000319937C0809133018F5F80933301813031
:1003E00081F18A3071F18B3019F41092330129C0F8
:1003F00090915804969590935804329B03C090585E
:10040000909358048930E9F480916C0490916D04C4
:1004100001968233910510F080E090E02091600415
:10042000309161048217930751F0FC01EF5FFE4F9A
:1004300020915804208390936D0480936C04109253
:100440005804FF91EF91BF91AF919F918F917F9150
:100450006F915F914F913F912F910F900FBE0F9031
:100460001F90189581E090916304913009F080E02D
:1004700090916704913009F48E5F909168049130F7
:1004800009F48C5F9DEE90935F0480935D0482E09D
:100490008093350181E08093370108951F920F9278
:1004A0000FB60F9211242F933F934F935F936F9347
:1004B0007F938F939F93AF93BF93EF93FF9380911D
:1004C000C0004091C6008C7109F04FE3809169042F
:1004D00090916A04019623E08032920714F080E044
:1004E00090E02091590430915A048217930741F00B
:1004F000FC01E85CFE4F408390936A04809369049A
:10050000D6DEFF91EF91BF91AF919F918F917F9137
:100510006F915F914F913F912F910F900FBE0F9070
:100520001F9018951092C50085E08093C40086E066
:100530008093C20088E98093C10008959091C00023
:1005400095FFFCCF8093C600089523B193B121FDA0
:1005500003C090E032DE089592FD03C090E07DDE9E
:10056000089590E007DE0895CF93DF930F92CDB703
:10057000DEB701C000002091690430916A048091C7
:10058000590490915A0428173907A1F3F89420913F
:10059000590430915A042F5F3F4F83E020323807CF
:1005A00010F020E030E0F901E85CFE4F80813093EC
:1005B0005A04209359047894898379DE89810F90B5
:1005C000DF91CF9108954091690450916A04209180
:1005D000590430915A0481E04217530709F480E02E
:1005E000089520916C0430916D0480916004909185
:1005F000610428173907B1F0F89420916004309114
:1006000061042F5F3F4F2233310510F020E030E0CE
:10061000F901EF5FFE4F8081309361042093600405
:100620007894089580E00895CF93DBDFC82F882366
:1006300009F4AEC08A3F21F481E080933701A6C05F
:1006400080916B04803FB1F4C03E09F4A1C0C09317
:100650006B04C23111F0C93511F410926404C43135
:1006600019F41092340194C0C13109F091C0109274
:1006700066048EC0803E21F080916704882309F5CE
:10068000C0936B04C53711F485E019C0C23711F46B
:1006900088E115C0CB3611F480E111C0C43711F4E4
:1006A00084E00DC0C03751F0C13741F0CC3631F095
:1006B000C93621F0CD3711F0CA3719F481E03EDF99
:1006C00067C0C23111F0C93521F481E08093640420
:1006D0005DC0C43121F481E08093340157C0C13141
:1006E00021F481E08093660451C0C83559F48091AB
:1006F0006804813019F4109268041DC081E0809371
:10070000680419C0C73759F480916704813019F41F
:100710001092670410C081E0809367040CC0CE374C
:1007200061F480916304813019F41092630403C072
:1007300081E08093630496DE29C0C43838F5809147
:100740006404EC2FF0E0882319F4E854FF4F02C052
:10075000EC5CFF4F84918823C9F0982F91569A3111
:1007600030F490916804913011F4805209C0982FB0
:1007700091549A3128F490916804913009F4805E84
:1007800090913401913009F48F71D8DEC0936B04DD
:10079000CF9108951F920F920FB60F9211242F93AD
:1007A0003F934F935F936F937F938F939F93AF93F9
:1007B000BF93EF93FF93109233011092580410925D
:1007C000350180916504813021F48BDDABDD109221
:1007D0006504FF91EF91BF91AF919F918F917F91B0
:1007E0006F915F914F913F912F910F900FBE0F909E
:1007F0001F90189510926D0410926C041092610471
:10080000109260041092330110926B0481E0809387
:10081000360110925E0410926A04109269041092DC
:100820005A041092590410926504109235011092E6
:1008300037011092620486E085B989E284B91BB859
:1008400018B88FEF8AB983B182FD08C088E087B9F4
:100850001092B90087E08093B80002C088E287B99F
:10086000C2E0C0936800C0936C00109264041092C0
:10087000340110926604109268041092670410927A
:10088000630450DE80917000826080937000C0939A
:10089000B00087E08093B10087ED8093B300789437
:1008A00012E091DE813009F068C05EDE8B3109F024
:1008B00063C090913601913009F05EC055DE8D32F3
:1008C00019F41092360159C08B3509F056C04CDE30
:1008D000C0E00AC0C43638F48C2F880FC82FCC0F64
:1008E000CC0FC80FC90F40DE982F90539A3090F369
:1008F0008B3391F439DED0E00AC0D43638F48D2F32
:10090000880FD82FDD0FDD0FD80FD90F2DDE982FD0
:1009100090539A3090F301C0D0E0883411F08636BD
:1009200061F4C111C150D111D1508FE00EDE8C2F76
:100930000CDE8EE00ADE8D2F1FC08A3461F4CC23DA
:1009400011F483E119C0C13011F482E115C0C23045
:10095000A1F48CE011C08B3441F4CC2311F481E17B
:100960000BC0C13051F480E107C08C3411F485E133
:1009700003C08D3411F484E1E8DD56DE8091650416
:10098000882309F08ECF80913501882309F489CF1F
:10099000833039F480915B0480930001109335011A
:1009A0001EC0823071F480913701813009F079CF17
:1009B0001092370190915F0490930001809335016C
:1009C0000EC0813009F06DCF80913701813009F080
:1009D00068CF80915D04809300011092350181DC25
:0609E00060CFF894FFCF88
:00000001FF
