:10000300420452A74A863A44328253644B433AA38A
:100013002A224B0442E25BC55BA43AA232413282FC
:100023004B652A4142C34B235364536542A33A624F
:100033004B056C2964084B2432A264286C284AE4DB
:1000430053063A2531C24AC473E77C2873C7634613
:100053006B885B255B6652E552A55AE642026B68E4
:10006300A50E946C63067B6A20607B4972E7396254
:100073006B474A856B66420263865B8453436C26F7
:100083006C6653A443023AC14B2342C17CA884E764
:1000930084858CC67C446B8173E384038C439CA46A
:1000A300A504AD459CC3A5048C42A4E59C63ACE5C3
:1000B300BD66CDA7C566BD04C585C564DDAAD56A81
:1000C300D56AD56BDDCEF6B4F6D6FF19F73AF77CD1
:1000D300F79DFFBEFFBEFFBEF7BEF7BEF7BEF7BD7F
:1000E300F7BDF7BDF7DDF7BDF7BEF7DEF7DEF7DEE9
:1000F300F7BFF79EF77DEF3BEF1AF739F739FF3874
:10010300422552A73A243A2342E453443AC23AA33B
:100113003A634AE342C2536453844AE332213A6264
:1001230063E8326242C363C6850B6C083AA35B671C
:10013300F7FA744964084B242A2163E763E75325DC
:1001430073EA4A66428553264AC36B865B05738806
:100153007BEA5AC5842A6B486307738939C25AC636
:100163006B487BCA738862C828A1834A6AC641A3C5
:100173006B685AC7630652A56BC65B656BE663C5BE
:1001830053444B2332405B8563C6744884A86BE3B6
:100193006BA28CA594A594A594A59CE6B568AD2601
:1001A300A4C5BD87BD87C587A483BD46BD67C58676
:1001B300B504C586BD26B506C567C587DDCCD58C18
:1001C300DDACEE70DDCFDDF1F6D6FF39FF7BEF5A04
:1001D300F75BF79DFFBEFFBEFFBEF7BEF7BEF7BEE0
:1001E300F7BEF7BEF7BEF7BEF7BEF7BEF7BEF7BE64
:1001F300F7BEFFBDF79CEF3AF739F739F738FF3809
:10020300528652873A0442844AC442E33A623A63CA
:10021300322342C353644302534442624AA43A2200
:100223004B2521E03282534442E3536542E421C02B
:1002330053255B66D6F542E44B04742874295B2688
:100243005AC6526652C753263A6273E8A52E62E62F
:10025300B53083CA9C6D734A5A875A86528683EB9C
:100263006B6973896B477B8B28A16A8762465A2522
:100273007BAA4A264A2362C563655B24636642629E
:1002830031E031E063A663C67C496BE763647C2598
:1002930052C09D06AD47A4E59CA48C43840294649C
:1002A3008BA2CD89CD89B4C5B4A5BD06ACC4B504B4
:1002B300BD04D5C7DDEAD5ECC54AE64FEE71DDEFE7
:1002C300FF55FF35CD6FD5D1E675FF39F719F739EE
:1002D300FF7BF77CFF9DFFBDFFBEF7BEF7BEF7BFF9
:1002E300F7BFF7BFF7BFF7BEFFBEFFBEFF9EF79D89
:1002F300F77BF75AF75AF739F758F758F737F737BD
:1003030042244A653A2442843A63428342833A232D
:100313003A4442A363C74AE35B2542435AC629A131
:100323003A4322003AA232613AC263E76BE842C51C
:100333004AE54AE4638794ED848B5B2573E8842A5A
:1003430073496AC96309844C73A9A50EAD0F83AAC7
:100353008BEC8BEC942D62A952066B097BCB6B68FB
:100363005AE573C8842A8C2C414351E53901942DF5
:100373006B2839853942942B73E773C75B054A842D
:1003830063275B0673E9532453047C4963856363E2
:100393007C249D06AD46AD25AD25AD269CA4A4A623
:1003A300A445A466AC869C04C56AD5EBCD8AB4C5C6
:1003B300D5A8C547D5CBF6D2FF35DE12CD6FF6B43F
:1003C300DE12EEB4FF16EEB5EED6FF39EEF7F738D0
:1003D300F759F73AF77BF77CF79DFFBEF7BEF7BFF8
:1003E300F7BFFFBEFFBEFFBEFF9DFF7DF75CF75B60
:1003F300F739F739F759F738F738F738F737F71781
:100403005B0752C64AA4426342833A6342843A2357
:100413004AC55B267C4A5B666B885AC662E83182B2
:1004230052E63A8342E42A204B2474297429320287
:100433003A6332015B266BA84A8463477BA9948C99
:10044300942D6AA849E59C6F83AAA48D942CA48E4D
:100453005A466AE983AC6AC949C4944D6B2663253D
:100463007C087C28A54D9CCD394330C15A45942D39
:1004730083EB396549C4ACAD844863655B05634769
:1004830063078C6C42633A415B256BE863867C6748
:100493007C667C237C229D059CE4AD04C5A8C589AC
:1004A300DE2CCDAC9C479C889C88DE70FED2E62D6A
:1004B300DDEBD5AAE62EF6D2FEF5F6F5FF16FF160E
:1004C300EE95F6F6F6F7FF17FF38F738F738FF38EB
:1004D300F738F739F739EF3AF75BF77CF77DF79C95
:1004E300F79CF77CF75BF77BFF7BF75AF73AF71933
:1004F300FF7AFFBBFF39FF39F718F738F738F738BA
:1005030052E56BA75B454AE33A8229E131E2428433
:100513004A644A854AA5632773486AC841A38C4D38
:1005230052E62A014B2542E34B046BE85B674AA57D
:100533004AA45B065AE6840B7BAA83CB73897B8927
:1005430073298B8C59E79BEEA46EA44D9C4D940D9F
:1005530052266B2A39A4628873497BC96BA66364EC
:1005630084678CA98C889D0C316231228C0C83C9E1
:10057300CE132882A42DB4CC7BE773A673A7A4ED76
:100583007B888C6B5AE48CAA6BA729A074086BE751
:1005930074265B6274047C447C03B547ACE6CDAA45
:1005A300CDABDE0DD60E9CA873A5BD8DFED3F6B1E3
:1005B300DE0CE60DFED0FF13F6B2DE10DDD0EE93B7
:1005C300FF37FF17FF38FF38FF38FF38FF38FF3892
:1005D300FF38F738F739F739F73AF73BF75BEF3A74
:1005E300FF9BEF39EF19F739F739F739F739FF5926
:1005F300FF39F719FF39FF39FF39FF39FF38FF3862
:100603004AE463C66C0653845BA63A4242A44AC5D5
:100613005B26630939A3526662C839428BAC9CAE30
:10062300426432423AA33A614B045B6663674A848D
:100633005B267BE983CA8C0C73499CAE942C73288C
:100643009C2E9C2F622893CE9C2D9C2CACAFA46F28
:100653005A685A6852474A055AA6844A84697C678D
:100663008CA88CA884688C8A4A6521029CCEAD4EE6
:100673008C0949A6AC4DC50C734594699C4AB4ECEE
:10068300ACABB50CD651948973458C095AA35B2541
:100693005B6542A25B445B236B8584059466ACC7B0
:1006A300D5CBDE0CE66ED62DCDEDDE70FF12E64E19
:1006B300D5CAD5CAEE6EE64DD5CCCD6AD5ADFEF31F
:1006C300FEF5FF36F717F738F738F738F738F73806
:1006D300F738F738F738F738F738F719F739F739BC
:1006E300B510F739FF79F738F738F718F738FF59A6
:1006F300FF59F739F739F739F738FF38FF38FF383B
:100703005B645BA45BC35BC474484AE44AC55B4651
:100713005B066AE920E249E541A4836BB5118C2CA1
:100723004AA43A434AE442A24B04740963674A85E4
:100733005AE58C4BA4AE9C6E83AB8BEC944D7B69DA
:100743008BECACD17B6C7B4B940D9C4DA46EA44E77
:100753007B0A392349A539848C4D73C874277447A0
:1007630074467C478C8984AA636910A073A994CBCF
:100773009CAB4144AC4CC4CA9C09ACABC54DB4AAB8
:10078300BCEBEE91E650ACA98366C58FA48B5AA44B
:1007930094CC5B2663676B8894EDAD6E9CAAACA981
:1007A300C54AD5AADD8AE60CE5ECD5ABDE4BC58799
:1007B300CDA8CD88DDCAD589D5A9DDEAEE4EEE6F89
:1007C300EE71FF36F717F718F738F739F739F739B6
:1007D300F738F738F738F738FF38FF38FF18FF597D
:1007E300EEB7F738F738FF59FF39F739F739F739E3
:1007F300F759F738F738F738F738F737F717F717A0
:1008030042E332613AA25BA663C85B6742A452E546
:100813005AE67B8B49E628C26246B4EFACAD5A6513
:1008230062C85AE74AE53A824B04842A83AA62A63D
:1008330052647C0A8C4B8C2B62E6524452447B49B3
:10084300834A6A88732B7BCE83AE6AEA8BCD93EDA2
:10085300A48F41A45A8842256BA95B6563E6534480
:100863005B856C075B855B66636A20E25A66732867
:10087300B4F1AC70E5B1CCCABCC9CD0AD54BD54BEC
:10088300BCC8B488E62ED5ACCD4BEE50C52E940C27
:1008930041E42900B50FA46CC54FE693F6F2F6AF19
:1008A300D588CD46DDC9E62ACDA8C569D60CB505E0
:1008B300CDA5CD85D5A7CD47D589D5A9E60CEE4ED7
:1008C300FED2FEF4FF16FF17FF17FF17FF17F716E9
:1008D300F717F737FF38F738F738F739F739FF39AC
:1008E300FF39FF39FF39FF59F719FF39FF58EF1760
:1008F300F738F759F739F718F736FF36FF16F716B3
:100903005B863241322153468D0E9D2F5B265B065B
:100913005AE6AD115A6831036267C5719C4BACAEA0
:100923005A064A24ADB03A425B668C6B7B895A65A2
:100933007BA95B06A50D8C8A84298C6A9CCDC5B1E5
:10094300ACCFACAFA4B094703964310249A593EE37
:10095300A4B14A064A475286844B63464AC432428C
:100963003A4253264AE431E1528718815A4728A173
:10097300BD341820D56ECCEACD49DDCBCD299362A9
:10098300BD08B4C7C529CD4AEE2EF691C54EDE5536
:10099300C5D46B08A46DDDF1FED4FF34F6D1DDEAD6
:1009A300BD25BD05C567CD88B4E7DE0DD5CDC568CA
:1009B300CDA5BD23CD66CD68E60BDE0ADDECDDEC0F
:1009C300EE91FED3FEF5FEF5FEF6FF16FF15F715C5
:1009D300F716FF16FF37F737F738F738F738F738D2
:1009E300FF38FF38FF39D5F4FF39F738FF38FF58A0
:1009F300F737F718B510D5F3F715F715FF15FF16E9
:100A03005B0642433A2352E642645AC6738962E75D
:100A130073499C6E8BEE9411732D9C709C4E8B8B43
:100A23006A67628663064AA353258CAB5264736874
:100A33006B277BE89D0B94EA9D2B8CA9AD8DAD6E46
:100A4300AD4EAD0D944DAD30B550A4CE734A39655E
:100A5300732D292562EA5AA77BCA5AC63A234265EF
:100A630031A24A654AA54A8539E6208351C63942EF
:100A730093CD51C3BCEBCD4ABD28BCE7AC85B4C60E
:100A8300A4A5A4A5C569CD69DDCCDE2EB4EC9C6C10
:100A9300C5F362A6D613EEB3F6D3F6B2D5ACACA5C6
:100AA300B525BD87BD68A486BD0AEE70C54BBD07DD
:100AB300C566C545D588DDEAC549E64CFEF0EE902E
:100AC300F6D2FEF3FF14FF14FF14F714FF14FF15FF
:100AD300F715FF15FF16F716F716F736F737FF3733
:100AE300FF37FF37FF37F6F7F717FF78F6F6FF36CE
:100AF300FF35F6F5F6F6FF15F714F714FF15FF1695
:100B030049E462A74A044A0441C462A75A667B497E
:100B13006AE8A48F31046B0E83F39453734DA4914D
:100B230041648BCC7B8952A46BE874084A8373A914
:100B33006B269CCCA54B8CA884888CC9950B848987
:100B4300A56D7BE87BE9A50E9D0CBDAFB570A4D266
:100B530031452944632A5AC673895AE7424539E421
:100B6300212263294A854A653166186328A272C91E
:100B730051C57B27CDACACA6ACE6B506B547AD25D4
:100B83009483A5059C6493C2A4459C259C488BE94A
:100B9300ACCF7308C54FDE10EE90E62FD5CC9C8604
:100BA30094659CA79CA7BD6ACDCCCDABC529BCC61B
:100BB300D5A7CD87CD89EE6EE66FDE2EEE91F6D208
:100BC300FF14FEF4FF14FF14FF14FF14FF14FF14AB
:100BD300FF14FF14FF15FF14F715F715F715F71595
:100BE300F715F715F715F6D5FF16FF16FF16F6D40A
:100BF300F6F3FF35F6D4FF35FF15FF14F715F71598
:100C03006ACA51E6730A41A549C57B2B5A07834B30
:100C13007B2B8C0E20E46B5073D46B726B719453EB
:100C230031269C508BCC6B28842A5B263A0273882E
:100C330083CAACED94AA8C8963656385742863A623
:100C43007C287C498C6B94AB9D0B9D0B94AC7BEC0B
:100C53008C2E422552A663267BE96B88424442458B
:100C63004A6694AE5B065AE73986208530E49C2FAA
:100C7300204072E594469CC68C449CE694848C8404
:100C8300A5469D2694A4A4A5B4E6CDAAE62ECD8EB2
:100C9300AC6D93AAB48CEE51D58BBCE8CDAB944725
:100CA300840794699468AD28ACE5BD05D5A8CDA7A4
:100CB300DE09E62AE64DFED1FEF3FF14FF14FEF42F
:100CC300FF15FF14FF15F6F4FF14F6F3FF34FF14BA
:100CD300FF14FF14FF14FF14FF14FF14FF14FF1479
:100CE300FF14FF14FF15FF15FF15FEF5FF15F6D4CE
:100CF300FF15FEF4FF15FEF5FEF5FEF5FF15FF15D6
:100D03008BAE72CA836C49C55206838C49A5A47005
:100D1300730B8C0F18A341EA6B72845673D463511F
:100D23006310947383AE83CC8C6D6B8942236B48C1
:100D33008C0BA48C7BC86B876B876367426252E51D
:100D43005B257C0973A7846A73C77C48844A8CAC8F
:100D530063474A644A2363066B6763464263636976
:100D63004AC663685B478C4C83CF208549A7498477
:100D73004122A46B94A873E37C057C25A54A8CA728
:100D83007C456BE38423A4E6BD07E62CDDECD58D1F
:100D93008B277A65AC2BE60EC507ACC6BD8ABD6B47
:100DA3008BE8C5F0A4CAACE7BD65C584C565D5A706
:100DB300DDE8DDEAEE8EFED2FEF4FF16FEF4FEF46D
:100DC300F6B3FEF4FF14FF14FF14FF14FEF3FF1336
:100DD300FF13FF13FF14FF13FF13FF13FF14FF147D
:100DE300FF14FF14FF14FF34FF14FF15FEF5FF1665
:100DF300F6F5FF15FF15FEF5FEF6FEF6FEF5FF15FB
:100E03006AC98BED7B6B522583AB734A31019C6EB0
:100E13008BCD940F20A241A762AD5ACE7393845613
:100E23007BF55B107BB1A4D383CD526652874A25F1
:100E3300838A93EBA4EE840A5AE652C639E24A84C3
:100E430052A47C096BA673E852E552E54AA45B25DC
:100E530063465265314373487BA96B6773A873E993
:100E63005B278CCD5B266B8841E61043312530E14F
:100E730072A8C5908C6884876BC55B655324530443
:100E83003A8142C073E3A507BD27CD68CD28C50AC3
:100E9300936761E3EE32E60DCDA8B548BDAAAD0870
:100EA3009C87BD4AC56BCDCBCDC8C586C565CDA7CF
:100EB300CDA8DDEAEE6DEE4FF6B2FF14FF13FEF29E
:100EC300EE70FF12FEF2F6D2F6B1FF13F6F2FF1345
:100ED300FF33FF13FF13FF14FF14FF14FF14FF145A
:100EE300FF14FF14FF14FF34F6F4FF16FF16FF166A
:100EF300FF16FF15F715FF35FF16FF16FF15FF1435
:100F030052259C6D83CA6B279CADAD4F62E67BA9CE
:100F1300CDF47AEA286049A5A471ACD462EF6331B9
:100F230073D57C765B10734F83AE7B6C6AE983ACBD
:100F330072E8A44D9CAD840B6B6852A652A539E2AE
:100F430052A5840A6BA66386740B636A53075B66B8
:100F53004A645A6841667B0A7B489C6C9CCC7388C4
:100F6300AD90B5D173EA52844206188431255A27CD
:100F73007AC9B4EE7BE763C54B033A6229C23AA44C
:100F83004B0542A263838C659C64B4C4BCC6D5ACD8
:100F93008B268B07E612D5ECACE494859CA5A4C400
:100FA300B526C547AC65D5CCDDECC568CDC8C567EE
:100FB300CD68CD68CD48CD89EE8FF6B1EE8FDDECEF
:100FC300DDECF6D0FED0E60DE62EF68FF6B1F71384
:100FD300FF33F713FF14FF14FF14FF14FF14FF1460
:100FE300FF14FF14FF14F714FF15F715FF17DE3373
:100FF300EEF6F735F714F734FF15FF15FF13FF125D
:101003004A847C2A6BA7848A84AA7C286BA76BA852
:10101300B59151E630C272A89C0DD5F57B6E737104
:101023007BF65B126B9273717BD0B55472E8AC8E16
:101033008B8A9C4D842B8C6C736952864204528537
:101043006B6894AC7C488D0B950D636963495AC8F2
:101053005A675A27414572877B47AD0E8C4A6B45C9
:10106300948BCE546B677388526928C639649C2B62
:101073005A0562675AC55B6463464A63634639E24D
:1010830042643A2352C37BA594259BE59BE5CD6C33
:10109300B46B61E3C4EBCD499BE483C67BC4840397
:1010A300ACE693A2BCA7EE6EDE0CBD07BD26AC84F6
:1010B300BD68C547BD06DDCAE62CE64DC587B4E568
:1010C300DE0CE60CEE4CCD88CD69DDEDFF13FF148D
:1010D300FEF3FF13FF13F6F3FF13FF13FF13FF13C7
:1010E300FF14FF14FF14FF14FF34F714FF15F71454
:1010F300FF35F6F3FF54FF13FF33FF12F712F71117
:10110300740963A742A35345536563A77C4A4AA462
:101113008C6D398420606AA8C592BD52BD758C342C
:101123006B746B545AF14A8E8C53C5F7D61593EBF7
:10113300940C83AA8C6B8C8C73A97BAA6B4962E792
:101143006B487C0A5B2553056BA94A8663096B4B85
:10115300CDF67B2C414472C79C8A7BE87BE86B8489
:101163009489F7977BC8AD7062EB28E65A26ACAC3E
:10117300BD1049A529417C094A6441E26B066B28ED
:101183006B2983EC630683A683648B64A427CD4C0D
:10119300DD904900D56EC52AAC4883865AA183C425
:1011A3009C65BCE8F66EE60DC528BD06C5469422CF
:1011B300AD05B525BD05DDE9DDEAD5EBBD45B506D4
:1011C300C549DDECD5EABD06D5C9E64DFEF2FF13F0
:1011D300FF13FEF3FF13FEF3FF13FF13FF13FEF3DF
:1011E300FEF3FF13FEF3FEF3FF34FF14FF34FF148B
:1011F300FF55E672FF14FF54FF33F712F6F2FF12A6
:101203007C6A3A83324142E353453A626BE931E304
:101213008C8E39A362A77349B50FBD92734C9CD5CD
:10122300739373546B545AF15AF09C94D617D63572
:101233009C8D7B89842A73A973A9630852864A44C7
:1012430052C66B68424442454A666B6B83EE5AA9A9
:1012530020C3626A39246AE68C4873E68CA995092F
:1012630094C8E7359CEC842B290431055A468386C0
:10127300ACAD7B4B31625AC68BCACDB172E672C735
:101283005226C593940BACCBC52BB448CD4BCD2B79
:10129300E5F148E0C50EB4A9AC4A93C87B24B5096F
:1012A300CDABBD29DDECDE0CCD69CDA8BD25B525C3
:1012B300BD66BD45C545CD86D5C9C568AD05B52750
:1012C300BD49E66ED5CABD06C567DE0BF6D0F6D1BD
:1012D300EE90FEF2F6D2FEF3FEF3F6F3F6F3FEF330
:1012E300FEF3FEF3FEF3FEF3F6D2EE91F6F3F6F31E
:1012F300FF15FEF4DE31FF35F6D3FF14FF13F6F3CB
:10130300532629E121E03A633A842A033A65740DAE
:1013130052E873A96B6773888C4B83CA736A736DC6
:101323004A2B6B31739463325B117BD29CB2B53120
:10133300B591A52F844B4A8463277BEB840B4A65C5
:101343005AC66B694A255AA87BAC83CD5A88292390
:10135300188162AA310362E752C274277447742466
:101363008467DF15A52E844C312449A673069C4857
:101373007B677308C5D36AE8BCEFAC4CB46DC4EFAC
:101383007AE8B4F0AC8CE60FCD2AD54AF66EDDCC04
:10139300DDAF4920CD4ED5CEBCCD8346C54CCD8CDB
:1013A300D5AC93C4DE2DACE8C569B506AD04B5660E
:1013B300BD86BD65C565CDA7CD88C5AAA4E78C2428
:1013C300BD6BB5299C44B4E6C547CD89D5ECDE0D8C
:1013D300D5CDF6D1FF12FEF2FEF3FEF3FEF3FEF3DC
:1013E300FEF3FEF3FEF3FEF3FF13F6D2FEF3FEF37A
:1013F300FF75FF14FEF3FF13FEF3EE71E651FEF3E8
:101403004AC529E1322353074AE64AE73A255B4AAC
:101413004AC84AC45B2473E773C7A52D8C4C316358
:101423007B6C7B9062EF63316351632F9CD3B593E5
:101433009D0EA54EA52E844B844B7BEB422439C3D2
:1014430039C363085A87732A7BAB4A455AA6946EFD
:10145300736B3984314362C7844A6BE85B8563A449
:101463007C28EF998C8D840B524751E58387A4C95F
:101473007B86A4AD9C6D4983C4EFC4CDBC6BCD2FDB
:10148300A3EA6A64CD8EDDEDBCA6E5EBD589CD6814
:10149300D58C6A21E630E62FA44AC50DDDCFEE5088
:1014A300E66F9C269C879445CDEBB5078C23A50658
:1014B300AD46B526BD05BD26CD8A9C67A5297BE52E
:1014C300DEB0A4C8A486B4E7CDA9CD89D5EBCD6A97
:1014D300D5CCEE90F6D1FEF2FEF3FEF3FEF3FEF36F
:1014E300FEF3FF13FEF3FEF3FEF3FEF2F6D2F6D1A4
:1014F300F6D1F6D2FEF2F6D2F6D2F6D2F6D2F6D282
:101503003A243A2429C23A245B284AC85B295B4A15
:1015130021A253055B4463A48CCA8C6A526352654F
:10152300B530B53383D0633052CF4A6D4229840E30
:101533009D2F94CD8C8BBDD1AD905AC64A454A455B
:1015430052457B6A62C87B8A5AC6946C8C6B7BC992
:10155300738939A310604A0673C95B475307846ACA
:1015630094CDF79BAD7394CF6B0A7308BD2D94276D
:101573009469A4ECD6537B09A3ECE5F2DDAFE63026
:10158300BD0B8385CDADC549B4A6E60AC546CD6678
:10159300BD079385DDECB4A7BCCBE630F691F670BE
:1015A300D5CDBD6CA54A8C46CDCBB5497BC3A5290A
:1015B300AD28BD47C527D5CBE6909C896B858C6844
:1015C300DEF29CA89C87ACE8BD6A9C659C44C52858
:1015D300E62DFED1FED1FEF2FEF3FEF3FEF3EE9115
:1015E300FEF3FF13FEF2FEF2FEF2F6D2F6D1FED1C7
:1015F300FEF1FED1F6D1FEF1F6D1F6D1F6D1F6D158
:1016030031E44AA74A673A055B2952C852E8428740
:1016130029E332223A8253036BC67C0963275AA516
:10162300BD90940C734C9CD573B36B51526C5AEBB5
:10163300842D844C946B94ACC612946C946D734952
:1016430083CC5A467B6A7BAA73A863246B85842860
:10165300A54E94AE41A341847369738BA53294AEB6
:101663009CAFEF3BC6159D1183EDA48FB50E7BA7F1
:101673007C0994ABC5AFC5317AE9BCCEFF14DE2E2D
:10168300B529B58BAD09C5AACDAAD5EAC567BD6590
:10169300BD47A446B4A6C527FED2FEF2EE6FF69070
:1016A300ACC97BE694EA94A8C5ABBD8B73C58C67C4
:1016B3008C25ACA6C528EE6FF713AD0D634594EBEF
:1016C30084278C479427ACEAACE97B63BD6AE62C9C
:1016D300D5CAE64EFF12FEF2FEF2FEF2FEF2B4CAE5
:1016E300E650FF33FEF2F6D2FED2FED1FED1FED19A
:1016F300F6D1F6D1FEF1F6B1F6D1F6D1F6D1F6D1A7
:101703004A886B8C840E632A4A665B094AA7428522
:10171300218232033A433A824AC44AA55AE762E62F
:101723007B8873075226630D633152904A4D4A6B8F
:101733008CB1A551948C8C2AD674A4EE9CAE7B8A72
:101743006287416441A3738963467C088CA9AD6DAC
:1017530094CC8C6C2902392383AB840DA512AD3252
:10176300BDD4EF3CD6B8BE16BDD79C2FBD30732772
:1017730052C573C75A8351A430E3A48EC5AEB54A8C
:101783008C657BE38C868C65B549ACE7A4A4AD245A
:10179300B4E5BD08BD06DDEAE5EDEE8FF68FF69004
:1017A300D5EEAD8C84887C26B52AC5CD6B8494C9CF
:1017B300AD09BD28C508F6B0EED383E98C6AAD8EBA
:1017C30094CA9489C5EFC5EF7BA59468C58BC548BA
:1017D300CD89EE6FFED1FED2FED2F6D2F6F2FEF244
:1017E300F6F2F6D2F6D2F6D1FED2FED1FED1F6B1A2
:1017F300FED2FED2FEB2FEF3FED2FED2FED2FED265
:101803006B8C7C0E6B4C7BEF7BCE21435AE831A370
:1018130031A242054A664AC732046B8A7BEB5B08F6
:1018230073CC6B6A52887BCFA537841541EC29684A
:1018330042497C0E8C6C7388CDF1944B6B07420349
:101843008C4C6B684A8531E3636894CC7C288CAA02
:101853006326528620E139638C0D9CB09490B59435
:10186300D699F75CEF1ADEDAAD55ACF2ACEF83CB69
:10187300BD957B8B942C93ED49C65A65A50B7C05CE
:101883006362740584467C24844573A38C459CE57C
:10189300B566B525B4E4B4C5C528C548BD0AA46971
:1018A300BD6B8C6A6B489CEDAD4C84494A847BEAE2
:1018B3009CAC7345D60EEE91BD8E6B276B887387F8
:1018C30073657BC6B58D736483E4B527C567D58817
:1018D300DDEBF6B0FED2F6B1BD0BF6D2F692F6D141
:1018E300FED1F6D2FED2F6D2FEF2DDEEC54CF6B252
:1018F300F692F651F651F671F671F671F650F670EE
:101903003A268C7094B2947194727BEF214362E90E
:101913004A2649E583EE4A4873AD5AC983ED94904C
:1019230073EE846F42275AEB9CD583F3290918C6BB
:1019330029675AEA844B83E9D651A4EC5AC46B87CE
:101943007C095B453A024A6510C03182840C738A74
:101953004A0562A9310441848C0D944EA4F1AD5320
:10196300DEBAFFFFF77DE6FBC5F8B533B530BDB290
:10197300B533942E9CADA48FCDF6B57094CA95095A
:101983007425A58C94E99D296BC37405846694C65C
:101993009CE59CC3A4C3B505C588C568CDCDA4C9C2
:1019A300E6F38C0C5AA77BC9A54DB5D17C0A7BEA1B
:1019B3007367BD4EEE92EEB3EEB483AA62E7944B27
:1019C3008C09AD0CAD2D9CAA9C88ACE7ACA4D58941
:1019D300F68FFEB1F6B1FF13F6F2F6B1F6B1F6B13A
:1019E300F6D1FED2FED2FEF2F6D2FEF3FEF3EE51B4
:1019F300F652FEB3F651F651F651F650F650F65044
:101A030029C452E97BCE9492B597AD569CD3292431
:101A130041C67B6CAD135AAA5AAA6B0B62A96B0B16
:101A23007BCE6B2C5ACA528A9472AD58528D420B9C
:101A330018E54228840A8C4AE6D3AD2B6B857408DB
:101A4300A58E74289D2E842BA5518C4FB533DE783B
:101A5300E699F6BBFF1CFF5CFFFDFFDCFFDCFFDD4F
:101A6300FFFFFFBEFFFFF7BEF77EDE99DE75B530E1
:101A73009C6F83CBB52F9C4D944E39C27C076C056C
:101A8300744653214AE16BA36BE44B0142C06BC420
:101A93008465A54794839CC4A4E6C5CBB56A8C260C
:101AA300CE526AEAACF19CCDDEB5A50F73C88C6942
:101AB300AD2CDE51E632FE95FED7BD317B69ACEE2F
:101AC300C5B0AD0E73686B4773869C88CD8BEE4EA5
:101AD300F691FEF4FEF4F6D2FEF2F6D1FF11FEF219
:101AE300FED2FED2F6B2F691FED3FEB3F692F651D3
:101AF300EE31BCABF672F651F671F671F671F67112
:101B030029E46B8B9CF2B5769CD48C5362ED314700
:101B13005A2A838ECDD88C119C72628AB51449E8F7
:101B2300630C8C10526A5249B5977390526C4A6D8C
:101B3300296831868C0AB52DDE71D67173C773E9B6
:101B4300530663676BC952E65AE75AC7736920E0C5
:101B530052068B8D59E741858BCD9CAF9CAEBDB4AE
:101B6300D698F79DEF5DF79EB596BD73B5109C6D46
:101B7300B531B571AD2F83A8842B6B676BA663C595
:101B83004B015BA37C6674466C0663E563E6ADEECE
:101B930053228CA79D2894E59D06AD4AB5AC738569
:101BA300944C49E7C5B5BD91D61362C5736483C42C
:101BB300C5CBE64FF673FE96CD5172E78C4B8C295D
:101BC300A4EC83C99C8DBDB1D652F734FEF1FEF16E
:101BD300F6B2FEF5FEF5F6D3FEF3FF33EE70F6B282
:101BE300F6B2FEF3FED3F672FE92F651F631FE9391
:101BF300F672EE31F652F652F651EE30EE30F65101
:101C03003A643A247BED83EFB576D6BC5AAD7B714B
:101C130083919C93C5F8B5776B2E8C12CE19C5D8DA
:101C23009CD46B2E4A0962CC9473841210A518C6F7
:101C330018E518C38C0BB54FCE12DED57BEA5B08D3
:101C4300FFFD73AC5AE9634A7BEC52E63A027BC967
:101C5300316249C65A2930E37B2AACF0ACEFC61493
:101C6300BDD5DEDADEDAD6BACE17CDB4ACAEB4CE9D
:101C7300CDB2C5B1A4AC9469AD8F9CED4AC45B658C
:101C83003AC04B2084C86BE67C898D2B6BE732010D
:101C93004AC35B647C2673E36BA29D09C60F83E989
:101CA30052457309DE37D5D5A4AD9C08C54ADE2B52
:101CB300B4E5D58BBCABDDD3E695B56F94EAA54B04
:101CC30094C9A4EBBD90E694D611EE70E60DDDED5C
:101CD300EE91FEF5FED6FEF5FF15FF15FEF4FEF5BB
:101CE300F6B4F693F693F673F672FE72FE52FE5254
:101CF300F673F672F672F672F652F652F652F65220
:101D03002A0163884AA673AC6B4CAD76108328E531
:101D130049E983F06B4E6B7052ADC61ACE3AE71D9C
:101D23009D15734F83B083D0CE5A84335AEF526CD0
:101D330029462944AD10D634CDF4A4D07BAC4A4710
:101D430042065205522739854A26948F8C8E7C0C85
:101D53005AC84A0920A528826247A4AEC5B1B55026
:101D6300B572DED9D699BDD79C91D5F3B46DC50FA5
:101D7300C54FC590CDF1B58D7BE85B062981530432
:101D83008D2A63E37C875B2442625B25634742447D
:101D930029814A8384287BE66B647BA5BD8EA48D51
:101DA300520493EBDE36834BB50DB4E8CDAACDA92F
:101DB300A464A425AC49E653B50ECE737C886BC5E9
:101DC3008C88A50BA4CCC58FDE30CD4AC508CD6A5F
:101DD300F691FEF5F6D6F6D7F6F6F6F6FEF6F6D556
:101DE300EE94F694F6D5F653F673F653FE53FE537C
:101DF300F673F673F673F673F673F673F673F67398
:101E03002A206BC763675B07630994B1290420A386
:101E1300734D736E528C424C5AEF630F4A2A9CD413
:101E23005B0D526B5ACCB577C63BB5DA528E31880F
:101E3300420862EA946E944E9C8FA4F1B594944E3A
:101E43006285AC6A8B675181416231025A877BEDAF
:101E53007BCE630D28E5206251E6940BA48CB50E6E
:101E6300B530C5D4E6D994709C4EBD0FB42CDD506B
:101E7300BCCCC56F9C4B8C278C4862E642447C2AC1
:101E83007C677C8574064221420273277349CDD354
:101E93002900A4AEC5B19C6BAD0EACECB50CD5D28C
:101EA3007B0A6A867B07ACADC5ADB547A5068C0436
:101EB3008C04D5EDE60FF6B3C56FCE1394CC73A7A0
:101EC3007BA78C4A6B06942AACEBBD09CD49CD8C1C
:101ED300EE51EE95F6B7F6D8F6D7F6D6F6D6F695D2
:101EE300F695EE54F6D5F674F673F673F673F67349
:101EF300F653F653F653F653F653F653F653F65397
:101F030042C27C89636642437BEB8C8F318439A563
:101F1300ACD3D67A6B705ACE5ACF526D312741EA81
:101F23004A6B4A2ABDF9B5B9AD99A5593A0C52ADD8
:101F330073AEAD32BDB4DE77E698DE98DE97E6D5B4
:101F430093E6D5AACD06D528A3E7AC8D9C6F7B8CF1
:101F530052875AC94A0630E43923B4CE9C4AACAC02
:101F6300B52FDE76EEF9734C8BABA3EAA369CCCE27
:101F7300E5F0C52E83A89C68A4EA83E939C35AE631
:101F8300740695088487632652038349A46EC57338
:101F930030C0BD10A46D93CB9C2D8BA99C07E6325A
:101FA300830A4942B4EDB4EBA4C794A4846494C8EF
:101FB30083C68BC6E630FED3DDD272A89C8E62A6A2
:101FC3005A649C6DC5B2CE13B56EB52ADE2DEE50A4
:101FD300FED5FEF7FEF9F6D8F6F7F6F6F6F6F6B600
:101FE300F6B6EE75F694F674F694F693F693F693C6
:101FF300F673F673F673F673F673F673F673F67396
:1020030042C163C67C2A4203734A83AC28E16B094D
:1020130041C5A4B38C115AAC5A8D524C41EA4A497A
:10202300426818E3088231A7528C73905AAB83EE4F
:102033009CAFC5F3D657DE78EED9DE57DE35DE1218
:10204300C56CC529D549CD0B6203A4B073AB634BF3
:10205300526962EA83AC5A49288149629369ABEABF
:10206300BCCDDE14DE9849C66A888B088AE6DD4E4D
:10207300E5CFBCABA409B48A9BE87B0649829C2BC1
:10208300CE308C874A81736759E37AA6F675D5B348
:1020930038C09BCBE6146225B4EEF693FEF0FED176
:1020A300A429A427D5EDBD6D524152E142E094E944
:1020B300A50AA488DE10DDD0C4EF9BABF6B6C52F0E
:1020C300BD0FEE96DE57EEB9EED7E693F6F4F6D6ED
:1020D300FEF7FED7FEF8F6D8FEF8FED8FED8F6D700
:1020E300F6F7F6D7F6D6F6B6EE95EE74F694F694C2
:1020F300F693F673F673F694F674F694F694F67410
:102103003A81636663475A86838C730A83AC946E01
:10211300946EE6DB62CB83D039A941CA39EA42899E
:10212300322629C421430860294462EAA4D1A4F0D9
:10213300946CBDB1D656DE97D636CDD4CDB3CD9102
:10214300DE32CDAFAC6A496130C27B8C632A73AC9B
:1021530083EE6AC993ED836D30E330A182E89B6817
:10216300DD6FD5D3C5B539646A477A868AC5D4ECA1
:10217300DD6EDD8EC4ECBCABC52EAC4C5183B4EE2E
:10218300AD2C84269CEB7B88AC4C6A02A40AE63611
:102193005183B4ADEE75BD0F9C69E670CDAACDCA6F
:1021A300ACC8B548B528B54D62C394A9BDCD9468F4
:1021B30083C68B868B88C52F7266DDD4D592E633B2
:1021C300DE33D615D637E69AEEFCF73BEEF9E69703
:1021D300EED8FF19FF18FF18F6D8F6D8F6D8F6D8B8
:1021E300F6D8F6F8F6F8F6F7F6D7F6D6F6B6F6B565
:1021F300F6B5F6B5F6B5F6B6FEF7FED7F6D7FF5940
:1022030042836B876B486B09838C51E629017369A1
:1022130073CBAD335AA9C5F7B5764A4B4A6B4248DF
:1022230029E429A329824A656B498C4D946C6B067A
:1022330052439C8CBD90C591CE13DE96E6B7F7183A
:10224300B50FACCF7B28520528E3736D632A8C8FBF
:1022530039E57B6BFFFC734B39252882494393484F
:10226300CD4EDDF3940F4144724782A692E6D50D1D
:10227300FE52C4CCE5D0E5D0DDD0DD916204D5B10A
:10228300BD8EA4EA5AE38BE9B48D936759C1C53275
:1022930049639C2BBD2EA4CC94A89CA7B5888C64C1
:1022A3008C6594C5AD69AD2C7B66E671E630E6318D
:1022B300AC6BCD70F6B66A65DE14F696F6D7F6B655
:1022C300E695E6B78C0F62ED7B919475BD99DE9A26
:1022D300F77DF75CF73BEED9EED8F6D7F6D7F6F8ED
:1022E300F6F8F6F9F6F9F6F9F6F8F6D8F6B7EE9742
:1022F300F6D8F6F9F6F9F6D9F6DAF6DAF6DAF6DA20
:102303003A4363477BCB62A88BCD312241A35AC6A4
:102313005B0794AF840D840ED67939C818C431C6CF
:10232300194229A26BAA7C2B7C0A842A948C9C8C4C
:10233300944C83AAACEEC5D2D654C5D2AD308C2B07
:102343008C2CAD30C5F47B6D292573AD634A5B09D5
:102353007B8D942F9C6F840E41C728E5A4717AC7A7
:102363009BC9CDB26A8A414561E57A868AC6DD702A
:10237300F675B4AEDDF3EE54F674E61359A2DDF24E
:10238300C5B083E76B45942AC54FD590518241452B
:1023930041646AC683C87C087C6673E473E48486FC
:1023A3005B6163C384666B439428DE30EE51F6B4FD
:1023B300DE13D5B3834AAC8EF6D6EE74EE75FED635
:1023C300F6F6E696EF1AAD56947594B894977BF3A8
:1023D3006B507BF2AD56DE9AEED9EEF8F718EED8D5
:1023E300F6F9EEF9EEFAF71AEEFAF6FAF6FAF6DA83
:1023F300EEBAE67AE659DE19DE3ADDF9DE1ADE1ABE
:1024030032036B8A7B8B31436AC939635A6663072C
:102413004A646B8852A673AB8C3039A842093A08D8
:102423001943192231A3422452C65AC66B28736A30
:102433005A8741A45A8852474A055AA66B487C29B1
:1024430073E773E75B068C6F31865B0B52E9632B93
:102453006B2D8BF183CFAD33738FFFDF186339227D
:102463007B28AC8F5A29498659E57AC882E8DDD59D
:10247300DE36B512D5F6E677E675E6344962D5D38E
:10248300BD907BC86B26942AC550BCEF7B0928837B
:102493003925522483E963663A803A0042822A202E
:1024A30042E263E6950A73C5CE0ECDCECDEEC5CF1F
:1024B300EEF64A04A4AEE674F6D4F692F673FEB5CD
:1024C300F6D5F6F6E6B7E6DAAD3673717372635294
:1024D30073B46B527BF4BDB9C5D7BD94D615F73928
:1024E300DE97EEF9EF1BE6BAE699E6BAE67AE65A24
:1024F300DE1ADDFADDFADDFADDFADDFBDDFBDDDA1E
:1025030042877C0D630A41A572EA52066AC883CAF0
:10251300840A73A8634852A73185738F39C9424A25
:1025230029A5212410A22102318431A44205528815
:102533006B4C734D526B62CC4A4952887BEB846A75
:102543008CC98CC86BA67C4C3A0673AE94B183EFEE
:102553008C536B2F736FA4F494735AEF106420A3FE
:10256300730B62896AAB5A285A0672C88B6CD617EA
:102573009CB3AD15C5F8ACD3D5F5CDB44143D63630
:10258300948E5AE78C2CAD0FC5D2A4AEC5B53127B6
:102593001842524583E952E54B043A0352A731E20C
:1025A3004B0584CC74089D4BA54A94A87C466BA626
:1025B30042228C4C8BC9C56ECD8CCD4AF650FE920F
:1025C300F694F6D6F738E6B7E6D9E6DB9CD57BF486
:1025D3007C156B94635363119CB5B555BD75BD7282
:1025E300D656DE97D678DE9ADE7AD639D619DDFA54
:1025F300DDFBDDFBE5FBE61BE61BDDFADDDADDFAE1
:1026030053097C2E62EA732B31036AA949C47B8A7E
:102613005AA573C8632642456B2CC5F95AAD2947A1
:1026230031C7420910834A2939A77BCF7BCF39E8C9
:1026330039C773D07BF252AD422B39E918E33A0420
:1026430094ED7C277C488CAE630B4A29BDB694B3CA
:102653004A2B632F8C935ACDAD7894D618E6188500
:1026630062AC5A2A6AECC5B5C55272887B2BD6393F
:10267300A4F5B5B973B0BD97DE79D6583965D65888
:10268300842F52C98C4EB552AD30A4EF738C396789
:10269300312583C98C2A6B8863676327632A39E4EE
:1026A3007BEA6BAA5B474AE25B4363857C887C4990
:1026B3009CEDE6B5D5F1BD0BBCE8C527CD49DDCD15
:1026C300FED5FEF8E698F71AE6B8EF1AE6FBDEDC6D
:1026D30073B273B373B46B93739194B4A514AD5184
:1026E300A4F09CAFE6D9D659D619DE3ADDFADE1B43
:1026F300D5DAD5D9D5D9D5D9CDD8D5F8DE39E67936
:102703006BCC7C4F6B4B734C30E3392351C56AC799
:1027130062C65B056BA85AE8BDD7D69C5AAE630F59
:102723002967630D4A2B528CAD3784538C9473D035
:1027330031C86B8F6BB0ADB99CF74A6D29482945F9
:1027430042467C0B8C8B94EF528A39A89C935AACEB
:102753005AAD5AEDB5F8526DC63CB5D90065106651
:102763004A0D522B6AEC416372867AC8832BDE5A78
:1027730062CD7BD1A4D5DE9CC5D8B5763145DEDBF1
:102783009CF43A078450AD528C6D7C0BA55262CCFD
:1027930039847346A4AB7BE9846B62E562A731415C
:1027A300736863085AE75B4542C25B658469A52E7B
:1027B300A4CDCD91EE73AC88B4C7CDA9D5C8CD8BCC
:1027C300E653F6D9F6FBEEFBEF1BEF3BE6DADEB999
:1027D300EF7EB5987BF463315AEF5AED5AEB8C6D6B
:1027E300AD71A4F0BDB4E6BAD5F9D5F9DDDAD5B942
:1027F300D639D639D639DE9AE6BAE6B9DEB8DE98E6
:102803008CB16BCD4AA673EA526539636AC96B0A08
:1028130062C8314252A7632AB5D7BDFB5ACF524C87
:102823008BCF51E883F1C63BBE3CBDFBBDB8CDF9B0
:1028330073B17BF2632E8C53AD798C54528E29483D
:10284300316662EA8C8E9CD0738D18A3526A526AE9
:1028530094B34A49843162EECE5CB5781065108634
:102863003169526C5A8B396472E87AC88B4CF6DB47
:10287300292594B2AD33D657CE78AD143967D679BE
:10288300A5324AA78C6FB59694B194F2C6188C11F1
:1028930039856B2883E98C8C8CCD846C52A57BEABB
:1028A30094CD52A631C452C753074AC65B658CA860
:1028B300CE4FF6D6FED7EE52C54ACD89D5EEE69376
:1028C300EEF7FF5BEF1CE6FBEF1CEF1BEEFBEF1BD2
:1028D300EEFCE6BDD63CB5586B4F422B4A8C5ACC26
:1028E3009CB2AD52AD31EF19DE58E679D618D61841
:1028F300EEDBD658E6D9D697DEB8DEB8DE98DE989A
:102903008C517C0D5B47740973C94A2562C95268AF
:102913005A8820C25288632CBE1A6B51737283701B
:10292300496582CAAC92D65BCE7DB5B9C5F9C5D827
:102933006B4F94B55AEDA516BDFA94B6528E4A4D17
:1029430020E531657BECAD939471188329257BCF0A
:102953006B4D42289472528BC5D9AD5810851085A2
:102963003189420A5AAC28C272C872679BCEBD74C1
:10297300736BB5B4BDF3AD0EAD528C2F2924B57373
:102983006B6873E9AD91CE58A534BDF7DEBC8C12EC
:102993003125524673896BA98C8D846E94CF9D2FFC
:1029A300844C31E3846E9CF1844F53085305848730
:1029B300AD4ACDB0F696EE73DDCEDDEDDE52DE33FD
:1029C300F739F73BF75DEEFCEEFCE6BBDE59DE5A6A
:1029D300DE3BDE1BD5FAD5FAD65B94753A0C4A4C2E
:1029E3004A6A94B09CEFE6D7EF1AE6B9EEFAB5530C
:1029F30052255A655AA6BDB2C615D678D658DE9961
:102A0300D69A4AA853266BE873C839A3732B5A493D
:102A130028E341A57B8DA514AD788C35731193D034
:102A230041238205B3CDDDF8A4F68C73843284117F
:102A330073AFA576632E9CD59D17C65D5B1052AE12
:102A4300294739A77C0EB5B4C5F739C720E4736DA0
:102A53005269E71C6B4D5AACD67BC61B29481085BF
:102A630039AA4A0A41A939247AC87267BCF162C8F3
:102A7300A530AD909D2C8C697C2A5AC720C183EB6D
:102A83007BE8A54DA56FA5116B8CAD76CE3A3127AA
:102A9300312552488C4E8C6FA55352CA424894B08C
:102AA30029827C0B7C2D9D12A55494F24AE6636423
:102AB300AD4AD610E654EE94D5D1E673FF58E6B787
:102AC300F71AF71BEEDCE67BE67BD619D5D9DDFAE0
:102AD300DDFBDDFBDE1ACDD9CE1ABDBA4A4D426D00
:102AE300426A6B8CA571CE75CE36A4F183EC41C1DD
:102AF3007B445A417B67A4EFD657D67AD67ACE5910
:102B03006B6E6BAD6BC96BC752A328E08BCD730C97
:102B130018828BCEA514CE5B9CD76B52B518C535E6
:102B230040E09224B329F638C5B88C947C128432E1
:102B330073AF84525AEE7BF28474BE1B94D75ACF80
:102B4300420B39C86B4CA533C5F783CF290462CB3D
:102B53004A08BDB7528B6B4EE6FDC5FA318918A6FC
:102B63004A0B522B28E549647A876A264984BDB308
:102B73008CAD8CCB848984898CCC73A920E0734879
:102B8300AD6E8CA9848A94CF7C0F845284333948E8
:102B930020A462CBBD75A534CE5B39A939E831A633
:102BA3006B6A7C0C7C2DB5D5CE5A9D146BAC7C29FD
:102BB300A509BDACCDAFF6D6E677F6FAFF5BFF5CB1
:102BC300EEDAE69BDE3AD61ADE1BDDFAD5DADDFB5A
:102BD300DDFADE1AE659DE79D639E6BD526D31CB20
:102BE300424A4AA9A5319CF09CD0B552C614942AF6
:102BF300C56ACDCDACECD635CE39CE5ACE5BCE9BA5
:102C03008C52632B6BCA6386634649E4A4916AAB17
:102C130031049C51DE9BA5177BD4C5DCCDDA936DC3
:102C2300594192249286DD94C5D8A5579D37C63B5A
:102C33009CF694949CF6630E8C94A5389D184A4D8B
:102C43005AEF39C9632CAD74BDB6A4F43986082094
:102C530049E8DEBB4A0A7BAFE6FDCE5B420B10853B
:102C63003989312728A449437AA759E5ACB1CE362F
:102C73007C2C7C4B7C6A4AC4636752A620E05AA62C
:102C83005AE46BA794EDB5B3C639C65B73B1396922
:102C930020849C92DE9AD67BC61B39893988736E51
:102CA300B5B47C0C94CFC637DEDCBE1A94F28C8CA0
:102CB30094C9A4E8BD6DE696E69AE6BCE6DBE6BAFF
:102CC300DE5ADE3AD61AD5D9DDFADE1BD5B9DE1ABD
:102CD300D61AEEBBE678E698E6D9EF3C94734A4DF4
:102CE3009CB55AAA9CD1D677F73BE6B9C5F4C5B1D2
:102CF300CD8CCDCFD613E6B8D67ACE5BCE7BCE7B4A
:102D030084126B8D6BAA42636B477309B4D241651E
:102D13005A49C5B69CB483F3C63CD65CDE395984A4
:102D230058E092449AA6A3CDD618AD5795178CB602
:102D33007BB28C13B59852AC5B0E7BF2CE5D5ACF4F
:102D43005AF04A6D630D9492C619A4F45A8A186115
:102D530062AAE6BB5AAC9473E6FDD6BD5AEF108661
:102D6300398920C4414651A47AA693EDE6DA9CD171
:102D7300842D9D307C2C846D5307420520A152473E
:102D83005AA563477C0C8430B5B8D6DD8C742927EB
:102D93001863ACF3EEFBEF1EA4F8290641EABDD895
:102DA300DEFA8C8EA530B5B4AD76CE7BA5549CEF00
:102DB300A52C9CC8C60FD656DE9CDE9DD65ACDD810
:102DC300CDF9DE5BDE1ADE3ADE3BDE3BD63AEEBC05
:102DD300EEDCF73DEF3BE719E719D6B9D6BA4A0A55
:102DE300736E9C91CE16E6DAEEDBC596C5D5C5D3D8
:102DF300B50DC570E6D7DE99D67BD69CCE7BD69B28
:102E030094948C928C8F426552866ACAB4D241657F
:102E1300838D9C929473BDBABDFACE19BCD359224B
:102E230060E0AAA689C39B09D5B6C5F99CF78C7542
:102E3300CE7D8C34BD995ACD6B6F7BF1A517633171
:102E43005AF0528E528C73B0C5D9A4D46B0C41A6E0
:102E53002903C5B77B6FA4F5D69CD69D73D220E713
:102E6300290628A449656A466A87C5B5C6187BEE54
:102E7300CE777BEB9CEF6BAB73EC294331253103AE
:102E830062E863289CF1BE19A578CEBDA537292732
:102E930020A3ACF2DE99CE3A41EB398762CCD65A05
:102EA300DEB98C8E8C8D9CF084109CF48CB1A55271
:102EB3009CCCB5AC9CCB9CB1B578C63BD63BD5FA84
:102EC300D5F9BD56ACF5A4B48BF17BB07B907B6F89
:102ED300732E6B2D632C634A6BAB844E73AD528997
:102EE3009C907BABA4F0BD94C5B6E6BAB5948C4D6B
:102EF30083C9946C9CCFC616E6FCDEDDDEDCE6FC03
:102F030094949D147C2E21422922836D8B8D72EA29
:102F13008BEDA4D3D67BCE5BC65BD659938D59225A
:102F230060C099C3EC2D9A46BC4FE6399CF5A55871
:102F3300BE1B8C749CB45AAC630D73B0C61B8C352A
:102F43006B52528E526D6B4FC5FA94736B0C734C6C
:102F530020C28C1062CCB577DEBDDEDF9CD718E7CC
:102F630020A530E4412462066AA8ACF3B5D88C915D
:102F7300A53194CEA52F740C3A454A6849E828C375
:102F8300526794AFAD95BDF9BE1BD6DEBDFA5AAC00
:102F930039A69C6FE6D97B8E31684A489CB2DEDB4A
:102FA300D67894AF94CE9CF08C918C92844FAD7371
:102FB3009CCDA50BAD4EA533A516A537D61BCDD9F4
:102FC300CDD9D619D63AD639AD157BF05ACC526B3A
:102FD3004A4B39E9298731C6298429A44AC88C6E0A
:102FE3008C8D7BC97BEA842D8C4F52C9636B94EF24
:102FF30094CD9D2E7C2BA572DEFAE6FCE6FCEF1D3C
:1030030094F5A5776B4F312539249C2F6A887B4B28
:103013009470CE9AD65CD63CD61AD61759C458E0CB
:1030230078C0A9C4B1C3AA04A2C8E5F7D67BCE7DF4
:10303300A5597BD2A55794D4632F73B1BDFA845499
:103043006B505ACF5ACF5AEEBD987B4F7B8F8C3142
:10305300290549E841A7BDB8D6BDD6DEA55820E766
:1030630028A530C449856A466227A4D4C61A8CD2DF
:103073008CB19CF3C6389D33638A6B8C734E20A44A
:103083004A29AD55AD76D6BCDEDED6BD9D137C0C8C
:103093005AE78C4DBDB46B0A526883CEC618DEDC8A
:1030A300BDD78C9094CF8CAF846F8CB0844E94B08A
:1030B300842C9D0CA52EB595AD36A556B598BDD9D6
:1030C300CE5ADE9AD679E6FADEBADE999CF439C98D
:1030D300296739E9424931E629A463AB740C7BECD7
:1030E3007BEB5B084A66632A42473A073A07426822
:1030F3005B09846E8C6E94D0CE57E71BDEBCEF1E4B
:1031030094F6B5DA20E620636248A44F49A4838D80
:10311300AD14CE9BCE3BDE3DDE1AB4924901610075
:1031230078C0B1E4B1C3A9E39A25ABCDDE7AC63B3F
:10313300AD996B91B5D9BDFA63106330C63B9CD68C
:103143007BD363119CD76B2FBDB8628BA4D49453EC
:1031530062CD106341C8BDB9D6DDD6DEBDDA2927FD
:10316300206428A4498659C559E6ACF5C61A8CD300
:103173009D349D15B5D8ADB684AF6BADAD36102378
:1031830028E57BD09CF4DEDDC63CADB7848F740AA2
:103193006367CE558C6E83EC83ECC5F6E6FCD69C58
:1031A300BDD98C9384507C1084318C9194AF9D1144
:1031B3008C6DAD6FAD71B595AD36AD76AD779D16B2
:1031C300AD56CE59E6FBEF1BE6DAB576D6BBCE7B22
:1031D3007BF1296731C7298542884AC831E439E53B
:1031E30052A8A512D6B9D6BAD69ABDF894B34A8ACC
:1031F3003A4842286B6C8C4FB595DEDBDEBBDEBCF8
:10320300BDFBB59920C528A37AEA836B3902A49143
:10321300CE3AC67CC65CCE1BDDF8722761216900FD
:1032230068E0A1E4B1E3A9E3A22492A8CD95C6196D
:10323300A599741384338C744A4D52AEC63B94B52E
:10324300B57963115AF07BF3BD98734EBD969CB468
:10325300947318643147BD98DEFED6DDCE7C39A960
:103263003968208341665A065A2783B1B5B99D351B
:10327300BDF873B0D6BCC6598CD2B5D7B59849E959
:1032830039A7738EBDB7CE5CB5F994F25B493A6347
:103293003A22844C5B286B488C4BCE54BDD4A53268
:1032A3009CF384717C0F7C317C3294D2AD72B5B5C2
:1032B300AD73C635BDB5B576AD36AD76AD779CD4B9
:1032C300AD56B576B596B596C5F8D6BCCE7BCE5B76
:1032D300D6BD8453214631C839E731C63A275ACB84
:1032E300DEBBDEDBDEBBE71DDEDCDEFDE71E632EC1
:1032F3004AAB3A093A0883F0AD35D69BDEDCDEBC37
:10330300D69E9CB628E530E272C841425207B515F5
:10331300E6FEC63DCEBDCE39B4B2590268E068E0E0
:103323006920A225A9E4B1E3A1E39A45A38BD6388A
:10333300C65A8CD57BF2A5375AEF52AEBDFA949597
:10334300CE5C6B316B5294759453736EDEBA8C32D0
:10335300B5B818A520C6AD36D6BCD6FDD6BC5AAC7A
:10336300F73E41A741A75A06416483D2BDDBCE9CF9
:1033730073D0A517C61BBDF9CE7ACE7BC61A734E82
:10338300312441A6A4F4BDDAAD9773ED53283A6313
:103393003A6494EE6BA95B267C0894AAA50DA54F0D
:1033A3009D0F951194F28CB27C119492A533AD7557
:1033B300B596B576AD56AD57AD57AD769CD39CF467
:1033C300B5B7AD56AD779CD594D5AD79C61BD69C14
:1033D300D67CD69D528C39E93A094A8B73AFE71DE7
:1033E300DEBCEF3ED69CDEDDDEDDDEBDDEDDCE5BAC
:1033F3005AEF422B528C5AAD9CB4CE5AE6FDDEDD19
:10340300DEBF733028E4394349A430E16AEBC5D900
:10341300DEBDCE7ECE7CC5D67AA8716270C060A0B8
:103423008A85A205B1C4B9E3B1C3A1C2A287C4D13D
:10343300CE188C937BD1B5996B505ACEA51694B503
:10344300D67D7BB36B527BD262CD9472D69A8C734A
:10345300CE5C41CA18857BD1D6BCD6DCD6BC4A4AE1
:1034630041C828E539665A2749A562AD7BD38CB597
:103473006B90BDDB9CD7CE7BD6DBD6BC8C535AABD3
:1034830028E352279C92C63AA5556BCC52E83A449E
:103493007C4C94EF52E6B611AD8F7BE88C8C9D0F7C
:1034A300844D8C909D1484537BF39CB5AD16B598D5
:1034B300AD37A4F7A4F7AD78AD77A5159CD3AD765A
:1034C300B597A5169CD68C7594B7C61DCE9E9CF752
:1034D300CE5CC63C73914A4C5AEE7390DEFDDEDD42
:1034E300E6FEDEBDDEBDDEDDDEDDDEDDDEDDDEBD38
:1034F300BDFC528E6310526D7371C5FADEDDD6BD0D
:10350300CE5E41CA312549A5626762699C93D67C28
:10351300D69DDEDFDE9BA44F596268E070C0710068
:10352300B3AAA204B1E4B1C4B1A3B1C3A20492A8E3
:10353300C513A4F47BD0CE5B5AEE94948C7394B4ED
:10354300CE7C8C75737184135ACCB597CE5B843360
:10355300D6DE39CA20C6524BC5F9CE7ADEDC6B0DF6
:1035630049E920A341A7626849644189631052EE87
:10357300CE7C8C35B5BABDF9B5B694D34A6A5ACB6D
:10358300208149A58BEFBDF8C65994B229A529A47A
:1035930052E83A255B286BCA42865AE75AE773CA50
:1035A3005B08FFFE8C917C1094B3A515AD16A51591
:1035B300A516A4F8A4F7A5369D149CD4A515B59714
:1035C300A53794D68C758C769D19AD7ACE7E9D17D2
:1035D300A538D6BE6B5173B273B2DEFFDEDEDEDD1D
:1035E300DEFEDEFEDEDDDEFDDEDDDEDDDEDDDEDD9E
:1035F300D6BF7BD35AF05AAF4A4D8C34DF1FD6DD8A
:10360300CE5E20C628E45227730B838FDE9CCE9CAC
:10361300DF1ECE3ADE586A056141690068E0710039
:10362300DC4CAA45A9E4A9C4B1C4B1C3AA049A460F
:10363300934BCDB69493CE5B6B4F8C73738F738F19
:10364300E71E73B2528D8C32A4D5CE5BC61B94F6A3
:10365300C63C528D20E5396783F19493D67A838FE4
:1036630051E928A4520A626759E649A962F0426DFA
:1036730052EE94D7BE1CAD98A5127C0E4A8A4A49D5
:10368300288251A59C2FDEFADEDC9CD531A831E7D8
:10369300634B4A883A263A264AA94267426653064A
:1036A30052E6740B94EFAD92AD91AD52AD53A5328A
:1036B3009CF3A537A5379D1594D39CD5AD78A53735
:1036C30094D68C7684569D199CF8AD7ABDFB94D71D
:1036D30094D794F86B927BF4D6BED6BECE7DBE3B18
:1036E300D6BDD6BDD6DED6BDDEDEDEDEDEDEDEDE7A
:1036F300D6BEC65D6B515AAF5AD06310CE9DCEBDB8
:10370300A51818A528E449E762ABC598D69DD6FE4F
:10371300CE9CD6596A4771C36941612060E071212B
:10372300B2A6A224A205A226A9E5B204A9E39A445B
:103733008AC8838C9CD4C6196B6FB5B87BD07BD0F9
:10374300CE5A31895ACD9CD4D69BD69DCE5D6B92F1
:10375300BE1C94B520E53106734EAD35E6FC7B4EB9
:103763005A2A41A849E97AC959C539274A0D31CAA4
:103773008C95AD7AAD9AAD979CF05B2A4AA9738E6E
:1037830030E362068BED842F9CF594552948422A39
:103793004A49424852CA73F06B8F5B0E426A52E940
:1037A300740C6B8A7BECA50FB570AD2FAD70A56E55
:1037B3009D109CF39D1594D394B39CF7A53894D78F
:1037C3008C767C368C979D1994D7A559AD79AD9A93
:1037D3007C557C1573F4ADBAD6BECE9DD6DECEBE77
:1037E300CEBEDF3FD6BED6BED6DED6DED6DED6DE34
:1037F300D6DDCE9DBDDB6B52528F6310BDFBBE1B6E
:1038030031690822290439659432CE5CCE7DD6DD38
:10381300CE7A6A8959A461A451006142612082036E
:1038230081C279E37224FFBBBCEE79E292E7A40D77
:10383300ACD3B576A515B5776B6FC63AA55752CD00
:10384300AD5741C8732C9CB2D6BDCE9DBE3C8434CB
:10385300BDDABDB920C620C5628BBD55D6386B0D08
:10386300522A41465A077AC86207310531697BF308
:10387300847694D8AD7A94B59D115B4A5B4C736E94
:1038830030C26A47834A83ED94B373B320E6396742
:1038930041E9528C8CB0846E7C116BB173B17C1294
:1038A3007C3173CE7C2F7C2D844D9CF19CF2A553EF
:1038B300A5759CF494B494B494B59CF794B794D838
:1038C30073D47C368C978C9694F79D379D379D19CE
:1038D3008CB76B939D198C9794F8A539AD9BB5FB69
:1038E300C67DCEBED6FFD6BED6DED6BEDEDED6BE05
:1038F300D6FFC65DBDFB94B752CF5AF09D19AD7A82
:1039030010441883418541C68C32AD59B5DCBE3CA9
:103913007BF1838D93CE7AC96A06598369C3930772
:103923009B489B68B48ECD92EE33FE73D5B2CDF730
:10393300DEBCCE5BA5369CD4630DC63AC65B52CDC6
:103943007BB041876ACA9451D69CC67EC65D8454B7
:10395300BDFAA517314939686AEC9C71CE186AED36
:103963001884288261E57AA85A0728E431688455C7
:103973008CB894F98C768C748CB0636B638D6B4DBF
:10398300390462078B6C736B8C725B0F20E641A763
:1039930041A77BD0B5D59D5294B37BF28C957C1314
:1039A30094B494D194F09D3294D294B394D49CF56E
:1039B30094D494B48C9494D594B594F694D78CB849
:1039C30084578C778C9794D8AD9A9D589D58A57A37
:1039D3006B9294F894D894D894F994B88C978C9665
:1039E3008CB79D18C67DCEBED6FFD6DED6BECE9D85
:1039F300C65DAD7AA57AB5DB94D85B117C35AD7A1B
:103A0300208439255A27522883B17BF494B89D39F1
:103A1300B5DAC63AD69B83CF418530C14963DDB25F
:103A2300E5D193499BEDFFDCA44CD590BD10C5F7C0
:103A3300D6BDD69D9D178C53632EC63BCE7C630E9D
:103A43007B8F49C77B2B9C92D69CCE7EBDFC73D2C9
:103A53009CD773B34A4D310628E439869493526B4D
:103A630018A428827AA77A875A0630E431285AF0B4
:103A73004A908C9794D7949584708CB19CF4528B14
:103A830028A338E36289738D94B35AEE28E64186FE
:103A930052679471A5349D129D1595157C139494CA
:103AA3009CD2A52FA54EAD929CF59CF7A5159CF530
:103AB3009D1494D38C9394B494B594D694D784776B
:103AC3008C988C988C9894D8BE1CA5598CB7845626
:103AD30094D894F89D398CB794D894F994F89D3977
:103AE30094D87C3594F8BE1CC69EC65DB5FCA59AD9
:103AF300A59AA59AA59AA55AA55A7C157C159D3A0F
:103B0300208341456A896ACA7B916B736B9573D530
:103B130084768CB794F77370312528A251A4E634C8
:103B2300E6138B49B4F16AC8A44DD571C552BDB72C
:103B3300CE9DDEFFAD9A424C73B1D69DCE9C5AED1D
:103B430083D0418572C9B4F3D67CCE7EA55A6B92DD
:103B53006B727C14633120A4208328E44A2A2968E9
:103B63001884286182C87246624730E431488C76F3
:103B730063536373843694B6A5348CB273AF3187C1
:103B8300208330C4206362CC8C737391290851E77E
:103B93006AC7A4D19CF494B4A5579D158C93A51220
:103BA300BDD1A50AA54BADB19CF59CF69D129D1206
:103BB3009CF194B08CB194D394B594D694D78C974C
:103BC30084568C7784368456A55AA57A94D88C97D4
:103BD3009D198CB794D88C9784778C9794D88C97AD
:103BE30094D89CF98C9784769D39A57A9D5AA57AA9
:103BF3009D5AA57AA59B9D5A9D3A94F98CD89519FF
:103C030030A349656AA9730C73306B746B756B953C
:103C13006B9463946BB45AAF312728A251C4DDF37C
:103C2300F6958B6A8B8C7B4B9C2CDDD2B4D0B596EE
:103C3300D6DED6BEBE3C29698C54D69DC63B4A6BA4
:103C43009C7239247B2BC5B6DE9DBDFC84576B72F9
:103C53006351845673D3310530E520A418C518A5E4
:103C6300104230C282A77A66726828C341CA949709
:103C73006B949D1984769CF794D48CB38451420938
:103C830041A928C5310720C66B4F841441AB5A287C
:103C93007328A4D1A4F594D58C969D169D12A52EB8
:103CA3009CC89CC794A8AD909CF29D119D2E8CAC92
:103CB300846B94EE94D094F294D594B68CB78C978D
:103CC30084567C367C16845784779D3A94F894D82E
:103CD300A5599D3994D894D8AD7B9D3A94F99D1AF2
:103CE300843684568CB88CB88CB8A59B9D3AA59B1A
:103CF300A57AADBBA57B9D3A9D3A9D3A9D3A9D3AE7
:103D030030A4414572CA5A4973716B746B766B75F3
:103D13006B74637573B44A2D392728A259E5DDD234
:103D2300F67493697B097B6B9BEBD590ACAFB57550
:103D3300CE7CCE9DCE9E2969AD79D69DBDFA528C9F
:103D4300C5D8310372EAB534B55894B773F5422E2A
:103D53006B5294D88C76398720A4312718850802B2
:103D630020C3390382C861A37AC941657B70843556
:103D730094F98C989CF994B794D59CF59493422923
:103D83007BB139AA41CA210710A52949394951C62E
:103D9300838BACD29CB38C7384549CF5AD72A54CCD
:103DA3009D0784256B659CED844C94CC8C8884673B
:103DB3006BE57C288CAD94D18CB494B68CB78CB75E
:103DC30084568C778C9784568CB79D1994D89D19FB
:103DD3009D189D39A55A8C77A53AB5BCAD7B9D3A04
:103DE30094D87C367C158C978497847794F9B61D88
:103DF300B61DA59B9D3A9D5A9D3A9D3AA55B9D3A5A
:103E03002063498672EB49E86B516B756B766B7572
:103E13006B746B5473734A0C394739035183CD5018
:103E2300DDB18B0772877B299389D54FB4AEBD75FE
:103E3300D69CD67DC61B4A4CCE5CC65B94D65AED47
:103E4300B57730E47B4BA4B29CB58C767C1552AF2E
:103E5300A559AD7A8C95632D20C4208420A528C450
:103E6300418651C56A474921728772EA9C739CD681
:103E730094F98CB894B794B794D78C746B6E41E96A
:103E83007BD16B712108294839CA41EB3927622755
:103E930093CCACF2A512A5749D159CF3A55294CCBA
:103EA3006BC66BA552E3A52D73C77C0873E573C47A
:103EB30053214AC15B257C2C94F494D58CB78C9701
:103EC30084769D39ADBB94D79D189D399D199D1955
:103ED3009D3994F89D1994D8847794D88C978C77CE
:103EE30084568C97847773F47BF48C9794B78C9671
:103EF30094F8A55AA57AA55A9D3A9D5A9D199D3ABB
:103F0300182249877B2C522A73926B7563756B74E5
:103F1300739373B473724A0B5A6A5A0759E4DDF206
:103F2300D5B0D550D592DE14C50EC4ACAC6CB53348
:103F3300C619CE3B6B506B4FD69CD69D7BF3632F3C
:103F43008C3220A372EAA4B2A4F68CB773D56B9219
:103F5300BDDB94B68C755AED18A5208528843925C8
:103F63004185EF3AD5B572466A0472C9A4B4A5383F
:103F73009D1994D894B78455843594947BB04A4A58
:103F830052AC8C7552AE18C631892106396562264A
:103F9300A44FB4F1A52F950F8CB2A5129CD18C8F91
:103FA30042855B467408C6718C497BC75AE352C18C
:103FB3006BC46BA45B4463697C508CB494D78CB79B
:103FC3008C9694F894F894D79D18A559A559A57A79
:103FD300BE3D9D399D19A55A8C9773F57C159D3A65
:103FE300A57AAD7B9D198C76FFFF73D373927BD338
:103FF30084768CB79D39AD9BAD9BA57BAD9BAD9B6B
:104003002883626AA4D3630D73B26B956355739669
:104013006B748C757B905229834B6A66938AAC2CA4
:10402300AC6DC510AC4DAC6EAC6DBCCECD509C0C24
:1040330093EDACD19C91A4F3C5F9B5995ACE739184
:104043006B2E20A372EB9C7394D77C1573925ACF7B
:10405300AD7A9CF794956B2D524B31273968310516
:1040630028C36247728772466A656286A4D49CF845
:1040730094B594D47BF1634D636F73D16B6F62ED31
:104083006B2F9CF5A517296918E739A941676A6958
:10409300A42BA4AF946C9CEFA56FAD6EA50C8C6C98
:1040A30052A75B067C28BE3163457C0873A83A405F
:1040B3006BC563657C0A638B7C0F8CB38CB694D71A
:1040C30094F794D794F89D18ADBBADDB9D1894F885
:1040D300B5FD8CB89D1AA55B94F96B9484368C97C7
:1040E30094F99D189D39D6FDF7DFBE1BDF1D8C9615
:1040F30094D86B72843694F9B5DCB5FCB5DCB5DCC9
:1041030038C449A7524A6B4F6B936B546B956354F6
:1041130073B362EE5AAB838D9C2D9BCBC530BCEF42
:10412300C4F0BCAFC4EFCD30D5B2BCEFCD91BCCFA2
:10413300E634CD9293EDB513BDB78C3239A9841211
:104143004A2920A372EB8C1184758C967BB24A2C7E
:1041530094F89CF894946AED6AED39881884208366
:104163004986496472466A047AE773289C92A4F7E5
:10417300BE197C31634D5AEB6B8F6B7052AD736F0D
:104183003987A4F5A516630F210741C941477289F1
:104193008B89ACF07369840D94EC8427A52AB5D080
:1041A3008C4D4A836BA6BE1152E35B246B873A00A6
:1041B3004AA24AA46BAB8C7194B39CF5A5389CF8C6
:1041C3009CF89D19A55AAD9BBE1DAD9B8CB79D59FF
:1041D3009D19A55A9D5A9D19B5DC7BF48C768CB834
:1041E3008C9873D494F8AD9AA579AD9AB5DBA55A9A
:1041F3009D189CF8843573B38456ADDBB5FCB5FCD0
:10420300390449A749E95ACF6B736B756B748414EE
:1042130084126B2C62AAACB09C0CC530D591BCEF58
:10422300BCEFB48DBCCEBCCEB48DAC6DA42C9BCAFC
:104233009C0BAC8DAC8EA46E9C4FA4D2736D945228
:1042430029043105732B8C11843494B68C3431AA30
:104253009D18A5389CB462AC39874A0A49EA5209C9
:10426300416562057A6669C3830672E69C51A53788
:1042730084328472632E632D632F73B1420A8C32AE
:1042830041E89CD3A4F5630F20E641C8416772A9B6
:1042930093CAACD063096B8C73EA4A8274077C0AB5
:1042A3007C0C5AE59D0CD6D49D0D846A8C8C4A8374
:1042B30052C5636A6B8D94B59CF6A5189CF89D193D
:1042C300A539AD7BAD7BAD7BA55B9D399D19A55A0A
:1042D3009D399D3AA57BA55AA55AA55A7BF48457C7
:1042E3009CFA8C98AD7BBDFCAD9BAD7B9CF994B7E0
:1042F3006B527C15AD7AB5BBA5399D399CF8AD9A47
:1043030049C7418741EB6B326B746B946B52630DFE
:1043130062CB5A47DE3693CB93CAA42BA42BAC4C67
:10432300BCCFBCEFDDF2D591DDD2DDF2DE13EE744E
:10433300DDF2E633D5B2EE95E655CDB3CDF5A4B1B6
:1043430020A239667B2B8C308CD594F79CD6420CFB
:10435300A57A9D1894736B0D41C9188429063105FC
:1043630059E77A878AE769A27A8572A59C519CD618
:1043730073B184737BF28C747BD38C75420A83D0C4
:1043830062CA9CB2A4F541EA18A439A749A7728965
:1043930083698BED736C6B6D636B32236BC86389BD
:1043A300846F8CAE8CACD6D6AD90ADAF9CED7C0A51
:1043B3005AE77BED73AE7C1084329CD594B49D1682
:1043C3009D1694F694D694D68CB58C9494B6843674
:1043D3007BF58C98A51A94B88C979D1894D784551F
:1043E3008C7684558434843484757BF38C756B515B
:1043F30073946B736B7273D384358C9694B78C966A
:1044030049E7524A5AAF73B56B756B7373706AEBB6
:104413006AE9CD92C551DE13EE94E613F694EE7479
:10442300FED6E613DDF2EE74DE13DDF2FEF6F6954C
:10443300E633DDF3E613EE33D5F2CDB1C592CDD439
:10444300392341657B4B949294D69D3894754A4D9C
:10445300AD9AA5587B90524A3147526C5A8D5A6B8C
:1044630049A66A0592E769C372446A65838EA4F715
:104473007C339D379CF8739294B6843362ED41C7C5
:1044830052289C92A4F439A918843987416772A9E8
:104493004963942E738F6B8E6BAD4AC8320473EEEF
:1044A30094D37C0D7C0CBDF5AD72AD70A50F8C8DD6
:1044B3009CEF844D6B6A634A73CC740D740D846FE7
:1044C3007C2E7C2F73CE6BCD6BCD6BED6BAE5B0F08
:1044D3005AEE5B0E73D17C128C9494B49D158CB2FE
:1044E30094D394D394D38CB394D38C938C938C73B1
:1044F3008C948C9494B48C728C7284517C117C1146
:104503002903522A526E6B546B7463106ACC6AC9C6
:104513005A04F6F7EEB6E654CD91DDF3EE54DDF230
:10452300FED6E633E633EE74E633EE95EE74E63408
:10453300E633DDD2E5F2EE53F694D5D2EE95B5101F
:10454300CD93498472EAA4F4A5799518A4F75AAED9
:10455300AD9AA558736E730D20C59CD5106418636E
:10456300184161E5930869C38B496265732DAD38C2
:104573008CB59D166B929CF784524A6A62EC316645
:1045830052498C30A5354A4B10632906390551C66B
:10459300392283AC6B2E5AEC636C42684AC873EEC3
:1045A30094D48C708C8FCE78BDB5AD52BDD3B5B3DA
:1045B3009CCF94CE94ED94EC94ED848B7C4B7C0B4C
:1045C30073EB740B7C2C742C7C2C7C4C7C2C7C4EE1
:1045D3008C8F8CB08CD08C8F94D094D09D309D30A8
:1045E3009D31FFFD94D09511951294F18CD194D106
:1045F30095119D319D109D2F950F9D2F9D0F8CAE75
:1046030062AA62AC6B1173B56B735A8C72EB83093C
:10461300A3ECE655EEB6EE75EE95E634E633DDD162
:10462300E613DDF2E634F6B5DE13E613EE54E613D5
:10463300FED6E5F3E5F2EE54F6B5E613DDF3F6D771
:10464300BD10AC6E93EE94937C5594D88C354A4D43
:10465300B5BBA557736E730D41C910841065104423
:10466300186251849B8A6A05832841A18C2F8C94FC
:104673008CD374107C1284327C2F5B0B8C7141E8D9
:1046830039A67BCE7BCF630D18E52907394749A6A9
:1046930039437B6A83F0632B52C952A96BAC8C916B
:1046A3009CF4CE77B5B4E6FBD699CE37DEB8B573B6
:1046B300AD72A54F9D4D8CCB8CCC94CD8C8D844D00
:1046C300846E8C8E8CAF8CAF8CAF8CAE848E94EE5C
:1046D3008CAE9D0F9D309D309D309D2FA54FA54FD6
:1046E3009D2F9D309D1095119D1194F18CD08CCFF1
:1046F3008C8E8C8E8CAD94CD94CD8CAC8CAD94ADD6
:1047030049C741C973527BB45AD062AC7B2A8B2907
:10471300FED7D5D3E676EE96E634E634E613D5B186
:10472300E612E633DDF3CD71C50FC530B48DBCAEF3
:10473300D5B2DDB2DDF2E634F6B6E613D5D2E655F0
:10474300E675C570A47073906BD46B9462D04A0CF9
:104753007C1494D5734D730D5A6B39A9210710A599
:10476300104238E26A2559A362445222840D7C1018
:104773007C70742F73EF7C0F636A4AA7845062EBDB
:1047830052696B4C738E8C72214620C651EA5A08CB
:1047930030E26B2983D05AEA4A464A88844E9CF217
:1047A300AD75BDF4E759EF7CFFDEEF5CDEBAC5D62D
:1047B300AD33AD71A54E94EC8CAD8C8F94D094B188
:1047C3008C9194B194B194F294F294F294F194D0C4
:1047D30094F09CF194D19CF29CF19CF194D19D0FA7
:1047E3009D0FA5308CAF8C907C2E6BAC6BCD6B8DFD
:1047F300632D5AEB5AEA632A632A5B095AC952A901
:104803004A0939A973B27BD2522A834C7AC972A757
:10481300FF18DE14DE34F6D6D5D2EE74E634DE139A
:10482300CD91DDF3CD70C4CEB40C69C350E061818A
:1048330072029347D50FDD70F654DDF2EE54F6B5F0
:10484300F6D7DE34C5739C9373B073D26332296B8E
:10485300841584136B2D732E524B290610851085F6
:10486300188330A17A667A24726472E68C8E7C3067
:104873008CB37C318CB2636B5B6753477C4E7BF0AC
:104883002125844F7C2E845031A820E639686AABF9
:104893003103734B83CD842D8C4F9CF1AD93C6367E
:1048A300E6FAEF3BF77DFFDFFFDFFFFFFFDFA4D378
:1048B300FFFFFFDDF7BBE739DF19C656B5D5A553B3
:1048C3009D1394F294F294D194D094F094CF848E67
:1048D3008CAF8C8F94D09D1194D08C8F844E73EABF
:1048E30073EB636B52AA4A8C5AEF73B17C137C133C
:1048F3007BF36B716B7173B273B27C1384547BF370
:1049030041A762CD7BD26B2F732D7AEA8B4AAC8E93
:10491300DE14DE14EE95E633FEF6EE53DDD2CD3033
:10492300CD71C4EFA3CA69E371E369817A0392E6A7
:10493300DD2EBC4A93068AE682C5B46CDDD2E6134B
:10494300EE75D5B2D5D4CDF6A53494D47BF339AB7B
:10495300947683F26B2D6AEC41A828E51044108508
:10496300188362069B2871C293277B488C4E7C3048
:10497300845373B18431638C53275B897C2E8432D7
:1049830010A48C708C8F84504209C5FA522B5209A3
:1049930049E7734A83EC840D842E8CCFA551AD7205
:1049A300C5F6D678E6FBFFBEFFDFF79DDEB9DEB9BD
:1049B300AD94A5128CB07C0D7C2C846D846E8C9090
:1049C3008CB08CB08C908C8F94CF9D30A550A54F1C
:1049D3009D4F9D2FA52F9D2F94ADA530AD71848D37
:1049E30073CB8C909CD49CF7AD7AA55994D78CB695
:1049F30094B794D79D199D18B5BB9D1894B79D186E
:104A0300C59662ABC5F8FFBFFF5CA46F8329FF594E
:104A1300ACAEF6D6E634F694D56FDD6FC4ACBC4CC1
:104A23008AE68AE68B069B4871C261607A03B3EA21
:104A3300E5B0CCEDB3EAE570EDF28AE672446A23A1
:104A4300B42CE5D2F6B7BD31DE57AD5594B4422B45
:104A53009CD5736E5AAA5A49396620A40802106479
:104A630028C462068AA67A2383077B697C0D73CFE9
:104A730073F27C127C11634C52E96BAC6BAE841302
:104A830010857C0F7C2E7C1052AD39A94A0A5A4AF4
:104A930041A56B098C0D8C8F8C908CAF9D30A5310B
:104AA300BE15DED9E6FAEF5BF77CE73BDEDAC63705
:104AB300A553A5529D11848E7C4D7C4C7C2C846D1A
:104AC300846D846E848E848E846D846C8C8C94CB84
:104AD3009D2DA54EA52EA52EA54FAD4FAD50AD9244
:104AE3009D11A534A536B599B5BBB5DBB5DAADBA1D
:104AF300B5DAB5FBB5DBB5DBB5DBBE1CBE3CC63CEE
:104B0300940F41A57B8DE6B9DE779C0D940CF6F7E7
:104B1300E654FED6E5F2D54FCD0DA3A78AC48AA4E9
:104B230092E5B4098AA4AB88C46CD4CEBC2C9B2771
:104B3300722382C5EDF1D50EB40AEDF2B40B69C24E
:104B43007A4448C04900AC4DB4D0E699947341E926
:104B5300A5166B0D62AA7B4C5208208320A5104337
:104B6300416672478A6572236A649C8D844F84719F
:104B730094D584137C1274105B4C84708431843418
:104B830010847BEF846F8C7231A9212729275A491E
:104B93005A477B6A8C2D8C8F8CB084AF8CF09D52DE
:104BA300C656C637CE57E6FAE6DABDD7CE79B5B5DF
:104BB300AD538C6F842D73AB6BAB73CC7C2A7C2988
:104BC3007C2A742B740B742B7C2B7C2B844B8C8B4B
:104BD3008CAC94CD8C8D8C4C7BEB7BEB73AB844E8C
:104BE3007BEE738E9CD4C61BC63CC65CC67CC67C5F
:104BF300C69DC69DC69DCEBDCE7CC67CC65BC65C2F
:104C0300836C41433922BD31E6769C2CDE14CD9171
:104C1300EE74DD91A3A99B679325ABE7ABC7C429CA
:104C2300A346CC8BF5F1FE53C48C9B277A648AC6CA
:104C33009B68E5B1A3A9CCCEDD2F7203ABAAE571C6
:104C430082656141616151214921832B4A0852AC3C
:104C5300949441C74186626949C728C4208420A42B
:104C630030E46A05824472436AA5A4EF8C907C30D9
:104C730084728C938C738CB384708CB18C928412F9
:104C830010A48C708C8F7C0F1906212729065A29B2
:104C93005A267308946D844D7C4F740E8CB09D32EC
:104CA3009D129D13B5B5D699DEDAA5139CF1A51116
:104CB300946E83EB734862E76B288C2C63275B4706
:104CC3005B48638A5309530A5309634A634A5B4A3D
:104CD3005B4A6BAC6BAD84509D14AD96AD96B595A8
:104CE300B596CE39D69CCE7CCE7CCE5CC63BBE3B45
:104CF300C65BC67CCE7CCE9CCE7BCE7BCE7BCE7B76
:104D030051A6286038C07286DDD3C551F6B6A44CCF
:104D13009B898AA57A43BC29BC29A3858AE3B3E886
:104D2300ED8FF5F0F5F1C48C934782C582C69328C5
:104D3300DD9169E2594069A261416981592069C2E3
:104D4300EDD392E7826561625922BCD16AAB3187A8
:104D53008C524186622830E37B6D416620C518433F
:104D630041246A059285724383A98C4D848F7C6F9D
:104D730084908C7184508450846F7C4E842F630D97
:104D830021258C6F846E73CE18E6294820A46AA966
:104D930072A7730683EA7C0C740E740E7C2F7C4F0F
:104DA3008C9194F29CF2B595E6FBAD5294AD946B65
:104DB300946A94088BC693C693E78BC87BCC842EE6
:104DC30094B294D49D3694F59CF68C7394D48CD37E
:104DD3008CD494F59D17AD99ADB9A578AD98B597D9
:104DE300B597BDD8BDF9BDF9BDF9CE3BD67BC61A83
:104DF300C61ACE3AC63ACE3AC639C618CE59D67A6C
:104E0300410440C251227224A3EBAC6D6A65BCAE6F
:104E13008AE6A347A3468AC3A385D52CFEB2F63000
:104E2300FE93EDF19B6793478B277AA5C4EED5706C
:104E3300720369A26141614171C361216982592091
:104E43008AE7E5F3F613ABAA5942BC90628931862F
:104E53008430418662283924628A4187314710436E
:104E6300416569E49AC582C5946D842D84B07C6FD5
:104E73007C6E846E846F844F7C4E73EC7C0E4A4947
:104E83002945842D6B8B6B8E18E7294820A46A680B
:104E93008B2893A883C973CB6BCD73ED73ED6BED47
:104EA3007C2E7C2E848FA532DED994F0848C7BE813
:104EB3008C0783A59C06A448A4289C09946E94B1EE
:104EC30094917C317C127C128C749CF69D36ADD807
:104ED300B619BE3BBE1BBE1BB5B9B5B9BDFAC61AE2
:104EE300BDFABDF9BDF9BDF9C5F9C5F9CDF9CDF9DE
:104EF300CDF9D63ADE5ADE7BDEBBDE9ADE99D67971
:104F030038C43881510171C3618251624101C4AF18
:104F1300B40B81E1AB46EDAEEDCEE5EFFEB2FEB2F2
:104F2300C4EC930593266A027AE6DDD2FED6D571E8
:104F3300FEB69B2869628A4579A3612161415100CC
:104F43007265F695C4AD616171E3ABEC52053A0647
:104F530073AD5A48620730E4522949E920C520A4B9
:104F630049A67245AB46A42A83EB73EC742E744DA9
:104F7300742C7C4C740C7C2D7C2D6BAB73CD31A6C7
:104F830039C77C0D6B6C632E20E73168310559C539
:104F93007AA59BC8732673AA6BAC6BAB6B8B6BCC7C
:104FA3006BCB7C4D7C2D7C0CC676848F7C2D63482B
:104FB3006B267B468B879BA89B899BAA8C2B73EACA
:104FC30063487C2D846F84908CB184708450AD963B
:104FD300A555B598A537BDD9C63AD69BCE7AC63B5B
:104FE300CE5CC65BC63AC63AC5F9CDF9CDF9CDD983
:104FF300D5D9D5D9CDB8CDD7D638DE79DE78DE99F7
:105003005A4A30A169A369C37A65724550C0A3891E
:10501300CD0CF60FEDEFF630EE30F672E611AC2A5A
:10502300722361C3598351218AE75941D5718B6A30
:10503300286038C248E148E082A5F63292E748C1C9
:10504300FFBDE695E61071C171C3A3AD498639A6CC
:105053006ACA626849653106418741C831683105CA
:1050630049428AA592E48BC87C4B742B742B63C88A
:105073007429954D7C6A6BEA740C6BCA6B8B39A7E8
:10508300422873CC6B6C39C8292720C6396851650F
:1050930093079B4762847C0C638B6BCC740D73ED1D
:1050A30063AC6BCC8CD08C8FBE14740C740D8C8F52
:1050B3007C4D6BAA6B6A6B4A63096B4A6B8B5B080B
:1050C3005B49740B63AA73EB6B8A5B296B8B848FCD
:1050D3007C4E740D8C9094D28C729CF4B5B8C63B04
:1050E300CE7CCE5CC65CCE7CC65CC63BC63BBDD923
:1050F300CDD9CDD9CDB8D5D9D5D8D5D8D619CDB860
:105103007B90410269C392E89B48720469429B27E2
:10511300FE70EE0FEDEFD54ED590C550CD9161A247
:105123005941384048E140A0592148E0C4EF8B6A17
:10513300202030C349014900AC0AE5AF930772064A
:10514300FF7BFFFADDAEAB8669A3932B414539653F
:105153006B0B72EA498520A441872083108320A327
:1051630072059284AB867B856BC66BC77C497428BA
:1051730084A9954C950D6BEA740D740BA512DEDCB6
:1051830042287C2E5ACA18C420C520C641C959A634
:10519300A328A3675A436B8A73EC6BCB5B695B4AA7
:1051A3005B4A638B6BAB6BABA5726BAB6BCB73EC7B
:1051B30073EC846E84AF846E740C636A5309530971
:1051C300638A638963895B49638B5B2A638B6BACFB
:1051D3006BAC740D6BCD7C0F84518452B5B8DEFD7E
:1051E300CE9CCE7CCE9DC65CCE9DC65CC67CC65B8B
:1051F300D67BD65BD61ACDF9CDD9CDFACE1ACDF959
:105203007B4F4923824569A269A27A0379A3AB47FD
:10521300F62FE5CEC4ED82E7ACB0CDB55A065122E8
:1052230050A050C140A0510161625920BC8D938AA6
:105233002860412451015961CD0DEDCE92E559010C
:105243006A04E631E60EC48A69E37A8838C34165A5
:1052530062AA6ACA4165208451E849C728E438E450
:1052630082469283BC08942784878CC98CA984685E
:105273007C279D4C94EC6BA9740C6BC973AC39A857
:10528300296573CD630C18A520C518843988622756
:105293009B07ABC86AC56BAA6BCB742B742C73EBDF
:1052A300638A52E852C85B2A9D126BAC73EC6BABFA
:1052B30073EC9D30844D846D7C4C7C4C7C2C740C45
:1052C3006BAA638A638A5B2A5B0B4AAA5B2C636DB6
:1052D3005B4D636D8C92AD97BE3ACEBCD69DD69D89
:1052E300DF1ED6DED6DED6DECE9ECEBEDF1FD6FED8
:1052F300D69DD69DD69DD6BDD67CCE3ADEBCCE7A83
:1053030083D141037A2569A2618182439A869B05F1
:10531300F62EEDEFD590AC8FCDF7D639498648E21E
:1053230060C050C048C0590159415920B44C8B4901
:105333002860410251008AC5E5AEEDEDB3E77A037B
:105343006181D56CE60DCCCA72028B0A38C25A2829
:1053530052076AEBB4F420A449C751E739444923FF
:105363008A669AA3CC4A8C066BC45B6463658468C3
:10537300848973C763666B686BEA7C2A7C0C31870C
:1053830021257C0E52AB18A5188418A4316759C681
:10539300A347A3877B267C0C73EC742B742B6BEBDA
:1053A300636A638C73AD5AEB73EF632C634C634B8B
:1053B30052E95B2A6BAB7C0C7C0C740B846D73EB36
:1053C300636973EC7C4E8CB18CB395169D369D3618
:1053D300A598AD98B5D9B5D9B5DAB5BAC65CCE7CC2
:1053E300C65CC65CC65DB5DBC65DCE9DCE9ECEBE3D
:1053F300CEBECE9ECEBDCE9CCE7BC63AAD97EF7EC3
:10540300735039237224826582A58243B3898263F0
:10541300EE2DDD6CC52E73097B8EBDB772EB514348
:1054230058A0590151016142AB8A69E2C4CDA3EB93
:10543300306049226140BC4AE5CDEDECC44892A5F9
:1054430071C1E5ADE5ECC4A969C17A8730A172EBFE
:105453005A686289312520A45A496A8941444943DB
:1054630092859AA4B3C88C084B044B043A62532523
:105473006385848A7C497C296C09F7F794CE31656E
:10548300214473ED39C7104318632906312659C5E2
:10549300A3479B458368842D7C4E73EB7C4D846EC0
:1054A30073EE634D634E6B707BF2632F636F636EBA
:1054B300634D5B2C634C5B4B6BAC6BCD73CC846EDD
:1054C3008CAF94F19D1394F494F69D58A559A55966
:1054D300AD99A559AD79B5DBBDFBC65CCE5DC65CA8
:1054E300C63CC65CBE1CBDFBC63CCE9DD6BED6BE6E
:1054F300C65DD6BEA5579D169D1594D39D14A534A0
:10550300630F3923724572246A028AA5BBEB7A22A0
:10551300E60DE5EDDDD09C4EC5F7CE5A394540E1A9
:105523006120696259006162ABCA7202C4ACB44BB8
:1055330040C051217A21DD6DE5EDDD8ABC489AE654
:105543007180D50BE5EDCCEA69E17A6649236A6897
:1055530062A9628928A31884418649853923518326
:105563008A85AB678B068C4B5BA8324442C65327B4
:105573003A824AE363C7742984AA74479CEE0840BD
:1055830042276B8B422810631884106331266A68A4
:1055930092E59B6683677BEC7C2E6BCC73CC7C2F74
:1055A300A534B5D8BDFABDFBC65EBDFCB5DBADBA4F
:1055B300A578A5589D168CB48C946BB0636E6BAEB6
:1055C300740F847194D494F59D37A559A559AD9A58
:1055D300AD9AAD9AB5DCBE1CBE1CC65DC65DBE3BB6
:1055E300C63CBDFBCE9D8C95B5BAB5DAC63BD6BDE0
:1055F300A536A5568C938CB38C7194F28C90844F02
:105603006B5039247A457A2472028264B38A8264A5
:10561300E5EDEE2ED58F834ACDF7A4D4310349426D
:1056230069A16161590069A2A3697202BC6BBC8C58
:1056330048E05120ABA7E5CFE5EDE60CCCAA9B07EC
:1056430071A2D4CBEE0ED50C69A182466A067AE923
:105653007B4B3944206218A5394630C2392372671F
:1056630092C793066203422331E24AA642653A4453
:1056730053056BC842A45B675B866BE65B272925F2
:1056830042485B0A4A4918842906314720E559E60E
:10569300A367A3867B076B6A6B8C73CD73CD7C0E7C
:1056A3007BEF8C9394D694B69CF89D199D399D39C4
:1056B3009D199D399D399D39A579A559A5589D37C2
:1056C300A578A577AD98AD98B5BAB5BAB5FBB5DBF6
:1056D300BE1CB5FCB5FCBE3DC63DC65DCE7DCEBE93
:1056E300BE1BD6DEBE1BAD99BDFAB5B8AD97C65A83
:1056F3009D1494B28CD28CB0848FC655844D844D46
:105703006B5039247A2582457A239285B36A718155
:10571300FE4FEE0FE5F193ACCDD7BD76418561E544
:105723006161698261407A04AB897202ABE9BC6C46
:1057330040C05941D52DE5CEE60DE60DC4AA9B0820
:105743006941CC8AEDEECCCB698082467A6772A838
:10575300624730E22083106549C83903498459E51B
:10576300C4AEABEA49A263066B87634752C6426481
:105773005B064AA542843A444284532473CB2925C9
:1057830042295B2B52AB18A5312720E6396759C64E
:10579300A368ABC77B4773CC6BCD634B5B2B634B6E
:1057A300636D73D08C949D17B5BBBDFCB5FCADDCAC
:1057B300A59BA57BA57B9D3A951A9D3AA55AA55A0B
:1057C300AD9AB5DAADB9B5B9B5D9B599BDFBB5FBE8
:1057D300BE1CB61CB5FCBE1CBE3CC63CC67CCEBEC5
:1057E300CEBE9D178C958C95A5579CF58451C658B4
:1057F3008CB0846F84AF742D6C0B5B686388846C8E
:105803006B4F414569E479E269608245BBEC7A23D9
:10581300F630FF14E63393ED93F0D6196A697246B6
:1058230061815940614179C3A32771E2ABE9C48D1A
:1058330051007A45E5D2EE11EDF0FE53C48B92C6CA
:1058430071A2CCABE5CDCD0B61A07A247A886A68CE
:105853005A2820A4188410654A09392459C77206A6
:1058630082A68B0751A362C65AE542244A6639E4ED
:105873005B0842455B2763A863A67C4A842D10849A
:1058830052AE52AF52CF39CB18C61886290659E605
:10589300ABA98B275A688CB48C757C347C3373D258
:1058A3006350635073B284349CF7ADBAB5FBB5DB78
:1058B300B5DBB5DBADDBADDCADDCADDCADBCB5DCA8
:1058C300B5FCB5DBB5FBBDDBC61BC63CC63CC65C45
:1058D300C65CBE3CBE3CBDFBC65CE73ECE7DC65C43
:1058E300C61CCE7D94B594F48470842F73CDD6F901
:1058F300848F7C2E742D6C0B5B486B8973EA7C0A56
:105903006B50394561A27A0279C171C3BC0C6160E5
:10591300F5F0EE52EE95A46F838DD65972C982C805
:105923008B0769E369A279E3AB6871E2C46BBC6C72
:1059330059208AA7D53072427A437A238242B3C967
:1059430071A2BC29E5EEDD6D69C17A457A676A48C3
:1059530049E720841864106541E830E34124720666
:1059630082A68AE7518362864A443A034A4652A88A
:1059730063095B2842645B6763E7740A5AE920C5DD
:1059830062F094979CD8420C18851885290659A56E
:10599300ABA961E262EA9CF79CF994F894F894F855
:1059A30094D794B79D18A579ADBAB5DBB5FBB5FB14
:1059B300B5FBADDBB5FCB5FCB5FCB5FCADBBB5FCCF
:1059C300B5DBBDFCBDFBBE1BCE5CCE5CCE7CD67C0A
:1059D300CE7CC63BC63CC65CCE7DE71ECE3BCE9D91
:1059E300CE5CC63CB5B98C927BEE634B634BD6D889
:1059F3006BCC6BCC742D6BEB742C846C844C7C2B38
:105A03007370498669E492A5926579C3ABCA71C084
:105A1300EDAEFEF4E653D6148C0DEEF99C4EA40CB9
:105A23009B89934982867A24B3C97A22C48BBC6B3F
:105A330050E09B08ABE992E393058AA49B05AB88EE
:105A43006120C44AE5CEDD4D61817A2572465A064E
:105A530028A2418720A4104339A63144390459A50B
:105A63007A657AC659A46AE85B0752A639E55B0AE8
:105A7300634A6B8A5307740A63876369528931687F
:105A83006B519497A51841CA28E628C531056206CB
:105A9300B3EA93487BADAD9AA53AA55AA57AA57A00
:105AA300A59AA57AA57AA57AAD7AAD7AADBAADDB1A
:105AB300B5FBB5FBB5DBB5DBB5DBB5DBADBBAD9A94
:105AC300B5DABDFBB5DABDFACE9CD69CCE5BCE7BF8
:105AD300CE7CCE5CCE5CD69DC5FAC5FAD65C94B5B9
