:100016004D443A424D343532384126420050726FD3
:100026003A543435323842303000446F74733A39BA
:10003600362A37360049433A205354373638375331
:100046000056413A36206F27636C6F636B0032307F
:1000560030382E31312E303600000000000000000E
:10006600000000000000000000000000000000008A
:10007600000000000000000000000000000000007A
:10008600000000000000000000000000000000006A
:10009600000000000000000000000000000000005A
:1000A600000000000000000000000000000000004A
:1000B600000000000000000000000000000000003A
:1000C600000000000000000000000000000000002A
:1000D6000000000000000000000000001808C8082A
:1000E60008000000000000000000007F6060606003
:1000F60060606060E060200000000000000000001A
:100106000000000000000000000000181818101081
:1001160010000000000000000000000000000000C9
:10012600000808080C0C0C0000000000000000008D
:1001360000000000000000000000006C3810007C89
:10014600C6701CC67C00000000000010386C0078E9
:100156000C7CCCCC76000000000000000000007C87
:10016600C670C0C67C000000000000000000006CE5
:10017600967CD0D66C000000000000000000007CD9
:10018600C60606C67C00000000000000386CC6C625
:10019600FEC6C66C380000000000000000001038E3
:1001A600286C44C6C6000000000000000000007C69
:1001B600C606FEC67C00000000000000000000DC51
:1001C600666666F60606663C000000006C38F80CAB
:1001D6007EC6C6C67C000000000000000E1B181874
:1001E6001818181818D87000000000000000FE86C5
:1001F6000C180C0606C67C0000000076DC000078B1
:100206000C7CCCCC7600000000000076DC00007C84
:10021600C60606C67C00000000000076DC0000DC96
:100226006666666666000000000000000000007654
:10023600999F98996F0000000000000000000000E0
:10024600000000000C060600000000000000000090
:100256000000003C66663C00000000000000000054
:10026600000000000000000000000000183C3C3CBC
:100276001818001818000000000000C6C6C6440082
:100286000000000000000000000000006C6CFE6C26
:100296006C6CFE6C6C000000000018187CC6C2C0B6
:1002A6007C0686C67C181800000000000000C3C645
:1002B6000C183063C300000000000000386C6C3876
:1002C60076DCCCCC760000000000003030306000D8
:1002D6000000000000000000000000001830606010
:1002E600606060301800000000000000180C060670
:1002F6000606060C180000000000000000006C381E
:10030600FE386C00000000000000000000181818FD
:100316007E18181800000000000000000000000011
:10032600000018181830000000000000000000004F
:10033600FE000000000000000000000000000000B9
:1003460000000018180000000000000002060C184B
:100356003060C08000000000000000007CC6CEDED9
:10036600F6E6C6C67C0000000000000018387818C3
:10037600181818187E000000000000007CC6060C45
:10038600183060C6FE000000000000007CC60606AD
:100396003C0606C67C000000000000000C1C3C6CFD
:1003A600CCFE0C0C1E00000000000000FEC0C0C009
:1003B600FC0606C67C000000000000003860C0C0D5
:1003C600FCC6C6C67C00000000000000FEC6060C87
:1003D6001830303030000000000000007CC6C6C671
:1003E6007CC6C6C67C000000000000007CC6C6C6EF
:1003F6007E06060C780000000000000000181800B9
:100406000000181800000000000000000018180086
:10041600000018183000000000000000060C18301C
:100426006030180C06000000000000000000007E8E
:1004360000007E0000000000000000006030180C84
:10044600060C183060000000000000007CC6C60CD8
:100456001818001818000000000000007CC6C6DE50
:10046600DEDEDCC07C0000000000000010386CC638
:10047600C6FEC6C6C600000000000000FC66666632
:100486007C666666FC000000000000003C66C2C098
:10049600C0C0C2663C00000000000000F86C666642
:1004A6006666666CF800000000000000FE66626882
:1004B60078686266FE00000000000000FE66626862
:1004C60078686060F0000000000000003C66C2C072
:1004D600C0DEC6663A00000000000000C6C6C6C6FA
:1004E600FEC6C6C6C6000000000000003C1818186C
:1004F600181818183C000000000000001E0C0C0C18
:100506000C0CCCCC7800000000000000E6666C6C99
:10051600786C6C66E600000000000000F060606029
:1005260060606266FE00000000000000C6EEFED6B7
:10053600C6C6C6C6C600000000000000C6E6F6FE37
:10054600DECEC6C6C600000000000000386CC6C677
:10055600C6C6C66C3800000000000000FC66666671
:100566007C606060F0000000000000007CC6C6C62B
:10057600D6DE7C0C0E00000000000000FC666666FD
:100586007C6C6666E6000000000000007CC6C66063
:10059600380CC6C67C000000000000007E5A181801
:1005A600181818183C00000000000000C6C6C6C691
:1005B600C6C6C6C67C00000000000000C6C6C6C689
:1005C600C6C66C381000000000000000C6C6C6C6CD
:1005D600C6D6FEEEC600000000000000C6C6C66C09
:1005E600386CC6C6C600000000000000C6C6C66C51
:1005F600383838387C00000000000000FEC68C1831
:100606003060C2C6FE000000000000003C30303002
:10061600303030303C0000000000000080C0E07048
:10062600381C0E0602000000000000003C0C0C0CFA
:100636000C0C0C0C3C000000000010386CC60000CE
:1006460000000000000000000000000000000000A4
:10065600000000000000FE0000000030301800001E
:10066600000000000000000000000000000000780C
:100676000C7CCCCC7600000000000000E0606078C6
:100686006C666666DC000000000000000000007C6E
:10069600C6C0C0C67C000000000000001C0C0C3C5C
:1006A6006CCCCCCC76000000000000000000007C82
:1006B600C6FEC0C67C000000000000001C363230BA
:1006C6007C3030307800000000000000000000762A
:1006D600CCCCCC7C0CCC780000000000E060606CD8
:1006E60076666666E600000000000000181800380E
:1006F600181818183C000000000000000606000E3E
:100706000606060666663C0000000000E0606066BD
:100716006C786C66E60000000000000038181818B7
:10072600181818183C0000000000000000000044E3
:10073600FED6D6D6D600000000000000000000DC81
:100746006666666666000000000000000000007C29
:10075600C6C6C6C67C00000000000000000000DC23
:100766006666667C6060F0000000000000000076AF
:10077600CCCCCC7C0C0C1E0000000000000000DC81
:1007860076666060F0000000000000000000007C5B
:10079600C6701CC67C00000000000000103030FC53
:1007A600303030361C00000000000000000000CC95
:1007B600CCCCCCCC7600000000000000000000C6C7
:1007C600C6C66C381000000000000000000000C61D
:1007D600C6C6D6FE6C00000000000000000000C681
:1007E6006C38386CC600000000000000000000C62F
:1007F600C6C6C67E060C780000000000000000FE9B
:10080600CC183066FE000000000000000E18181814
:10081600701818180E0000000000000018181818AC
:1008260000181818180000000000000070181818AA
:100836000E181818700000000000000076DC00009A
:1008460000000000000000000000000000000000A2
:100856000000000000000000000000000000000092
:100866000000000000000000000000000000000082
:100876000000000000000000000000000000000072
:0E1E7D007FF47E01121E8B1214267FF47E016C
:101E8B00E4FDFCC3ED9FEC9E5015E4FBFA0BBB008D
:0F1E9B00010AEB64FA4A70F50DBD00010C80E4FA
:011EAA002215
:03001300021C5A72
:101C5A00C0E0C0D075D000C002C003C004C005C037
:101C6A0006C0077F647E00121E8B30B3FD7F647E40
:101C7A0000121E8B20B3FD7F647E00121E8B30B3D0
:101C8A00FD7F647E00121E8BD007D006D005D004DB
:091C9A00D003D002D0D0D0E0321A
:101CA3008F20C2B5C2A3A20792A2C2A1D2A1A2064B
:101CB30092A2C2A1D2A1A20592A2C2A1D2A1A204C0
:101CC30092A2C2A1D2A1A20392A2C2A1D2A1A202B4
:101CD30092A2C2A1D2A1A20192A2C2A1D2A1A200A8
:091CE30092A2C2A1D2A1D2B52245
:101CEC008F20C2B5D2A3A20792A2C2A1D2A1A206F2
:101CFC0092A2C2A1D2A1A20592A2C2A1D2A1A20477
:101D0C0092A2C2A1D2A1A20392A2C2A1D2A1A2026A
:101D1C0092A2C2A1D2A1A20192A2C2A1D2A1A2005E
:091D2C0092A2C2A1D2A1D2B522FB
:0A1FC800AE05121CECAF06021CEC83
:0F1F9F00AC03121CECAF05121CECAF04021CECDF
:101D35008F20C2B5C2A3A20792A2C2A1D2A1A206B8
:101D450092A2C2A1D2A1A20592A2C2A1D2A1A2042D
:101D550092A2C2A1D2A1A20392A2C2A1D2A1A20221
:101D650092A2C2A1D2A1A20192A2C2A1D2A1A20015
:091D750092A2C2A1D2A1D2B522B2
:101ADE007F2A121D35E4FF121B007F02121B00FF2E
:101AEE00121B007F81121B007F2B121D35FF121B54
:021AFE00000FD7
:101B00008F20C2B5D2A3A20792A2C2A1D2A1A206DF
:101B100092A2C2A1D2A1A20592A2C2A1D2A1A20464
:101B200092A2C2A1D2A1A20392A2C2A1D2A1A20258
:101B300092A2C2A1D2A1A20192A2C2A1D2A1A2004C
:091B400092A2C2A1D2A1D2B522E9
:0E1FAE00C2B47F647E00121E8BD2B4021E8B62
:1015FA007F01121D357F0A7E00121E8B7F11121D7C
:10160A00357F78121E8B7F3A121D357F05121B001B
:10161A007F0A121E8B7FB1121D35E4FF121B007F59
:10162A0006121B007F03121B007F0A121E8B7F36D5
:10163A00121D357FC8121B007FB6121D357F151289
:10164A001B007F02121B007FB4121D35E4FF121B20
:10165A00007FC0121D357F02121B007F70121B0013
:10166A007F0A121E8B7FC1121D357F05121B007F58
:10167A00C2121D357F01121AFC7FC5121D357F3C2F
:10168A00121B007F38121B007F0A121E8B7FFC126E
:10169A001D357F11121B007F15121B007FE0121DE2
:1016AA00357F09121B007F16121B007F09121B00CF
:1016BA007F20121AFC7F1B121B007F13121B007F54
:1016CA0019121B007F17121B007F15121B007F1EA9
:1016DA00121B007F2B121B007F04121AFC7F0212BE
:1016EA001B007F0E121B007FE1121D357F0B121BA0
:1016FA00007F14121B007F08121B007F1E121B00A2
:10170A007F22121B007F1D121B007F18121B007FF5
:10171A001E121B007F1B121B001F121B007F2412AC
:10172A001B007F2B121B007F06121B00121B007F5F
:10173A0002121B007F0F121B007F0A121E8B121A45
:10174A00DE1F121B007FA0121B007F13121D357FA4
:10175A000A121E8B7F2C121D357F14121E8B7F29B5
:08176A00121D357F78021E8B71
:101F7D007F28121D357F10121D357F967E00021EA3
:011F8D008BC8
:101F8E007F11121D357F967E00121E8B7F29021D3A
:011F9E00350D
:061FD200121F7D021F8EAC
:0C000600121ADE1F121B007FA0021B005C
:101E4C008F827F2A121CA3AF82121CEC7F5F121CA4
:101E5C00EC7F2B121CA3ED2434FF121CEC7F7F12A1
:101E6C001CEC7F2C121CA3AF02121CECAF03021C47
:011E7C00EC79
:101F4D00E4F523F9752342AF237E00E9FD7C007B88
:0A1F5D00007AF8121E4C09B910EDCD
:011F67002257
:061F2B007DFF7C007FFF3A
:081F31008E248F25AB05AA04E4
:101F3900E4FCE4F9AF25AD03121FC809B980F50C1B
:031F4900BCA0EF4A
:011F4C002272
:1019DF00120006E4F50FF510E4F511F512E51225E6
:1019EF00E0FFE51133FE851082850F8374C0121856
:1019FF0036E5822FF582E5833EF583121772FFC01D
:101A0F0007AE0FAF107C007DC012179FAC06AD075D
:101A1F00E51225E0FFE51133FEED2FFFEC3ECF245D
:101A2F0001CF34008F82F583121772FDD007121F7A
:101A3F00C80512E51270020511C39460E5116480A8
:101A4F00948040990510E5107002050FC3944CE582
:071A5F000F648094804081B8
:011A6600225D
:0C1F06008E138F148C158D168B828A832D
:101F1200120006E4FEE4FAAF14AD16AB82121F9F64
:081F22000ABA80F30EBE80ED47
:011F2A002294
:10106000E4FBFAE4F521F522E4FDFF121FC8052296
:10107000E52270020521C39406E521940040E9E4CD
:10108000F521F5227DA27F10121FC80522E52270EE
:10109000020521C39406E521940040E8E4F521F51A
:1010A000227D047F21121FC80522E522700205213E
:1010B000C39406E521940040E8E4F521F5227DA6DD
:1010C0007F31121FC80522E52270020521C3940654
:1010D000E521940040E8E4F521F5227D087F4212E5
:1010E0001FC80522E52270020521C39406E521945C
:1010F0000040E8E4F521F5227DAA7F52121FC805C1
:1011000022E52270020521C39406E521940040E8FF
:10111000E4F521F5227D0C7F63121FC80522E5222C
:1011200070020521C39406E521940040E8E4F5210E
:10113000F5227DEF7F7B121FC80522E52270020594
:1011400021C39406E521940040E8E4F521F5227DD1
:10115000717F8C121FC80522E52270020521C394FD
:1011600006E521940040E8E4F521F5227DF37F9C1B
:10117000121FC80522E52270020521C39406E5214D
:10118000940040E8E4F521F5227D757FAD121FC87B
:101190000522E52270020521C39406E52194004052
:1011A000E8E4F521F5227DF77FBD121FC80522E591
:1011B0002270020521C39406E521940040E8E4F57D
:1011C00021F5227D797FCE121FC80522E52270020B
:1011D0000521C39406E521940040E8E4F521F522B9
:1011E0007DFB7FDE121FC80522E52270020521C3A8
:1011F0009406E521940040E8E4F521F5227D7D7F09
:10120000EF121FC80522E52270020521C39406E5EE
:1012100021940040E8E4F521F5227DFF7FFF121FB5
:10122000C80522E52270020521C39406E521940039
:1012300040E80BBB00010AEB64264A60030210631E
:10124000E4FAFBE4F521F5227DFF7FFF121FC805BC
:1012500022E52270020521C39406E521940040E8AE
:10126000E4F521F5227D7D7FEF121FC80522E522DE
:1012700070020521C39406E521940040E8E4F521BD
:10128000F5227DFB7FDE121FC80522E522700205D4
:1012900021C39406E521940040E8E4F521F5227D80
:1012A000797FCE121FC80522E52270020521C39462
:1012B00006E521940040E8E4F521F5227DF77FBDA5
:1012C000121FC80522E52270020521C39406E521FC
:1012D000940040E8E4F521F5227D757FAD121FC82A
:1012E0000522E52270020521C39406E52194004001
:1012F000E8E4F521F5227DF37F9C121FC80522E565
:101300002270020521C39406E521940040E8E4F52B
:1013100021F5227D717F8C121FC80522E522700203
:101320000521C39406E521940040E8E4F521F52267
:101330007DEF7F7B121FC80522E52270020521C3C5
:101340009406E521940040E8E4F521F5227D0C7F28
:1013500063121FC80522E52270020521C39406E529
:1013600021940040E8E4F521F5227DAA7F52121F66
:10137000C80522E52270020521C39406E5219400E8
:1013800040E8E4F521F5227D087F42121FC80522BE
:10139000E52270020521C39406E521940040E8E4AB
:1013A000F521F5227DA67F31121FC80522E52270A6
:1013B000020521C39406E521940040E8E4F521F5F7
:1013C000227D047F21121FC80522E522700205211B
:1013D000C39406E521940040E8E4F521F5227DA2BE
:1013E0007F10121FC80522E52270020521C3940652
:1013F000E521940040E8E4F521F522E4FDFF121F09
:10140000C80522E52270020521C39406E521940057
:1014100040E90BBB00010AEB64264A600302124359
:06142000121F4D02000640
:10142600120006900000E4FAFB7D1FE4FF121FC8BD
:101436000BBB00010AEB64604A70EEA3E582640A06
:10144600458370E290000AE4FAFBC3EA9400500375
:10145600021509EB9430EA94004003021509C3EB28
:101466009405EA94004020EB940AEA94005018C3CD
:10147600E5829434E5839400400DE5829442E58349
:10148600940050030215B8C3EB940FEA9400401D74
:10149600EB9414EA94005015C3E5829426E58394F0
:1014A60000400AE5829442E5839400404CC3EB94E5
:1014B60019EA9400401DEB941EEA94005015C3E50A
:1014C60082941AE5839400400AE5829442E5839467
:1014D600004026C3EB9424EA94004020EB942AEAC9
:1014E60094005018C3E582940EE5839400400DE500
:1014F600829442E583940050030215B87DFF7FFF76
:101506000215BBC3EB9436EA9400402EEB943CEAFA
:1015160094005026C3E582940EE583940040047F30
:101526000180027F00C3E5829442E5839400500463
:101536007E0180027E00EE5F7072C3EB9442EA94F5
:1015460000401DEB9447EA94005015C3E582941AB7
:10155600E5839400400AE5829442E5839400404C7A
:10156600C3EB944CEA9400401DEB9451EA9400506E
:1015760015C3E5829426E5839400400AE5829442E9
:10158600E58394004026C3EB9456EA94004023EB8F
:10159600945BEA9400501BC3E5829434E58394007F
:1015A6004010E5829442E583940050067D107F84C6
:1015B6008003E4FDFF121FC80BBB00010AEB646049
:1015C6004A6003021450A3E5826442458360030225
:1015D600144D900042E4FAFB7D1FE4FF121FC80B76
:1015E600BB00010AEB64604A70EEA3E582644C45D9
:0315F6008370E21D
:0115F90022CF
:021A6700A907CD
:101A6900120006E4FBFAE4F50CF50DF508F509E4B6
:101A7900F50AF50BE91425E02BF590050DE50DAEFA
:101A89000C7002050C14F5828E83E0F50E050DE548
:101A99000DAE0C7002050C14F5828E83E0FDAF0EBD
:101AA900121FC8050BE50B7002050AC39480E50AED
:101AB9006480948040BE0509E50970020508C39455
:101AC90040E5086480948040A60BBB00010AEB64E2
:041AD900024A7092BB
:011ADD0022E6
:101DC4007A0079167D341218B57A0079237D401291
:101DD40018B57BFF7A0079307D4C1218B77BFF7AF7
:101DE40000793B7D581218B77BFF7A0079477D64F0
:101DF4001218B77BFF7A0079547D707C007F017ED6
:041E0400000218BD03
:101ED900AB07AA067F2A121CA3AF03121CEC121C23
:101EE900EC7F2B121CA3AF05121CEC121CEC7F2CEF
:0D1EF900121CA3E4FD7FF8121FC8020006B2
:0818B5007BFF7C007F017E0037
:0E18BD008E248F258C268D278B288A29892A38
:1018CB00E4F52BF52CAB28AA29A92A121F68C3E52E
:1018DB002C9FEE6480F8E52B64809840030219DEA0
:1018EB00AB28AA29A92A852C82852B83121772FF74
:1018FB00C394A140068F53E4F55422AB28AA29A91F
:10190B002A852C82852B83121772FFE4FCFDFE7B4C
:10191B0010FAF9F81217E78F328E318D308C2FE4D5
:10192B00FFFEE5322FFDE5313EFC745F2DF5827431
:10193B00003CF583E493FD74332FF8A6050FBF002D
:10194B00010EEF64104E70DAE4F52DF52E900000C9
:10195B007C007D08AF82AE831217B17433252EF84D
:10196B00E6FB3395E0FA74807E00A805088006CE6E
:10197B00A2E713CE13D8F8FFEE5AFEEF5B4E6029A9
:10198B00E5252582FDE5243583FCE52CAE2B78037C
:10199B00C333CE33CED8F92DFFEC3EFEE52E2527F3
:1019AB00FDE52D3526FC121ED9A3E582640845837F
:1019BB00709E052EE52E7002052DC39410E52D6447
:1019CB008094804088052CE52C60030218D0052BF1
:0319DB000218D01F
:0119DE0022E6
:101E08007E00121F2B121DC4121E87E4FDFCFF1E4C
:101E1800121F31121E87121060121E87E4FDFC7F0C
:101E2800F81E121F31121E877DE07C007F071E12EC
:101E38001F31121E877D1F7C00E4FF1E121F311206
:041E48001E7D80BCBF
:101C0A007F2C121D357DFF7C007FFF7E00121F3165
:101C1A00121E87E4FDFCFF1E121F31121E87E4FD0F
:101C2A00FC7FF81E121F31121E877DE07C007F07A1
:101C3A001E121F31121E877D1F7C00E4FF1E121F19
:101C4A0031121E7D1E121F2B121DC4121E8780B058
:101EAB007FE0121D357F20121B007F647E00121E07
:101EBB008B7FFA121D357F0C121B007F64121E8B59
:0E1ECB007FFB121D351F121E8B7FE1021D359D
:101BAA007F28121D357F647E00121E8B121EAB7FAA
:101BBA00787E00121E8B7FF0121D357F12121B00D9
:101BCA00121B00121B00121B007FE5121D357F0F2E
:101BDA00121B007FE0121D357F20121B007F64124A
:101BEA001E8B7FFA121D357F0A121B007F64121E9C
:101BFA008B7FE2121D357FFA121E8B7FE1021D35A3
:041FDE0075A885223B
:101D7E0030B23E20B11B7F147E00121E8B20B1119B
:101D8E0030B1FD7FC1121D357F147E00121E8BD225
:101D9E00B120B0DC7F147E00121E8B20B0D230B08A
:101DAE00FD7FC2121D357F147E00121E8BD2B080B5
:061DBE00BFD2B2021BAA15
:03000300021B4994
:101B4900C0E0C082C0D075D000C001C002C003C0CF
:101B590004C005C006C0077F0A7E00121E8B75A847
:101B690080121FAE1215FA7F29121D357F2C121D06
:101B790035121060121D7E7FC87E00121E8BD2B2F4
:101B890020B2FD121FAE1215FA75A885D007D0062E
:101B9900D005D004D003D002D001D0D0D082D0E07B
:011BA9003209
:061FD8001215FA021C0ABA
:03000000021FBC20
:0C1FBC00787FE4F6D8FD758154021FD830
:10177200BB010CE58229F582E5833AF583E022502C
:1017820006E92582F8E622BBFE06E92582F8E22276
:0D179200E58229F582E5833AF583E4932290
:10179F00EF8DF0A4A8F0CF8CF0A428CE8DF0A42E5E
:0217AF00FE2218
:1017B100C2D5EC30E709B2D5E4C39DFDE49CFCEE53
:1017C10030E715B2D5E4C39FFFE49EFE121860C353
:1017D100E49DFDE49CFC800312186030D507C3E44E
:0617E1009FFFE49EFE22C2
:1017E700E88FF0A4CC8BF0A42CFCE98EF0A42CFCA1
:1017F7008AF0EDA42CFCEA8EF0A4CDA8F08BF0A41F
:101807002DCC3825F0FDE98FF0A42CCD35F0FCEB7D
:101817008EF0A4FEA9F0EB8FF0A4CFC5F02ECD3942
:0F182700FEE43CFCEAA42DCE35F0FDE43CFC22AF
:10183600F5F0C582A4C582C5F0C583A42583F583CA
:01184600227F
:101F6800E4FFFE121847600C0FEF70010E09E970CC
:051F7800F20A80EF22D7
:10184700BB010689828A83E0225002E722BBFE029F
:09185700E32289828A83E49322D2
:10186000BC000BBE0029EF8DF084FFADF022E4CC6C
:10187000F875F008EF2FFFEE33FEEC33FCEE9DEC35
:10188000984005FCEE9DFE0FD5F0E9E4CEFD22ED7B
:10189000F8F5F0EE8420D21CFEADF075F008EF2FC5
:1018A000FFED33FD4007985006D5F0F222C398FDB6
:0518B0000FD5F0EA2253
:00000001FF
