:100000000C9456000C9460000C9460000C946000FA
:100010000C9460000C9460000C9460000C946000E0
:100020000C9460000C9460000C9460000C946000D0
:100030000C9460000C9460000C9460000C946000C0
:100040000C9460000C9460000C9460000C946000B0
:100050000C9460000C9460000C9460000C946000A0
:100060000C9460000C9460000C9460000C94600090
:100070000C9460000C9460000C9460000C94600080
:100080000C9460000C9460000C9460000C94600070
:100090000C9460000C9460000C9460000C94600060
:1000A0000C9460000C9460000C94600011241FBE3E
:1000B000CFEFDAE0DEBFCDBF0E9481000C948B0051
:1000C0000C940000E1E6F0E080E88083108286E096
:1000D00084B9089584E085B980E197E228EC30E0A6
:1000E000F9013197F1F70197D9F782E085B980E1FD
:1000F00097E228EC30E0F9013197F1F70197D9F751
:10010000089580E8809361001092610086E084B9D0
:0A0110000E946A00FDCFF894FFCFB3
:00000001FF
