:100000000C9456000C9460000C9460000C946000FA
:100010000C9460000C9460000C9460000C946000E0
:100020000C9460000C9460000C9460000C946000D0
:100030000C9460000C9460000C9460000C946000C0
:100040000C9460000C9460000C9460000C946000B0
:100050000C9460000C9460000C9460000C946000A0
:100060000C9460000C9460000C9460000C94600090
:100070000C9460000C9460000C9460000C94600080
:100080000C9460000C9460000C9460000C94600070
:100090000C9460000C9460000C9460000C94600060
:1000A0000C9460000C9460000C94600011241FBE3E
:1000B000CFEFDAE0DEBFCDBF0E947F000C94880056
:1000C0000C940000E1E6F0E080E8808310828AB9B9
:1000D000089580E88BB98FEF9FEF20E931E0F901B7
:1000E0003197F1F70197D9F71BB88FEF9FEF20E910
:1000F00031E0F9013197F1F70197D9F7089580E8D8
:1001000080936100109261008AB90E946900FDCF5E
:04011000F894FFCF91
:00000001FF
