:10000000B2C00000CCC00000CAC00000C8C00000E0
:10001000C6C00000C4C00000C2C00000C0C00000D4
:10002000BEC00000BCC0000015C30000B8C0000086
:10003000B6C00000B4C00000B2C00000B0C00000F4
:10004000AEC00000ACC00000AAC00000A8C0000004
:10005000A6C00000A4C00000A2C00000A0C0000014
:100060009EC000009CC000009AC0000098C0000024
:1000700096C0000094C0000092C0000090C0000034
:100080008EC000008CC000008AC0000088C0000044
:1000900086C0000084C0000082C0000080C0000054
:1000A0007EC000007CC000007AC000000501090687
:1000B000A101050719E029E715002501750195083B
:1000C0008102950175088101050819012905950529
:1000D00075019102950175039101150025650507CC
:1000E00019002965950675088100C01201100100EC
:1000F000000008EB03422000000102000109022277
:1001000000010100C03209040000010301010009DF
:100110002111010001223F000705810308000504A9
:1001200003090418034400650061006E00200043C9
:100130000061006D00650072006100000026034C44
:100140000055004600410020004B00650079006228
:10015000006F006100720064002000440065006DC3
:10016000006F0000000011241FBECFEFDAE0DEBFF9
:10017000CDBF11E0A0E0B1E0ECE4F2E102C00590F7
:100180000D92A031B107D9F711E0A0E1B1E001C0B3
:100190001D92A532B107E1F7EFD00C94240930CFBE
:1001A0008BB18F70806A8BB908958BB18F7080612D
:1001B0008BB9089580910E0190910F01009729F05D
:1001C000019790930F0180930E0108950F931F9351
:1001D000CF93DF93E801D90123B18CB1809590E0F2
:1001E00080739070959587952095207E282B33B14C
:1001F000309527FF02C084E005C024FD02C090E0D6
:1002000005C085E012968C93129791E026FF05C0F9
:10021000FD01E90FF11D86E006C023FF06C0FD01C8
:10022000E90FF11D87E082839F5F25FF06C0FD0176
:10023000E90FF11D88E082839F5F232F30FF06C006
:10024000FD01E90FF11D89E082839F5F21FF06C058
:10025000FD01E90FF11D8AE082839F5F22FF06C046
:10026000FD01E90FF11D8BE082839F5F23FF06C034
:10027000FD01E90FF11D8CE082839F5F24FF06C022
:10028000FD01E90FF11D8DE082839F5F25FF06C010
:10029000FD01E90FF11D8EE082839F5F26FF06C0FE
:1002A000FD01E90FF11D8FE082839F5F37FF06C0DC
:1002B000FD01E90FF11D80E1828302C0992311F055
:1002C00082E08C9388E090E09983888380E0DF91DE
:1002D000CF911F910F910895F901808190E080FDE9
:1002E00090E181FD906882FD90648BB18F70982BB6
:1002F0009BB9089580E091E047C680E091E023D665
:100300009091E20094609093E20080FD02C090E939
:1003100001C090E68BB18F70982B9BB9089584B77C
:10032000877F84BF88E10FB6F894809360001092B5
:1003300060000FBE80E090E020E80FB6F8942093B4
:100340006100809361000FBE84B18F7184B98DB15B
:100350008F7C8DB985B1806E85B98EB180638EB981
:100360008AB1806F8AB98BB18F708BB984B114B8A0
:1003700085B18FEF85B956C1D2DF8BB18F708061A7
:100380008BB9789480E091E010D5FAD4FBCFDA01F4
:100390009330B1F0943028F4913041F0923079F5F7
:1003A0000AC0913211F1923251F524C0EBEEF0E027
:1003B00022E130E028C0EDEFF0E022E230E023C09F
:1003C000813049F0813018F08230C9F40AC0EFE181
:1003D000F1E0849103C0E3E2F1E08491282F30E062
:1003E00012C0EDE3F1E08491F9CFEFE0F1E029E014
:1003F00030E009C0ECEAF0E02FE330E004C0E0E0D8
:10040000F0E020E030E0ED93FC93C9010895382F2F
:10041000282F2EC0822F8F708093E900231721F49C
:10042000942F762F50E006C07091EC009091ED0073
:100430005091F00091FF1BC08091EB008E7F809364
:10044000EB008091ED008D7F8093ED008091EB00BB
:1004500081608093EB007093EC009093ED005093DB
:10046000F0008091EE0087FD02C080E008952F5FCC
:10047000273080F23F703093E90081E008950F93B8
:100480001F93CF93DF93062FEC0110E02AC09881D1
:10049000992329F16B81E981FA812C81892F8F7051
:1004A000873018F5223010F452E001C056E040E0E9
:1004B00028E030E003C04F5F220F331F2E173F07A5
:1004C000D0F36295660F660F607C991F9927991F7C
:1004D000692B4295407F452B9ADF882331F01F5FBF
:1004E00025961017A0F281E001C080E0DF91CF9146
:1004F0001F910F91089580911D0188239CF404C0E1
:1005000080911C018823B9F08091E80082FFF8CF28
:100510008091E8008B778093E800089580911C011A
:10052000882349F08091E80080FFF8CF8091E800AF
:100530008E778093E80008954091E4005091E500A3
:1005400024E68091EC0080FF24C08091E80080FDCB
:100550001EC080911C01882311F482E0089585302B
:1005600011F483E008958091EB0085FF02C081E0E3
:1005700008958091E4009091E5008417950709F3B0
:10058000222311F484E008952150AC01DACF80E0F9
:1005900008958091E80082FFDCCFF9CFEF92FF92BF
:1005A0000F931F934AD051D008ED10E0F8018081DD
:1005B0008F77808380818068808380818F7D808336
:1005C00019BC10921C011092180110921A0110927D
:1005D000190180EEE82EF12CF70180818B7F80835A
:1005E000F80180818160808380E060E042E00FDF7D
:1005F000E1EEF0E080818E7F8083E2EEF0E08081AA
:1006000081608083808188608083F70180818E7F14
:100610008083F8018081806180831F910F91FF901A
:10062000EF900895E7EDF0E080818160808384E0C1
:1006300082BF81E080931B01B1CFE8EDF0E08081C3
:100640008E7F80831092E20008951092DA0010925B
:10065000E10008951F920F920FB60F9211242F936D
:100660003F934F935F936F937F938F939F93AF933A
:10067000BF93EF93FF938091E10082FF0AC08091C6
:10068000E20082FF06C08091E1008B7F8093E10051
:1006900091DD8091DA0080FF1DC08091D80080FF3D
:1006A00019C08091DA008E7F8093DA008091D900A2
:1006B00080FF0CC080E189BD82E189BD09B400FEE4
:1006C000FDCF81E080931C016BDD04C019BC10924A
:1006D0001C016BDD8091E10080FF18C08091E20079
:1006E00080FF14C08091E2008E7F8093E2008091B1
:1006F000E20080618093E2008091D8008062809364
:10070000D80019BC85E080931C0139D38091E100A9
:1007100084FF2DC08091E20084FF29C080E189BD63
:1007200082E189BD09B400FEFDCF8091D8008F7DA4
:100730008093D8008091E1008F7E8093E1008091CA
:10074000E2008F7E8093E2008091E20081608093DE
:10075000E20080911801882331F48091E30087FD45
:1007600002C081E001C084E080931C0108D3809125
:10077000E10083FF22C08091E20083FF1EC08091D0
:10078000E100877F8093E10082E080931C0110925A
:1007900018018091E1008E7F8093E1008091E2005A
:1007A0008E7F8093E2008091E20080618093E2007E
:1007B00080E060E042E02BDEE2D2FF91EF91BF915A
:1007C000AF919F918F917F916F915F914F913F91E9
:1007D0002F910F900FBE0F901F9018959C01409184
:1007E0002301509124014617570718F4F90190E0AE
:1007F00045C06115710511F0AB01F8CF8091E8009B
:100800008E778093E80040E050E0F0CF80911C01AB
:10081000882309F445C0853009F444C08091E8007C
:1008200083FF02C081E008958091E80082FD32C01C
:100830008091E80080FF22C08091F3009091F20047
:10084000782F60E0292F30E0262B372B07C08191CD
:100850008093F100415050402F5F3F4F41155105AB
:1008600019F02830310598F390E02830310509F46B
:1008700091E08091E8008E778093E8004115510562
:1008800029F6992319F606C080911C01882341F0AE
:10089000853041F08091E80082FFF6CF80E0089536
:1008A00082E0089583E008959C016115710529F4A3
:1008B0008091E8008B778093E800F90127C0809150
:1008C0001C01882399F1853099F18091E80083FF1C
:1008D00002C081E008958091E80082FFF0CF06C059
:1008E0008091F10081936150704059F02091F300A4
:1008F0008091F200322F20E090E0822B932B892B05
:1009000079F78091E8008B778093E8006115710595
:10091000B1F606C080911C01882341F0853041F07A
:100920008091E80080FFF6CF80E0089582E008958E
:1009300083E008959C0140912301509124014617C2
:10094000570718F4F90190E046C06115710511F0E0
:10095000AB01F8CF8091E8008E778093E80040E00B
:1009600050E0F0CF80911C01882309F447C0853006
:1009700009F446C08091E80083FF02C081E0089539
:100980008091E80082FD34C08091E80080FF23C0A0
:100990008091F3009091F200782F60E0292F30E0F1
:1009A000262B372B08C084918093F100319641505B
:1009B00050402F5F3F4F4115510519F02830310548
:1009C00090F390E02830310509F491E08091E8003F
:1009D0008E778093E8004115510521F6992309F09F
:1009E000C1CF06C080911C01882341F0853041F0C1
:1009F0008091E80082FFF6CF80E0089582E00895BC
:100A000083E00895BF92CF92DF92EF92FF920F930F
:100A10001F93CF93DF93182F092F7B016A018CDD81
:100A2000B82E8823B1F5812F902F9C01E901C114C4
:100A3000D10439F0F60180819181E81AF90AC80FD2
:100A4000D91F00E010E022C08091E80085FD16C0AB
:100A50008091E8008E778093E80092D1C114D10490
:100A600049F0F60180819181800F911F91838083ED
:100A700085E010C061DD882349F00CC08991809326
:100A8000F1000894E108F1080F5F1F4FE114F10431
:100A9000D9F68B2DDF91CF911F910F91FF90EF90A1
:100AA000DF90CF90BF9008950F931F93DF93CF9364
:100AB000CDB7DEB7AC970FB6F894DEBF0FBECDBF93
:100AC000EDE1F1E08091F100819321E0E532F20760
:100AD000C9F710DC8091E80083FF38C180911D01C7
:100AE00030911E01353009F487C0363040F4313082
:100AF000C9F1313070F0333009F028C133C03830DB
:100B000009F4F6C0393009F405C1363009F01EC1C8
:100B100097C0803821F0823809F018C108C0909140
:100B2000190180911A01882399F0926011C0809177
:100B300021018F708093E9008091EB0090E025E027
:100B4000969587952A95E1F7982F91701092E90074
:100B50008091E800877F8093E8009093F1001092E5
:100B6000F100D1C0882319F0823009F0EFC090E085
:100B70008F719070009721F0029709F0E7C00CC0C8
:100B800080911F01813009F0E1C010921A013330C9
:100B900069F580931A012AC080911F01882331F5DD
:100BA000209121012F7009F4D1C02093E900809198
:100BB000EB0080FF1BC0333021F48091EB0080629A
:100BC00013C08091EB0080618093EB0081E090E0A6
:100BD00002C0880F991F2A95E2F78093EA001092CD
:100BE000EA008091EB0088608093EB001092E900AE
:100BF0008091E800877F8AC0882309F0A7C0109100
:100C00001F011F770FB7F8948091E800877F8093CA
:100C1000E80071DC8091E80080FFFCCF8091E30068
:100C20008078812B8093E30080688093E300112318
:100C300011F482E001C083E080931C010FBF86C0E5
:100C40008058823008F082C080911F01909120016D
:100C500023E08C3D920709F033C083E08C838AE265
:100C60008B837FB7F894DE0115966EE040E050E08C
:100C700011E2E62FF0E010935700849140FF03C08B
:100C800082958F706F5F8F70282F30E08A3018F058
:100C9000C901C79602C0C901C0968D939D934F5F4D
:100CA0005F4F4431510529F77FBF8091E800877F6E
:100CB0008093E800CE0103966AE270E08FDD12C0F7
:100CC00060912101AE014F5F5F4F61DBBC01009776
:100CD00009F43CC08091E800877F8093E800898117
:100CE0009A8128DE8091E8008B778093E8002EC0FF
:100CF000803861F58091E800877F8093E8008091DB
:100D000018018093F1008091E8008E778093E800CD
:100D1000F2DB1CC08823D1F490911F019230B0F413
:100D20008091E800877F8093E80090931801E3DBCF
:100D300080911801882331F48091E30087FD02C07F
:100D400081E001C084E080931C01D7DA8091E80043
:100D500083FF0AC08091EB0080628093EB0080915A
:100D6000E800877F8093E800AC960FB6F894DEBF6A
:100D70000FBECDBFCF91DF911F910F9108950895C0
:100D80001F9380911C01882371F01091E9008091DC
:100D9000EC001092E9008091E80083FF01C084DE3E
:100DA0001F701093E9001F9108954F925F926F9208
:100DB0007F928F929F92AF92BF92CF92DF92EF92EB
:100DC000FF920F931F93DF93CF9300D00F92CDB775
:100DD000DEB77C016DB67EB680911C01843009F0CF
:100DE00099C02091E4003091E500F7018285938558
:100DF0008217930709F48EC081818F708093E90078
:100E00008091E80085FF86C05DB64EB6408550E013
:100E10008DB79EB7841B950B0FB6F8949EBF0FBE7F
:100E20008DBF0DB71EB70F5F1F4F19821B821A822D
:100E3000C02E912EC80160E070E050E0FED1C701E5
:100E4000BE016F5F7F4F40E098018E010E5F1F4F24
:100E5000BDD9882EF70184859585892B19F4AA249C
:100E6000BB240BC020E0F70186859785892B09F00C
:100E700021E081E02827A22EBB24F70106811781FB
:100E80000115110511F4DD2412C04A815B818C2DFE
:100E9000992DB801BCD1DD24009711F0DD24D39445
:100EA000F7014085C8016C2D792D50E0BDD18A81B4
:100EB0009B81892B01F1882021F4DD2011F4AB28DE
:100EC000D1F0F701848595859787868781818F701A
:100ED0008093E9008981882311F08093F1006A8171
:100EE0007B818C2D992D40E050E08CDD8091E800D5
:100EF0008E778093E8008091E4009091E500F701FF
:100F000093878287252D342DC9010FB6F8949EBF93
:100F10000FBE8DBF0FB6F8947EBE0FBE6DBE0F9094
:100F20000F900F90CF91DF911F910F91FF90EF9055
:100F3000DF90CF90BF90AF909F908F907F906F90F9
:100F40005F904F900895CF93DF93DC010996FC01E9
:100F500087E0EF0119928A95E9F781E019968C9361
:100F6000199784EF91E01D969C938E931C9783E0D4
:100F700014968C931497CD01019661E080DA81116B
:100F800081E0DF91CF9108956F927F928F929F922F
:100F9000AF92BF92CF92DF92EF92FF920F931F9387
:100FA000DF93CF9300D00F92CDB7DEB76C016DB653
:100FB0007EB68091E80083FF13C1F601808190E046
:100FC00020912101309122012817390709F008C129
:100FD00080911E01833009F4ABC0843030F481303D
:100FE00071F0823009F0FCC0DFC08A3009F4C4C05F
:100FF0008B3009F4AEC0893009F0F2C056C0809140
:101000001D01813A09F0ECC09DB68EB61B821A8292
:1010100080911F01109120018983F601408550E0E5
:101020008DB79EB7841B950B0FB6F8949EBF0FBE6D
:101030008DBFEDB6FEB60894E11CF11CBE2CAF2CA2
:10104000C70160E070E050E0F8D01150C601BE0169
:101050006F5F7F4F412F97018E010E5F1F4FB6D8F4
:10106000F601268137812115310529F04085C90116
:10107000B70150E0D9D01092E9008091E800877F55
:101080008093E8006A817B818B2D9A2DA7DB80916C
:10109000E8008B778093E800292D382DC9010FB621
:1010A000F8949EBF0FBE8DBF9BC080911D01813201
:1010B00009F096C09DB68EB60091230110912401CF
:1010C000A0901F01B09020018DB79EB7801B910B9F
:1010D0000FB6F8949EBF0FBE8DBFEDB6FEB6089456
:1010E000E11CF11C8091E800877F8093E800C70134
:1010F000B801DADB8091E8008E778093E80080E029
:1011000090E0AA2011F081E090E0BA94E80EF91E78
:10111000081B190BC6016A2D4B2D9701DDD8892DAF
:10112000982D9C010FB6F8943EBF0FBE2DBF58C03E
:1011300080911D01813A09F053C08091E800877FBA
:101140008093E8008091E80080FFFCCFF601818564
:101150003FC080911D01813209F042C08091E800BA
:10116000877F8093E800C7D990E080911F018111AB
:1011700091E0F601918734C080911D01813281F5A3
:101180008091E800877F8093E800B5D980911F01A6
:1011900090912001807036E0969587953A95E1F719
:1011A000F601958784871CC080911D01813AC1F4A6
:1011B0008091E800877F8093E8008091E80080FFBD
:1011C000FCCFF601848595859695879596958795AC
:1011D0008093F1008091E8008E778093E8008BD9AE
:1011E0000FB6F8947EBE0FBE6DBE0F900F900F909D
:1011F000CF91DF911F910F91FF90EF90DF90CF90F3
:10120000BF90AF909F908F907F906F900895FB015B
:10121000DC0104C08D910190801921F441505040AF
:10122000C8F7881B990B0895FB01DC0102C00190EF
:101230000D9241505040D8F70895DC0101C06D93E4
:0C12400041505040E0F70895F894FFCFB3
:10124C0000810800000110010800000000000000EF
:00000001FF
