:100000000C9456000C9460000C9460000C946000FA
:100010000C9460000C9460000C9460000C946000E0
:100020000C9460000C9460000C9460000C946000D0
:100030000C9460000C9460000C9460000C946000C0
:100040000C9460000C9460000C9460000C946000B0
:100050000C9460000C9460000C9460000C946000A0
:100060000C9460000C9460000C9460000C94600090
:100070000C9460000C9460000C9460000C94600080
:100080000C9460000C9460000C9460000C94600070
:100090000C9460000C9460000C9460000C94600060
:1000A0000C9460000C9460000C94600011241FBE3E
:1000B000CFEFDAE0DEBFCDBF0E9480000C94850058
:1000C0000C940000E1E6F0E080E88083108284E098
:1000D00084B9089584E085B92FEF89E698E121502D
:1000E00080409040E1F700C0000015B82FEF83ED8D
:1000F00090E3215080409040E1F700C00000089557
:0E0100000E9462000E946A00FDCFF894FFCFBB
:00000001FF
