:100000000C9456000C9460000C9460000C946000FA
:100010000C9460000C9460000C9460000C946000E0
:100020000C9460000C9460000C9460000C946000D0
:100030000C9460000C9460000C9460000C946000C0
:100040000C9460000C9460000C9460000C946000B0
:100050000C9460000C9460000C9460000C946000A0
:100060000C9460000C9460000C9460000C94600090
:100070000C9460000C9460000C9460000C94600080
:100080000C9460000C9460000C9460000C94600070
:100090000C9460000C9460000C9460000C94600060
:1000A0000C9460000C9460000C94600011241FBE3E
:1000B000CFEFDAE0DEBFCDBF0E9480000C948A0053
:1000C0000C940000E1E6F0E080E88083108284E098
:1000D00084B9089584E085B980E197E220E931E0B0
:1000E000F9013197F1F70197D9F715B880E197E257
:1000F00020E931E0F9013197F1F70197D9F7089537
:1001000080E8809361001092610084E084B90E94CD
:080110006A00FDCFF894FFCF57
:00000001FF
