:100000000C94E7030C9480090C94A7090C94CE0976
:100010000C94310A0C94940A0C940F040C940F0461
:100020000C940F040C940F040C940F040C940F0404
:100030000C940F040C94E9340C940F040C940F04EA
:100040000C940F180C940F040C94A2130C94D1135D
:100050000C940F040C94F0040C940F040C940F04F3
:100060000C9453380C940F0490399639963996397C
:10007000963996399639963984389639963996391B
:10008000963996399639963984389639963996390B
:1000900096399639963996398E38963996399639F1
:1000A0009639963996399639BA38963996399639B5
:1000B00096399639963996398E38963996399639D1
:1000C0009639963996399639C0389639963996398F
:1000D0009639963996399639C63896399639963979
:1000E0009639963996399639DC3896399639963953
:1000F00096399639963996390C3996399639963912
:100100009639963996399639CC3896399639963942
:100110009639963996399639EA3896399639963914
:1001200096399639963996390F39963996399639DE
:1001300096399639963996390F39963996399639CE
:1001400096399639963996390F39963996399639BE
:1001500096399639963996390F39963996399639AE
:100160009639963996399639183996399639963995
:10017000963996399639963952399639963996394B
:100180009639963996399639183996399639963975
:10019000963996399639963952399639963996392B
:1001A0009639963996399639343996399639963939
:1001B0009639963996399639563996399639963907
:1001C00096399639963996395639963996399639F7
:1001D00096399639963996396C39963996399639D1
:1001E00096399639963996398A39963996399639A3
:1001F00096399639963996398A3996399639963993
:100200009639963996399639963996399639963976
:100210009639963996399639963996399639963966
:100220009639963996399639963996399639963956
:100230009639963996399639963996399639963946
:100240009639963996399639963996399639963936
:100250009639963996399639953900010203040585
:100260000607000102030405000102030405000063
:100270000000240027002A000000000025002800BC
:100280002B000000000023002600290004040404C1
:100290000404040402020202020203030303030330
:1002A000010204081020408001020408102001020D
:1002B00004081020000000080002010000030407E9
:1002C000000000000000000000000000003E5B4F46
:1002D0005B3E3E6B4F6B3E1C3E7C3E1C183C7E3CA6
:1002E000181C577D571C1C5E7F5E1C00183C1800B4
:1002F000FFE7C3E7FF0018241800FFE7DBE7FF3044
:10030000483A060E2629792926407F050507407FB1
:1003100005253F5A3CE73C5A7F3E1C1C08081C1C24
:100320003E7F14227F22145F5F005F5F06097F011A
:100330007F006689956A606060606094A2FFA29405
:1003400008047E040810207E201008082A1C0808D3
:100350001C2A08081E101010100C1E0C1E0C303821
:100360003E3830060E3E0E06000000000000005F22
:1003700000000007000700147F147F14242A7F2A3E
:100380001223130864623649562050000807030000
:10039000001C2241000041221C002A1C7F1C2A084C
:1003A000083E0808008070300008080808080000AF
:1003B00060600020100804023E5149453E00427F23
:1003C000400072494949462141494D331814127F72
:1003D0001027454545393C4A494931412111090712
:1003E0003649494936464949291E00001400000093
:1003F0004034000000081422411414141414004165
:1004000022140802015909063E415D594E7C121121
:10041000127C7F494949363E414141227F41414159
:100420003E7F494949417F090909013E41415173D4
:100430007F0808087F00417F41002040413F017F45
:10044000081422417F404040407F021C027F7F040D
:1004500008107F3E4141413E7F090909063E415156
:10046000215E7F09192946264949493203017F0146
:10047000033F4040403F1F2040201F3F4038403F47
:10048000631408146303047804036159494D43005D
:100490007F4141410204081020004141417F040294
:1004A000010204404040404000030708002054542B
:1004B00078407F2844443838444444283844442809
:1004C0007F385454541800087E090218A4A49C785C
:1004D0007F0804047800447D40002040403D007FB8
:1004E0001028440000417F40007C047804787C0898
:1004F0000404783844444438FC182424181824246C
:1005000018FC7C08040408485454542404043F4450
:10051000243C4040207C1C2040201C3C4030403C7F
:1005200044281028444C9090907C4464544C4400DF
:100530000836410000007700000041360800020143
:100540000204023C2623263C1EA1A161123A40402F
:10055000207A3854545559215555794122545478AC
:1005600042215554784020545579400C1E52721245
:1005700039555555593954545459395554545800CE
:1005800000457C410002457D420001457C407D12D2
:1005900011127DF0282528F07C5455450020545434
:1005A0007C547C0A097F4932494949323A444444DF
:1005B0003A324A4848303A4141217A3A424020781A
:1005C000009DA0A07D3D4242423D3D4040403D3C1B
:1005D00024FF2424487E4943662B2FFC2F2BFF0940
:1005E00029F620C0887E0903205454794100004434
:1005F0007D413048484A32384040227A007A0A0A1F
:10060000727D0D19317D2629292F28262929292691
:1006100030484D4020380808080808080808382FD6
:1006200010C8ACBA2F102834FA00007B0000081460
:100630002A142222142A14085500550055AA55AA36
:1006400055AAFF55FF55FF000000FF00101010FFD6
:1006500000141414FF001010FF00FF1010F010F031
:10066000141414FC001414F700FF0000FF00FF1422
:1006700014F404FC141417101F10101F101F14146E
:10068000141F00101010F0000000001F10101010B8
:100690001F10101010F010000000FF1010101010AC
:1006A00010101010FF10000000FF140000FF00FFEA
:1006B00000001F10170000FC04F414141710171486
:1006C00014F404F40000FF00F714141414141414A8
:1006D000F700F7141414171410101F101F1414141B
:1006E000F4141010F010F000001F101F0000001F85
:1006F00014000000FC140000F010F01010FF10FFB8
:10070000141414FF141010101F00000000F010FF4C
:10071000FFFFFFFFF0F0F0F0F0FFFFFF0000000030
:1007200000FFFF0F0F0F0F0F3844443844FC4A4AB4
:100730004A347E02020606027E027E026355494169
:10074000633844443C04407E201E2006027E0202A0
:1007500099A5E7A5991C2A492A1C4C7201724C30B4
:100760004A4D4D303048784830BC625A463D3E498B
:100770004949007E0101017E2A2A2A2A2A44445F2F
:10078000444440514A444040444A51400000FF0123
:1007900003E080FF000008086B6B08361236243631
:1007A000060F090F06000018180000001010003096
:1007B00040FF0101001F01011E00191D1712003C1E
:1007C0003C3C3C0000000000570D4C14E336112463
:1007D0001FBECFEFD8E0DEBFCDBF13E0A0E0B1E099
:1007E000ECECF4E702C005900D92AE3FB107D9F7EB
:1007F00026E0AEEFB3E001C01D92A930B207E1F7E9
:1008000013E0C7EED3E004C02197FE010E942F3A07
:10081000C43ED107C9F70E944A0D0C94643A0C9467
:100820000000CF92DF92EF92FF920F931F930E94EE
:100830008218009138041091390420913A043091C3
:100840003B046B017C01C01AD10AE20AF30A4DE2B3
:10085000C41641E0D406E104F104E0F020918104E3
:10086000211114C021E0209381040091770410919C
:1008700078042091790430917A04009382041093D3
:100880008304209384043093850404C0213011F440
:1008900010928104609338047093390480933A0471
:1008A00090933B041F910F91FF90EF90DF90CF90BA
:1008B0000895CF92DF92EF92FF920F931F930E94C1
:1008C000821800912C0410912D0420912E04309157
:1008D0002F046B017C01C01AD10AE20AF30A4DE22F
:1008E000C41641E0D406E104F104E8F100910601E8
:1008F000109107012091080130910901083E134031
:100900002105310529F400E117E220E030E023C0A1
:100910000091060110910701209108013091090111
:10092000003117422105310529F400EA16E821E0DB
:1009300030E011C0009106011091070120910801DB
:1009400030910901003A16482140310561F408EE62
:1009500013E020E030E0009306011093070120939C
:1009600008013093090160932C0470932D04809347
:100970002E0490932F041F910F91FF90EF90DF9022
:10098000CF9008950E9482186093300470933104D0
:10099000809332049093330408959FB7F894209184
:1009A000410580914305213019F48DBB9FBF089507
:1009B0008FBF089510927C00EAE7F0E080818068A4
:1009C0008083808180628083808188608083808151
:1009D0008160808310927B00808180648083089591
:1009E0001F920F920FB60F921124CF92DF92EF92C7
:1009F000FF922F933F934F935F936F937F938F93C8
:100A00009F93AF93BF93EF93FF936091780070E053
:100A100080E090E00E94790E6B017C016093960467
:100A2000709397048093980490939904609179004F
:100A300070E0762F6627072E000C880B990B0E941A
:100A40007B0EA70196010E94650D6093960470933A
:100A50009704809398049093990420917C0022300D
:100A600011F160F42223B9F0213079F50E94430E90
:100A7000709395046093940482E01CC02330E9F0E5
:100A8000263019F50E94430E70938F0460938E04F4
:100A900010927C001AC00E94430E70938D046093E4
:100AA0008C0481E007C00E94430E7093930460930E
:100AB000920483E080937C0008C00E94430E7093F0
:100AC00091046093900486E0F5CF80917A00806471
:100AD00080937A00FF91EF91BF91AF919F918F9199
:100AE0007F916F915F914F913F912F91FF90EF9088
:100AF000DF90CF900F900FBE0F901F901895209110
:100B00004105222399F04FB7F894209141052130F7
:100B100059F42DB3209343053DB320914205209510
:100B200023232DBB4FBF02C0409343058CBD9DBD09
:100B300008958EBD00000DB407FEFDCF8EB508955B
:100B40000CB405FC0DC09EBD00000DB407FEFDCF2A
:100B50009EB58EBD00000DB407FEFDCF8EB5089585
:100B60008EBD00000DB407FEFDCF8EB59EBD00000A
:100B70000DB407FEFDCF9EB50895CF93DF93D82F18
:100B8000C62F88E590E00E947F0560E089E00E9422
:100B9000521B8D2F0E9499058C2F0E94990561E0B0
:100BA00089E00E94521B80914105882321F0DF914A
:100BB000CF910C94CD04DF91CF910895CF92DF9225
:100BC000EF92FF920E9482186B017C0180913404A5
:100BD00090913504A0913604B0913704A701960195
:100BE000281B390B4A0B5B0BDA01C9018D3291408E
:100BF000A105B10508F442C080918704811104C0A9
:100C000081E08093870420C08130D1F482E080931A
:100C1000870480E090E0A0E8BFE380930201909316
:100C20000301A0930401B093050149E06EE170E077
:100C300081E190E00E94BD0549E06AE070E01AC0E1
:100C40008230E1F41092870480E090E0A0E8BFE3F6
:100C50008093020190930301A0930401B0930501D6
:100C600049E06FEF70E081E190E00E94BD0549E04E
:100C700067E570E082E190E00E94BD05C092340417
:100C8000D0923504E0923604F0923704FF90EF9052
:100C9000DF90CF90089561E08DE00E94521B60E0EC
:100CA0008BE00E94521B61E08AE00E94521B60E0D0
:100CB0008AE00E94521B88E590E00E947F058091A7
:100CC000880490918904A0918A04B0918B040E94B9
:100CD000A0058091410581110E94CD0461E08AE068
:100CE0000E94521B60E08BE00C94521B0F931F93E9
:100CF000CF93DF930E947B0E20E030E040E85DE47C
:100D00000E94070F20E23CEB4EEB5BE40E94D10D0A
:100D10000E94430EEB01CC0FDD1FCC0FDD1FD695DB
:100D2000C795D695C7950091140110911501C02B58
:100D3000D12BDC01CB014EE0B595A7959795879512
:100D40004A95D1F7082B192B80917F04909180044C
:100D5000092E000CAA0BBB0B809388049093890486
:100D6000A0938A04B0938B040E944B068091870461
:100D7000811105C080E090E2A0E0B0E00DC08130BC
:100D800029F482E090E2A0E0B0E006C0823061F495
:100D900088E690E2A0E0B0E0809388049093890414
:100DA000A0938A04B0938B040E944B06CE01A0E06E
:100DB000B0E08093880490938904A0938A04B09350
:100DC0008B040E944B06C801A0E0B0E08093880429
:100DD00090938904A0938A04B0938B04DF91CF9100
:100DE0001F910F910C944B064F925F92AF92BF925E
:100DF000CF92DF92EF92FF920F931F93CF930091C8
:100E000006011091070120910801309109014090DD
:100E1000940450909504B201550C880B990B3F93A4
:100E20002F931F930F93A12CB12C6501A394E12C58
:100E3000F12C870120E034E040E050E00E94DB1B11
:100E400060937B0470937C0480937D0490937E0474
:100E500000910601109107012091080130910901CC
:100E60004090920450909304B201550C880B990B5A
:100E70003F932F931F930F93E12CF12C870120E0D8
:100E800034E040E050E00E94DB1B609377047093F5
:100E900078048093790490937A048DB79EB708966E
:100EA0000FB6F8949EBF0FBE8DBFC0918104C130B4
:100EB00009F017C160918C0470918D04072E000C0D
:100EC000880B990B209113012F93209112012F93DE
:100ED000209111012F93209110012F93E12C14E008
:100EE000F12E00E010E020E030E0A9010E94DB1BC1
:100EF000DC01CB01F3E0880F991FAA1FBB1FFA95F5
:100F0000D1F70F900F900F900F90009721E0A2075C
:100F1000B10518F4C093460542C0009728E0A20727
:100F2000B10558F422E02093460553E0B695A79505
:100F3000979587955A95D1F732C0009720E4A2077C
:100F4000B10558F423E02093460546E0B695A795F1
:100F5000979587954A95D1F722C00097A10521E082
:100F6000B20740F424E020934605892F9A2FAB2F37
:100F7000BB2715C00097A10524E0B20758F425E06F
:100F8000209346052AE0B695A795979587952A95CB
:100F9000D1F705C085E0809346058FEF9FEF9093D2
:100FA00045058093440580914405909145059093B3
:100FB0008700809386008091460580618093810040
:100FC00040917704509178046091790470917A048B
:100FD00080917B0490917C04A0917D04B0917E046B
:100FE000481759076A077B0724F18091770490918D
:100FF0007804A0917904B0917A040297A105B10513
:1010000064F080917B0490917C04A0917D04B09168
:101010007E040197A109B10904C081E090E0A0E03D
:10102000B0E08093770490937804A0937904B09310
:101030007A04209186048091820490918304A09187
:101040008404B0918504211115C040917B04509116
:101050007C0460917D0470917E0484179507A60737
:10106000B70724F40196A11DB11D16C081E080933D
:1010700086041DC02130D9F4409177045091780442
:101080006091790470917A04481759076A077B07C1
:1010900064F40197A109B1098093820490938304B9
:1010A000A0938404B093850402C0109286046091DA
:1010B00082047091830480918404909185040E943D
:1010C00076068091820490918304A0918404B0916B
:1010D00085048093730490937404A0937504B09373
:1010E00076048091810481112DC080917B049091C0
:1010F0007C04A0917D04B0917E040197A109B109FF
:101100008093770490937804A0937904B0937A0441
:1011100060917B0470917C0480917D0490917E04A9
:101120000E94760680917B0490917C04A0917D04BE
:10113000B0917E048093730490937404A09375041B
:10114000B0937604CF911F910F91FF90EF90DF90B5
:10115000CF90BF90AF905F904F9008950C94F4069D
:10116000E82FEF7787FD05C08EEF8E0F823008F4F1
:101170009AC08E2F90E0FC01E056FD4F2491FC01B7
:10118000E457FD4F3491542F5D7F5130B9F4323024
:1011900031F450914404522B509344040FC0333027
:1011A00031F450914104522B5093410407C0343024
:1011B00029F450913E04522B50933E04415042304A
:1011C000B8F4323031F440914304422B409343044D
:1011D0000FC0333031F440914004422B409340041F
:1011E00007C0343029F440913D04422B40933D0424
:1011F000FC01E65AFD4FA4913230C1F4B0E0AA0FD1
:10120000BB1FAF59BB4F6D937C93E6E8F2E0A5910D
:10121000B4918C91809342048BE690E09093720499
:101220008093710480916800816033C03330C1F4D1
:10123000B0E0AA0FBB1FAB5ABB4F6D937C93E8E89D
:10124000F2E0A591B4918C9180933F048CE690E0FC
:10125000909372048093710480916800826019C039
:101260003430C9F4B0E0AA0FBB1FAB5BBB4F6D932A
:101270007C93EAE8F2E0A591B4918C9180933C04D0
:101280008DE690E0909372048093710480916800E1
:10129000846080936800A0917104B0917204EC9115
:1012A0002E2B2C9308959FB7F894E23099F4709305
:1012B0006E0460936D04E898809169008C7F809340
:1012C000690080916900482B40936900E09AE89A90
:1012D0009FBF08957093700460936F04E9988091A4
:1012E0006900837F809369008091690024E0429FB8
:1012F000A0011124482B40936900E19AE99AE8CFB4
:101300001F920F920FB60F9211242F933F934F937A
:101310005F936F937F938F939F93AF93BF93EF935D
:10132000FF93E0916D04F0916E040995FF91EF91A8
:10133000BF91AF919F918F917F916F915F914F91ED
:101340003F912F910F900FBE0F901F9018951F92F5
:101350000F920FB60F9211242F933F934F935F93E9
:101360006F937F938F939F93AF93BF93EF93FF936D
:10137000E0916F04F09170040995FF91EF91BF9196
:10138000AF919F918F917F916F915F914F913F911D
:101390002F910F900FBE0F901F9018951F920F92D4
:1013A0000FB60F9211242F933F934F935F936F9338
:1013B0007F938F939F93AF93BF93CF93EF93FF93BD
:1013C00023B1C09142048091440490914304322F90
:1013D000309593238223892B90916B00C227C923D8
:1013E000C82320934204CC2351F1C0FF05C0E091F3
:1013F0006104F09162040995C1FF05C0E0916304A6
:10140000F09164040995C2FF05C0E0916504F09174
:1014100066040995C3FF05C0E0916704F091680474
:101420000995C4FF05C0E0916904F0916A0409952B
:10143000C5FF05C0E0916B04F0916C040995FF9124
:10144000EF91CF91BF91AF919F918F917F916F91CC
:101450005F914F913F912F910F900FBE0F901F9072
:1014600018951F920F920FB60F9211242F933F934E
:101470004F935F936F937F938F939F93AF93BF939C
:10148000CF93EF93FF9326B1C0913F048091410425
:1014900090914004322F309593238223892B909191
:1014A0006C00C227C923C82320933F04CC2351F1E9
:1014B000C0FF05C0E0915504F09156040995C1FFA5
:1014C00005C0E0915704F09158040995C2FF05C08A
:1014D000E0915904F0915A040995C3FF05C0E091C9
:1014E0005B04F0915C040995C4FF05C0E0915D04C4
:1014F000F0915E040995C5FF05C0E0915F04F0918D
:1015000060040995FF91EF91CF91BF91AF919F91A9
:101510008F917F916F915F914F913F912F910F909C
:101520000FBE0F901F9018951F920F920FB60F923B
:1015300011242F933F934F935F936F937F938F93D8
:101540009F93AF93BF93CF93EF93FF9329B1C09134
:101550003C0480913E0490913D04322F30959323BA
:101560008223892B90916D00C227C923C823209321
:101570003C04CC23C1F1C0FF05C0E0914504F091CB
:1015800046040995C1FF05C0E0914704F091480465
:101590000995C2FF05C0E0914904F0914A040995FC
:1015A000C3FF05C0E0914B04F0914C040995C4FFC2
:1015B00005C0E0914D04F0914E040995C5FF05C0AA
:1015C000E0914F04F09150040995C6FF05C0E091E9
:1015D0005104F09152040995C7FF05C0E0915304EE
:1015E000F09154040995FF91EF91CF91BF91AF9184
:1015F0009F918F917F916F915F914F913F912F912B
:101600000F900FBE0F901F90189541E061E174E0BC
:1016100082E00E94B00841E06EED75E083E00E9438
:10162000B00841E069E574E085E00E94B00841E05F
:1016300062EC74E086E00C94B00821E04CE362E0D8
:101640008EEF93E00E94342B8EEF93E00E94EE2DFC
:101650008EEF93E00C94DF2ECF93DF93EB01682F96
:101660008EEF93E00E940128BE018EEF93E0DF91A0
:10167000CF910C941B288EEF93E00E94DF2E40E068
:1016800050E060E070E08EEF93E00C94DC278091F6
:10169000730490917404A0917504B0917604883E0F
:1016A0009340A105B105DCF060917304709174045E
:1016B00080917504909176040E947B0E20E030E0CA
:1016C0004AE754E40E94D10DAB01BC0122E030E0B6
:1016D0008EEF93E00E9407166AE373E010C040911A
:1016E00073045091740460917504709176042AE03B
:1016F00030E08EEF93E00E9454156BE373E08EEFC1
:1017000093E00C94D7148091770490917804A09181
:101710007904B0917A04883E9340A105B105DCF0CC
:1017200060917704709178048091790490917A04A3
:101730000E947B0E20E030E04AE754E40E94D10D85
:10174000AB01BC0122E030E08EEF93E00E9407166F
:101750006AE373E010C0409177045091780460917F
:10176000790470917A042AE030E08EEF93E00E94D1
:1017700054156BE373E08EEF93E00C94D7148091D3
:101780007B0490917C04A0917D04B0917E04883EFE
:101790009340A105B105DCF060917B0470917C045D
:1017A00080917D0490917E040E947B0E20E030E0C9
:1017B0004AE754E40E94D10DAB01BC0122E030E0C5
:1017C0008EEF93E00E9407166AE373E010C0409129
:1017D0007B0450917C0460917D0470917E042AE02A
:1017E00030E08EEF93E00E9454156BE373E08EEFD0
:1017F00093E00C94D7140E943B0B61E070E081E011
:1018000090E00E942C0B40E050E060E070E08EEF32
:1018100093E00E94DC2780918704811103C06EE36E
:1018200073E009C0823019F463E473E004C08130CE
:1018300031F466E473E08EEF93E00E94D714809158
:10184000810481111FC06AE473E08EEF93E00E946F
:10185000D714409100015091010164E170E08EEFD6
:1018600093E00E94DC2761E070E082E090E00E945B
:101870002C0B0E94470B61E070E081E090E00E9439
:101880002C0B40C062E573E08EEF93E00E94D7140A
:1018900069E573E08EEF93E00E94D71460918C04A9
:1018A00070918D044AE050E08EEF93E00E940B159A
:1018B000409100015091010164E170E08EEF93E0EE
:1018C0000E94DC2761E070E082E090E00E942C0B37
:1018D0000E94470B61E070E081E090E00E942C0BD9
:1018E00049E150E060E070E08EEF93E00E94DC2779
:1018F0000E94830B6FE573E08EEF93E00E94D71494
:101900000E94BF0B8EEF93E00C94EE2D26E040E892
:1019100055E260E070E08AE994E00E94F50F809162
:101920000C0190910D01A0910E01B0910F0120E1E9
:10193000209381001092800063E0880F991FAA1FF6
:10194000BB1F6A95D1F7009721E0A207B10520F4EB
:1019500021E02093460542C0009728E0A207B10588
:1019600058F422E02093460553E0B695A795979545
:1019700087955A95D1F732C0009720E4A207B105A8
:1019800058F423E02093460546E0B695A795979531
:1019900087954A95D1F722C00097A10521E0B207AB
:1019A00040F424E020934605892F9A2FAB2FBB27C4
:1019B00015C00097A10524E0B20758F425E0209354
:1019C00046052AE0B695A795979587952A95D1F76C
:1019D00005C085E0809346058FEF9FEF9093450506
:1019E000809344058091440590914505909387002C
:1019F00080938600809146058061809381008EEA05
:101A000098E0909348058093470581E080936F00AC
:101A10000E94050B0E94DA040E941D0B61E089E020
:101A20000E94281A61E089E00E94521B61E08AE06E
:101A30000E94281A61E08AE00E94521B0E946534CD
:101A400049E06FEF70E081E190E00E94BD0549E060
:101A50006EE170E081E190E00E94BD0549E06FEF2A
:101A600070E081E190E00E94BD0549E067E570E02B
:101A700082E190E00E94BD0549E06AE070E082E109
:101A800090E00E94BD0549E067E570E082E190E0EA
:101A90000C94BD050E9475190E94860CC4E7DFE016
:101AA0000E94FB0B2097E1F30E94740FF9CF809105
:101AB0000A0190910B019093800480937F0464E06D
:101AC0008EEF93E00C94F32A5058BB27AA270E946C
:101AD0007C0D0C94CD0E0E94BF0E38F00E94C60EF5
:101AE00020F039F49F3F19F426F40C94BC0E0EF448
:101AF000E095E7FB0C94B60EE92F0E94DE0E58F33A
:101B0000BA17620773078407950720F079F4A6F5E2
:101B10000C94000F0EF4E0950B2EBA2FA02D0B01A4
:101B2000B90190010C01CA01A0011124FF27591B22
:101B300099F0593F50F4503E68F11A16F040A22F28
:101B4000232F342F4427585FF3CF46953795279599
:101B5000A795F0405395C9F77EF41F16BA0B620B98
:101B6000730B840BBAF09150A1F0FF0FBB1F661FDF
:101B7000771F881FC2F70EC0BA0F621F731F841F22
:101B800048F4879577956795B795F7959E3F08F048
:101B9000B0CF9395880F08F09927EE0F979587950A
:101BA00008950E94E50D0C94CD0E0E94C60E58F0CB
:101BB0000E94BF0E40F029F45F3F29F00C94B60E4E
:101BC00051110C94010F0C94BC0E0E94DE0E68F3B0
:101BD0009923B1F3552391F3951B550BBB27AA27E6
:101BE00062177307840738F09F5F5F4F220F331F20
:101BF000441FAA1FA9F335D00E2E3AF0E0E832D0E8
:101C000091505040E695001CCAF72BD0FE2F29D0EA
:101C1000660F771F881FBB1F261737074807AB07BC
:101C2000B0E809F0BB0B802DBF01FF2793585F4F31
:101C30003AF09E3F510578F00C94B60E0C94010FCB
:101C40005F3FE4F3983ED4F3869577956795B79513
:101C5000F7959F5FC9F7880F911D9695879597F91E
:101C60000895E1E0660F771F881FBB1F6217730797
:101C70008407BA0720F0621B730B840BBA0BEE1FAC
:101C800088F7E09508950E944A0E6894B1110C946B
:101C9000010F08950E94E60E88F09F5798F0B92F23
:101CA0009927B751B0F0E1F0660F771F881F991F91
:101CB0001AF0BA95C9F714C0B13091F00E94000F24
:101CC000B1E008950C94000F672F782F8827B85F34
:101CD00039F0B93FCCF3869577956795B395D9F7E9
:101CE0003EF490958095709561957F4F8F4F9F4FF3
:101CF0000895E89409C097FB3EF4909580957095FF
:101D000061957F4F8F4F9F4F9923A9F0F92F96E947
:101D1000BB279395F695879577956795B795F111BC
:101D2000F8CFFAF4BB0F11F460FF1BC06F5F7F4F59
:101D30008F4F9F4F16C0882311F096E911C077236B
:101D400021F09EE8872F762F05C0662371F096E874
:101D5000862F70E060E02AF09A95660F771F881F43
:101D6000DAF7880F9695879597F9089597F99F6701
:101D700080E870E060E008959FEF80EC0895002413
:101D80000A941616170618060906089500240A94E0
:101D900012161306140605060895092E0394000C66
:101DA00011F4882352F0BB0F40F4BF2B11F460FFF5
:101DB00004C06F5F7F4F8F4F9F4F089557FD90581E
:101DC000440F551F59F05F3F71F04795880F97FBFF
:101DD000991F61F09F3F79F08795089512161306B9
:101DE0001406551FF2CF4695F1DF08C016161706E8
:101DF0001806991FF1CF869571056105089408951D
:101E0000E894BB2766277727CB0197F908950E94AE
:101E10001A0F0C94CD0E0E94BF0E38F00E94C60E11
:101E200020F0952311F00C94B60E0C94BC0E1124E6
:101E30000C94010F0E94DE0E70F3959FC1F3950F75
:101E400050E0551F629FF001729FBB27F00DB11D3E
:101E5000639FAA27F00DB11DAA1F649F6627B00DCE
:101E6000A11D661F829F2227B00DA11D621F739FB7
:101E7000B00DA11D621F839FA00D611D221F749FC5
:101E80003327A00D611D231F849F600D211D822F0C
:101E9000762F6A2F11249F5750409AF0F1F0882333
:101EA0004AF0EE0FFF1FBB1F661F771F881F915060
:101EB0005040A9F79E3F510580F00C94B60E0C944B
:101EC000010F5F3FE4F3983ED4F3869577956795CD
:101ED000B795F795E7959F5FC1F7FE2B880F911D8A
:101EE0009695879597F90895CF93DF93CDB7DEB791
:101EF00080E094E1892B51F080E090E0892B31F073
:101F00000E940014882311F081E001C080E0882342
:101F100011F00E9400000000DF91CF910895CF934F
:101F2000DF9300D01F92CDB7DEB79B838A838A816F
:101F30009B81FC01848D882F90E02A813B81820F58
:101F4000931F835A9F4FFC01808189838A819B81E3
:101F5000FC01848D882F90E001968F7390789923EF
:101F600024F40197806C9F6F0196282F8A819B81B2
:101F7000FC01248F8A819B81FC01868997892981B4
:101F8000FC0120838A819B81FC01808991892A81BF
:101F90003B81F90120893189F90120812064FC010C
:101FA00020838A819B81FC01238D8A819B81FC0196
:101FB000948D81E0291709F080E0882379F08A81E7
:101FC0009B81FC01828993892A813B81F9012289C5
:101FD0003389F90120812F7DFC01208300000F90BF
:101FE0000F900F90DF91CF910895CF93DF93CDB7EE
:101FF000DEB729970FB6F894DEBF0FBECDBF9C8326
:102000008B834D835E836F837887298780E099E097
:10201000ADE3B0E02D813E814F815885BC01CD01FB
:102020000E94EE39DA01C9010197A109B109B695FB
:10203000A795979587959A8389838B819C81FC01CD
:102040008089918922E0FC0120838D819E81AF816E
:10205000B8858115914EA105B10529F089819A8134
:1020600081159041F0F08B819C81FC0180899189E0
:10207000FC01108280E894E8AEE1B0E02D813E8161
:102080004F815885BC01CD010E94EE39DA01C901AA
:102090000197A109B109B695A795979587959A8358
:1020A00089838B819C81FC018485958529813A8176
:1020B000232F3327FC0120838B819C81FC018685A3
:1020C00097852981FC0120838B819C81FC01108EE6
:1020D0008B819C81FC01848995892985FC01208361
:1020E0008B819C81FC01828993892B813C81F90140
:1020F00022893389F90120812061FC0120838B81B1
:102100009C81FC01828993892B813C81F901228980
:102110003389F90120812860FC0120838B819C8117
:10212000FC01828993892B813C81F90122893389C1
:10213000F90120812068FC0120838B819C81FC01B6
:10214000828993892B813C81F90122893389F901A4
:1021500020812F7DFC012083000029960FB6F89482
:10216000DEBF0FBECDBFDF91CF910895CF93DF9338
:1021700000D0CDB7DEB79A83898389819A81FC012B
:10218000818D882F90E09C01205C3F4F89819A814E
:10219000FC01828D882F90E0A901481B590BCA01D0
:1021A0008F7399270F900F90DF91CF910895CF9360
:1021B000DF9300D0CDB7DEB79A83898389819A8176
:1021C000FC01218D89819A81FC01928D81E0291782
:1021D00009F080E0882319F08FEF9FEF0FC089810D
:1021E0009A81FC01828D882F90E029813A81820FAB
:1021F000931F4D96FC018081882F90E00F900F90E7
:10220000DF91CF910895CF93DF9300D01F92CDB788
:10221000DEB79B838A838A819B81FC01218D8A8121
:102220009B81FC01928D81E0291709F080E08823D1
:1022300019F08FEF9FEF1CC08A819B81FC01828D7A
:10224000882F90E02A813B81820F931F4D96FC01DD
:10225000808189838A819B81FC01828D8F5F282FF9
:102260002F738A819B81FC01228F8981882F90E0C6
:102270000F900F900F90DF91CF910895CF93DF9340
:1022800000D000D0CDB7DEB79C838B838B819C813F
:10229000FC01838D89838B819C81FC01848D8A83E1
:1022A00099818A81981768F08981882F90E02FE3BF
:1022B00030E0281B390B8A81882F90E0820F931F12
:1022C0000BC08A81282F30E08981882F90E0A901F6
:1022D000481B590BCA0101970F900F900F900F9058
:1022E000DF91CF910895CF93DF9300D0CDB7DEB7C4
:1022F0009A83898389819A81FC01908D81E0892765
:10230000882309F04EC089819A81FC0182899389D2
:10231000FC018081882F90E080729927892B69F4D5
:1023200089819A81FC0180899189FC018081882FB3
:1023300090E080749927892B11F481E001C080E03E
:10234000882381F18FE590E0FC01808188237CF077
:1023500089819A81FC0182899389FC018081882F7F
:1023600090E080729927892B11F081E001C080E014
:10237000882349F289819A81FC0180899189FC0135
:102380008081882F90E08072992721E0892B09F4C1
:1023900020E0222309F4B7CF89819A810E948F0F10
:1023A000B2CF00000F900F90DF91CF910895CF939F
:1023B000DF9300D000D0CDB7DEB79B838A836C83D8
:1023C0008A819B8121E0FC01208F8A819B81FC0115
:1023D000238D8A819B81FC01848D281779F48A8161
:1023E0009B81FC0180899189FC018081882F90E08C
:1023F00080729927892B11F081E001C080E0882349
:10240000D1F08A819B81FC01868997892C81FC010E
:1024100020838A819B81FC01808991892A813B816B
:10242000F90120893189F90120812064FC01208390
:1024300081E090E060C08A819B81FC01838D882FC0
:1024400090E001968F739078992324F40197806C23
:102450009F6F019689838A819B81FC01248D81E095
:102460009981291709F080E0882301F18FE590E038
:10247000FC0180818095881F8827881F882359F355
:102480008A819B81FC0180899189FC018081882F50
:1024900090E08072992721E0892B09F420E0222323
:1024A000D1F28A819B810E948F0FD5CF8A819B8137
:1024B000FC01838D882F90E02A813B81820F931F3E
:1024C000835A9F4F2C81FC0120838A819B81298123
:1024D000FC01238F8A819B81FC01828993892A8157
:1024E0003B81F90122893389F90120812062FC01B5
:1024F000208381E090E00F900F900F900F90DF917C
:10250000CF910895CF93DF9300D0CDB7DEB79A83F4
:1025100089832CE833E089819A81FC01318320830F
:1025200089819A81FC011382128200000F900F9022
:10253000DF91CF910895CF93DF9300D0CDB7DEB771
:102540009A83898380E090E00F900F90DF91CF9184
:102550000895CF93DF9300D0CDB7DEB79A838983F8
:1025600000000F900F90DF91CF910895CF93DF93EC
:1025700000D0CDB7DEB79A83898389819A810E9482
:1025800082122AE733E089819A81FC01318320831A
:1025900029813A8188EE93E0A0E0B0E0F9018483DC
:1025A0009583A683B78300000F900F90DF91CF91A2
:1025B0000895CF92DF92EF92FF920F931F93CF93E4
:1025C000DF93CDB7DEB72E970FB6F894DEBF0FBE00
:1025D000CDBF9A8389837C836B835E834D833887E9
:1025E0002F831A870987FC86EB86DE86CD86898154
:1025F0009A810E94B61228E633E089819A81FC0113
:102600003183208389819A812B813C81FC0135872C
:10261000248789819A812D813E81FC013787268715
:1026200089819A812F813885FC01318B208B8981AA
:102630009A8129853A85FC01338B228B89819A8185
:102640002B853C85FC01358B248B89819A812D85D6
:102650003E85FC01378B268B89819A81FC01118E86
:1026600089819A81FC01128E89819A81FC01138EE5
:1026700089819A81FC01148E00002E960FB6F89481
:10268000DEBF0FBECDBFDF91CF911F910F91FF90A5
:10269000EF90DF90CF900895CF93DF9300D000D0DC
:1026A000CDB7DEB79C838B838B819C81FC018089B5
:1026B0009189FC018081882F90E08470992721E026
:1026C000892B09F020E0222371F18B819C81FC0190
:1026D00086899789FC01808189838B819C81FC019B
:1026E000818D8F5F8F738A838B819C81FC01228D0A
:1026F00081E09A81291709F480E08823D9F08B8141
:102700009C81FC01818D882F90E02B813C81820F80
:10271000931F4D962981FC0120838B819C812A8106
:10272000FC01218F07C08B819C81FC0186899789E0
:10273000FC01808100000F900F900F900F90DF91AF
:10274000CF9108951F920F9200905F000F92112475
:102750002F933F934F935F936F937F938F939F93A9
:10276000AF93BF93EF93FF93CF93DF93CDB7DEB7D4
:102770008AE994E00E944C130000DF91CF91FF9111
:10278000EF91BF91AF919F918F917F916F915F91E9
:102790004F913F912F910F9000925F000F901F90EB
:1027A00018951F920F9200905F000F9211242F93A3
:1027B0003F934F935F936F937F938F939F93AF93C9
:1027C000BF93EF93FF93CF93DF93CDB7DEB78AE943
:1027D00094E00E948F0F0000DF91CF91FF91EF9165
:1027E000BF91AF919F918F917F916F915F914F9129
:1027F0003F912F910F9000925F000F901F901895BE
:10280000CF93DF93CDB7DEB78AE994E00E94B6108C
:1028100021E0892B09F420E0822FDF91CF910895E8
:10282000CF92DF92EF92FF920F931F93CF93DF939C
:1028300000D000D0CDB7DEB79A8389837C836B83C9
:1028400089819A810197D1F48B819C810196B1F4A1
:102850000F2EF6ECCF2ED12CF02D0F2EF2ECEF2E0A
:10286000F12CF02D01EC10E020EC30E044EC50E0D5
:1028700065EC70E08AE994E00E94D91200000F90A4
:102880000F900F900F90DF91CF911F910F91FF90BC
:10289000EF90DF90CF900895CF93DF93CDB7DEB761
:1028A0006FEF7FEF81E090E00E941014DF91CF91F5
:1028B00008950F931F93CF93DF9300D000D0CDB72F
:1028C000DEB79A8389837C836B838B819C81892B80
:1028D00019F480E090E015C089819A81FC01808123
:1028E00091810296FC01008111818B819C810E9463
:1028F0005B3AAC012B813C8189819A81B901F80155
:1029000009950F900F900F900F90DF91CF911F912D
:102910000F910895CF93DF93CDB7DEB728970FB609
:10292000F894DEBF0FBECDBF9C838B837E836D8307
:1029300058874F831A8219828F8198859C01215074
:10294000310938872F8321E0892B09F420E02223E5
:1029500019F18B819C81FC0180819181FC01208196
:1029600031818D819E81AC014F5F5F4F5E834D83CE
:10297000FC0140818B819C81642FF901099521E044
:10298000892B09F420E0222331F089819A81019674
:102990009A838983D1CF000089819A8128960FB6C6
:1029A000F894DEBF0FBECDBFDF91CF910895CF93D6
:1029B000DF9300D000D0CDB7DEB79A8389837C83C4
:1029C0006B832B813C8189819A81B9010E945914C2
:1029D0000F900F900F900F90DF91CF910895CF93AC
:1029E000DF9300D01F92CDB7DEB79A8389836B83C4
:1029F00089819A81FC0180819181FC012081318152
:102A000089819A816B81F90109950F900F900F9040
:102A1000DF91CF910895CF93DF9300D000D000D005
:102A2000CDB7DEB79A8389837C836B835E834D83C6
:102A30008B819C81092E000CAA0BBB0B2D813E8142
:102A4000E981FA81AC01BD01CF010E94541526969F
:102A50000FB6F894DEBF0FBECDBFDF91CF910895C2
:102A6000CF93DF9300D000D000D0CDB7DEB79A83EC
:102A700089837C836B835E834D838B819C81CC01B6
:102A8000A0E0B0E02D813E81E981FA81AC01BD0179
:102A9000CF010E94CD1526960FB6F894DEBF0FBE6B
:102AA000CDBFDF91CF910895CF93DF93CDB7DEB740
:102AB0002A970FB6F894DEBF0FBECDBF9C838B83E1
:102AC0004D835E836F8378873A87298789859A85C6
:102AD000892B79F48B819C81FC0180819181FC019F
:102AE000208131814D818B819C81642FF901099571
:102AF0004BC089859A850A97D9F58D819E81AF81D2
:102B0000B885BB2344F58B819C816DE20E94EF1454
:102B10009A8389838D819E81AF81B885B095A09578
:102B2000909581959F4FAF4FBF4F8D839E83AF830D
:102B3000B8878D819E81AF81B885EB81FC812AE0C9
:102B4000AC01BD01CF010E942E169C0189819A81A2
:102B5000820F931F19C08D819E81AF81B885EB8153
:102B6000FC812AE0AC01BD01CF010E942E160CC0F1
:102B700029858D819E81AF81B885EB81FC81AC0177
:102B8000BD01CF010E942E162A960FB6F894DEBF23
:102B90000FBECDBFDF91CF910895CF93DF93CDB717
:102BA000DEB728970FB6F894DEBF0FBECDBF9A836D
:102BB00089834B835C836D837E8338872F838F81EA
:102BC0009885892B79F489819A81FC018081918192
:102BD000FC01208131814B8189819A81642FF90127
:102BE00009950CC02F818B819C81AD81BE81E981CB
:102BF000FA81AC01BD01CF010E942E1628960FB6B6
:102C0000F894DEBF0FBECDBFDF91CF910895CF9373
:102C1000DF93CDB7DEB728970FB6F894DEBF0FBEAF
:102C2000CDBF9A8389834B835C836D837E83388792
:102C30002F832F818B819C81AD81BE81E981FA81B7
:102C4000AC01BD01CF010E94A01628960FB6F894E2
:102C5000DEBF0FBECDBFDF91CF910895CF93DF933D
:102C6000CDB7DEB7AB970FB6F894DEBF0FBECDBFC2
:102C70009EA38DA34FA358A769A77AA72BA780E28D
:102C800090E09E012C5F3F4F820F931F9A838983B0
:102C900089819A81FC0110828BA5823010F48AE030
:102CA0008BA78BA5282F30E040E050E08FA198A59E
:102CB000A9A5BAA5BC01CD010E94EE39DC01CB016A
:102CC0008B838BA5282F30E040E050E08FA198A5A2
:102CD000A9A5BAA5BC01CD010E94EE39DA01C9014E
:102CE0008FA398A7A9A7BAA789819A8101979A83E8
:102CF00089838B818A3020F48B8120E3280F03C0E5
:102D00008B8127E3280F89819A81FC0120838FA181
:102D100098A5A9A5BAA5892B8A2B8B2B09F0C1CF21
:102D200029813A818DA19EA1B9010E945914AB96C7
:102D30000FB6F894DEBF0FBECDBFDF91CF910895DF
:102D4000CF92DF92EF92FF921F93CF93DF93CDB795
:102D5000DEB768970FB6F894DEBF0FBECDBF9B8B72
:102D60008A8B4C8B5D8B6E8B7F8B288F1A8219829E
:102D70002C893D894E895F896C897D898E899F89DF
:102D80000E94D939882339F08A899B8969E273E0E6
:102D90000E94D71436C18C899D89AE89BF896C0188
:102DA0007D01E894F7F811E02FEF3FEF4FE75FE781
:102DB000C701B6010E94D939882359F42FEF3FEF9C
:102DC0004FE75FE7C701B6010E94AB3918160CF454
:102DD00010E081E08127882339F08A899B896DE2A0
:102DE00073E00E94D7140DC12FEF3FEF4FE75FE470
:102DF0006C897D898E899F890E94D43918163CF48C
:102E00008A899B8961E373E00E94D714FAC02FEF8F
:102E10003FEF4FE75FEC6C897D898E899F890E9427
:102E2000AB3988233CF48A899B8961E373E00E9473
:102E3000D714E7C020E030E0A9016C897D898E8934
:102E40009F890E94AB398823ACF48A899B896DE203
:102E50000E94EF149C0189819A81820F931F9A83AB
:102E600089838C899D89AE89BF89B0588C8B9D8B55
:102E7000AE8BBF8B80E090E0A0E0BFE38B839C83B0
:102E8000AD83BE831F829F81888D9817A0F420E0B8
:102E900030E040E251E46B817C818D819E810E9413
:102EA000D10DDC01CB018B839C83AD83BE838F81ED
:102EB0008F5F8F83E8CF2B813C814D815E816C8950
:102EC0007D898E899F890E94650DDC01CB018C8BE9
:102ED0009D8BAE8BBF8B6C897D898E899F890E946B
:102EE0004A0EDC01CB018C879D87AE87BF876C853E
:102EF0007D858E859F850E94790EDC01CB019C012A
:102F0000AD016C897D898E899F890E94640DDC01E9
:102F1000CB0188879987AA87BB878C859D85AE85DD
:102F2000BF85EA89FB892AE030E0AC01BD01CF0111
:102F30000E94CD159C0189819A81820F931F9A83EB
:102F40008983888D882361F08A899B896EE20E943B
:102F5000EF149C0189819A81820F931F9A83898340
:102F6000888D9FEF980F988F91E0882309F490E067
:102F7000992309F444C020E030E040E251E4688540
:102F800079858A859B850E94070FDC01CB018887A4
:102F90009987AA87BB87688579858A859B850E94E2
:102FA0004A0EDC01CB01998B888B288939898A8963
:102FB0009B894AE050E0B9010E9430159C0189814B
:102FC0009A81820F931F9A83898388899989CC017A
:102FD000A0E0B0E0BC01CD010E94790EDC01CB0184
:102FE0009C01AD01688579858A859B850E94640D69
:102FF000DC01CB0188879987AA87BB87B1CF8981FC
:103000009A8168960FB6F894DEBF0FBECDBFDF91F0
:10301000CF911F91FF90EF90DF90CF9008951F9276
:103020000F9200905F000F9211248F939F93AF93A4
:10303000BF93CF93DF93CDB7DEB72597DEBFCDBF6C
:1030400080913B0590913C05A0913D05B0913E05D6
:1030500089839A83AB83BC8380913F058D8389816B
:103060009A81AB81BC810196A11DB11D89839A8390
:10307000AB83BC838D818D5F8D838D818D3770F0A7
:103080008D818D578D8389819A81AB81BC81019619
:10309000A11DB11D89839A83AB83BC838D818093ED
:1030A0003F0589819A81AB81BC8180933B059093D8
:1030B0003C05A0933D05B0933E0580913705909166
:1030C0003805A0913905B0913A050196A11DB11DB1
:1030D0008093370590933805A0933905B0933A054E
:1030E00000000F900F900F900F900F90DF91CF91F5
:1030F000BF91AF919F918F910F9000925F000F90C1
:103100001F901895CF93DF9300D000D01F92CDB7BA
:10311000DEB78FE590E0FC0180818983F89480918F
:103120003B0590913C05A0913D05B0913E058A83F9
:103130009B83AC83BD838FE590E02981FC012083D4
:103140008A819B81AC81BD81BC01CD010F900F9024
:103150000F900F900F90DF91CF910895CF93DF9351
:1031600000D000D000D0CDB7DEB78FE590E0FC01F5
:1031700080818D83F8948091370590913805A091D6
:103180003905B0913A0589839A83AB83BC8386E481
:1031900090E0FC0180818E8385E390E0FC018081DA
:1031A000882F90E081709927892B71F08E818F3F55
:1031B00059F089819A81AB81BC810196A11DB11D15
:1031C00089839A83AB83BC838FE590E02D81FC01DA
:1031D000208389819A81AB81BC812227382F492F96
:1031E0005A2F8E81882F90E0A0E0B0E0820F931FCD
:1031F000A41FB51F880F991FAA1FBB1F880F991FF7
:10320000AA1FBB1FBC01CD0126960FB6F894DEBFE6
:103210000FBECDBFDF91CF910895EF92FF920F9334
:103220001F93CF93DF93CDB7DEB728970FB6F894EF
:10323000DEBF0FBECDBF6D837E838F8398870E94D4
:10324000AE18DC01CB0189839A83AB83BC8337C082
:103250000E94F63617C08D819E81AF81B885019797
:10326000A109B1098D839E83AF83B88789819A8133
:10327000AB81BC8188519C4FAF4FBF4F89839A83EC
:10328000AB83BC838D819E81AF81B885892B8A2BCE
:103290008B2BA9F00E94AE189B01AC0189819A8109
:1032A000AB81BC8179018A01E81AF90A0A0B1B0B70
:1032B000D801C701883E9340A105B10560F68D8114
:1032C0009E81AF81B885892B8A2B8B2B09F6000054
:1032D00028960FB6F894DEBF0FBECDBFDF91CF9119
:1032E0001F910F91FF90EF900895CF93DF93CDB78B
:1032F000DEB7789484E490E024E430E0F9012081A2
:103300002260FC01208384E490E024E430E0F901B1
:1033100020812160FC01208385E490E025E430E0F9
:10332000F90120812260FC01208385E490E025E4FE
:1033300030E0F90120812160FC0120838EE690E0DD
:103340002EE630E0F90120812160FC01208381E834
:1033500090E0FC01108281E890E021E830E0F90182
:1033600020812260FC01208381E890E021E830E0A8
:10337000F90120812160FC01208380E890E020E8B1
:1033800030E0F90120812160FC01208381EB90E095
:1033900021EB30E0F90120812460FC01208380EBE7
:1033A00090E020EB30E0F90120812160FC012083D6
:1033B0008AE790E02AE730E0F90120812460FC01EF
:1033C00020838AE790E02AE730E0F901208122603B
:1033D000FC0120838AE790E02AE730E0F9012081B0
:1033E0002160FC0120838AE790E02AE730E0F901C0
:1033F00020812068FC0120838AE790E02AE730E002
:10340000F90120812460FC0120838AE790E02AE70B
:1034100030E0F90120812260FC0120838AE790E0FE
:103420002AE730E0F90120812160FC0120838AE74E
:1034300090E02AE730E0F90120812068FC01208338
:1034400081EC90E0FC0110820000DF91CF910895A3
:10345000CF93DF93CDB7DEB769970FB6F894DEBF91
:103460000FBECDBF888F698F888D882F90E08056E2
:103470009D4F9A83898389819A81FC0184918B83F2
:103480008B818C83888D882F90E084579D4F9E83FD
:103490008D838D819E81FC0184918F838F818887AC
:1034A0008885882309F495C08885882F90E0880F47
:1034B000991F82599D4F9A87898789859A85FC0132
:1034C00025913491CF013C872B879A8789878B85FB
:1034D0009C859E878D878885882F90E0880F991F0F
:1034E00088589D4F988B8F878F859889FC012591EF
:1034F0003491CF013A8B298B988B8F8789899A8950
:103500009C8B8B8B898D882331F58FE590E0FC01B6
:1035100080818D8BF8948D859E85FC018081982F0C
:103520008C8180958923282F8D859E85FC012083A1
:103530008B899C89FC018081982F8C8180958923BF
:10354000282F8B899C89FC0120838FE590E02D89B1
:10355000FC0120833FC0898D823021F58FE590E00A
:10356000FC0180818E8BF8948D859E85FC01808185
:10357000982F8C8180958923282F8D859E85FC012D
:1035800020838B899C89FC0190818C81292F282B99
:103590008B899C89FC0120838FE590E02E89FC01BA
:1035A000208318C08FE590E0FC0180818F8BF89418
:1035B0008D859E85FC0190818C81292F282B8D85FE
:1035C0009E85FC0120838FE590E02F89FC012083FC
:1035D00001C0000069960FB6F894DEBF0FBECDBFE4
:1035E000DF91CF910895CF93DF931F92CDB7DEB7D0
:1035F00089838981882F90E08330910591F0843010
:10360000910534F48130910501F1029741F145C0F3
:103610008730910571F188309105A9F1049759F02F
:103620003CC080E890E020E830E0F90120812F776D
:10363000FC01208332C080E890E020E830E0F9010E
:1036400020812F7DFC01208328C084E490E024E4C5
:1036500030E0F90120812F77FC0120831EC084E433
:1036600090E024E430E0F90120812F7DFC012083EB
:1036700014C080EB90E020EB30E0F90120812F773F
:10368000FC0120830AC080EB90E020EB30E0F901E0
:1036900020812F7DFC012083000000000F90DF912E
:1036A000CF910895CF93DF93CDB7DEB765970FB66F
:1036B000F894DEBF0FBECDBF8C8B6D8B8C89882FAD
:1036C00090E08C549D4F9A83898389819A81FC0173
:1036D00084918B838B818C838C89882F90E080569A
:1036E0009D4F9E838D838D819E81FC0184918F836C
:1036F0008F8188878C89882F90E084579D4F9A8787
:10370000898789859A85FC0184918B878B858C8735
:103710008C85882309F445C08C81882319F08C811D
:103720000E94F31A8C85882F90E0880F991F885883
:103730009D4F9E878D878D859E85FC0125913491B7
:10374000CF01388B2F879E878D878F8598899A8B9D
:10375000898B8FE590E0FC0180818B8BF8948D89BB
:10376000882371F489899A89FC018081982F888542
:1037700080958923282F89899A89FC0120830BC091
:1037800089899A89FC0190818885292F282B89892C
:103790009A89FC0120838FE590E02B89FC0120832E
:1037A00001C0000065960FB6F894DEBF0FBECDBF16
:1037B000DF91CF910895AF92BF92CF92DF92EF92B7
:1037C000FF920F931F93CF93DF93CDB7DEB7609730
:1037D0000FB6F894DEBF0FBECDBF69837A838B83AB
:1037E0009C832D833E834F835887E986FA860B8717
:1037F0001C87AD86BE86CF86D88A29813A814B81C7
:103800005C818D819E81AF81B88579018A01E81A3A
:10381000F90A0A0B1B0B2D8D3E8D4F8D58A18D85FE
:103820009E85AF85B88959016A01A81AB90ACA0AE2
:10383000DB0AD601C501A8019701BC01CD010E9498
:10384000DE397B018C0129853A854B855C858D812C
:103850009E81AF81B885281B390B4A0B5B0BC801D1
:10386000B7010E94103ADA01C9019C01AD018D85B2
:103870009E85AF85B889820F931FA41FB51FBC0119
:10388000CD0160960FB6F894DEBF0FBECDBFDF91BD
:10389000CF911F910F91FF90EF90DF90CF90BF904D
:1038A000AF900895CF93DF9300D000D000D0CDB774
:1038B000DEB79A8389837C836B835E834D838981A2
:1038C0009A810E94821228E933E089819A81FC0161
:1038D0003183208389819A812B813C81FC0135834E
:1038E000248389819A812D813E81FC01378326833F
:1038F00089819A81FC012481358189819A81FC0129
:103900003187208789819A81FC01268137818981CD
:103910009A81FC013387228789819A81FC01158A6B
:1039200089819A81FC011586148689819A81FC011E
:103930002485358589819A81FC013787268789818D
:103940009A8121E0FC01248B89819A812FEF3FEF3E
:10395000FC01338B228B89819A81FC012289338976
:1039600089819A81FC01318B208B89819A8121E0A8
:10397000FC01268B89819A81FC01178A89819A81B1
:10398000FC01118E108E000026960FB6F894DEBF53
:103990000FBECDBFDF91CF910895EF92FF920F93AD
:1039A0001F93CF93DF93CDB7DEB76E970FB6F89422
:1039B000DEBF0FBECDBF9C8B8B8B7E8B6D8B588FEC
:1039C0004F8B3A8F298F1C8F0B8FFE8EED8E2B8D98
:1039D0003C8D8F89988DA901481B590BCA019923E9
:1039E0001CF4919581959109AC01298D3A8D8D89B1
:1039F0009E89B901681B790BCB0199231CF4919521
:103A00008195910921E0841795070CF020E0822F21
:103A100090E09E838D838D819E81892BC1F08D895D
:103A20009E8998878F838F89988D9E8B8D8B8F81B0
:103A30009885988F8F8B898D9A8D9A8789878B8DA2
:103A40009C8D9A8F898F89859A859C8F8B8F2D89E4
:103A50003E89898D9A8D82179307C4F48D899E893A
:103A60009C878B87898D9A8D9E8B8D8B8B859C8572
:103A70009A8F898F8F89988D9E878D878B8D9C8D4E
:103A8000988F8F8B8D859E859C8F8B8F298D3A8DFE
:103A90008D899E89D901A81BB90BCD01988B8F8781
:103AA0002B8D3C8D8F89988DF901E81BF90BCF0187
:103AB00099231CF49195819591099A8B898B8F8517
:103AC000988999230CF40196959587959A83898313
:103AD0002F89388D8B8D9C8D281739072CF481E028
:103AE00090E09C838B8304C08FEF9FEF9C838B833C
:103AF0002D893E89898D9A8D821793070CF44DC0CC
:103B00008D819E81892B99F08B899C89DC018D9117
:103B10009C910C96DC01ED91FC912D8D3E8D4D8993
:103B20005E896F89788D8B899C89099512C08B89F4
:103B30009C89FC01808191810C96DC01ED91FC91C6
:103B40002D8D3E8D4F89588D6D897E898B899C89FD
:103B5000099529813A8189899A89F901E81BF90B2C
:103B6000CF019A83898389819A81992384F42F894B
:103B7000388D8B819C81820F931F988F8F8B298129
:103B80003A818F859889820F931F9A8389838D89C3
:103B90009E8901969E8B8D8BABCF00006E960FB6E3
:103BA000F894DEBF0FBECDBFDF91CF911F910F9173
:103BB000FF90EF900895CF93DF9300D0CDB7DEB79D
:103BC0009A83898300000F900F90DF91CF91089521
:103BD000CF93DF93CDB7DEB728970FB6F894DEBF4B
:103BE0000FBECDBF9A8389837C836B835E834D83B5
:103BF00038872F8389819A81DC018D919C91089669
:103C0000DC01ED91FC912F8138854D815E816B81C6
:103C10007C8189819A810995000028960FB6F894D5
:103C2000DEBF0FBECDBFDF91CF9108950F931F93DD
:103C3000CF93DF93CDB7DEB72A970FB6F894DEBFE8
:103C40000FBECDBF9A8389837C836B835E834D8354
:103C500038872F831A87098789819A81DC018D91A2
:103C60009C914C96DC01ED91FC91A985BA852F8140
:103C700038854D815E816B817C8189819A818D013E
:103C8000099500002A960FB6F894DEBF0FBECDBF8F
:103C9000DF91CF911F910F9108950F931F93CF93B1
:103CA000DF93CDB7DEB72A970FB6F894DEBF0FBE0D
:103CB000CDBF9A8389837C836B835E834D833887F2
:103CC0002F831A87098789819A81DC018D919C91C4
:103CD0004E96DC01ED91FC91A985BA852F8138853E
:103CE0004D815E816B817C8189819A818D010995ED
:103CF00000002A960FB6F894DEBF0FBECDBFDF914D
:103D0000CF911F910F910895EF92FF920F931F9300
:103D1000CF93DF93CDB7DEB72C970FB6F894DEBF05
:103D20000FBECDBF9A8389837C836B835E834D8373
:103D300038872F831A870987FC86EB8689819A81C9
:103D4000DC018D919C918096DC01ED91FC910B85BD
:103D50001C85A985BA852F8138854D815E816B814F
:103D60007C8189819A8178018D01099500002C96CA
:103D70000FB6F894DEBF0FBECDBFDF91CF911F917C
:103D80000F91FF90EF900895CF93DF9300D0CDB7C0
:103D9000DEB79A83898300000F900F90DF91CF9157
:103DA0000895EF92FF920F931F93CF93DF93CDB7B8
:103DB000DEB72A970FB6F894DEBF0FBECDBF9A8349
:103DC00089837C836B835E834D8338872F831A8737
:103DD000098789819A81DC018D919C910A96FC0169
:103DE0002081318189819A81F901099589819A819E
:103DF000DC018D919C914496DC01ED91FC912D812B
:103E00003E818F819885820F931FDC011197098570
:103E10001A852B813C814D815E816B817C818981FA
:103E20009A8178018D01099589819A81FC018081AF
:103E300091814696DC012D913C9189819A81F9010D
:103E4000099500002A960FB6F894DEBF0FBECDBFCD
:103E5000DF91CF911F910F91FF90EF900895EF9216
:103E6000FF920F931F93CF93DF93CDB7DEB72A97BF
:103E70000FB6F894DEBF0FBECDBF9A8389837C83D3
:103E80006B835E834D8338872F831A8709878981E7
:103E90009A81DC018D919C910A96FC0120813181EF
:103EA00089819A81F901099589819A81DC018D9135
:103EB0009C914496DC01ED91FC912B813C818F819A
:103EC0009885820F931F9C012150310909851A851D
:103ED000AD81BE814D815E816B817C8189819A81BA
:103EE00078018D01099589819A81FC0180819181F8
:103EF0004696DC012D913C9189819A81F9010995C1
:103F000000002A960FB6F894DEBF0FBECDBFDF913A
:103F1000CF911F910F91FF90EF900895EF92FF9234
:103F20000F931F93CF93DF93CDB7DEB72E970FB6C6
:103F3000F894DEBF0FBECDBF9C838B837E836D83E1
:103F400058874F833A8729871C870B87FE86ED8623
:103F50008B819C81DC018D919C910A96FC012081D2
:103F600031818B819C81F90109958D819E819A8394
:103F700089832D813E8189859A85280F391F898102
:103F80009A8182179307DCF48B819C81DC018D91EF
:103F90009C914096DC01ED91FC91AD85BE852B8511
:103FA0003C854F81588569817A818B819C818D0107
:103FB000099589819A8101969A838983DACF8B81C9
:103FC0009C81FC01808191814696DC012D913C9180
:103FD0008B819C81F901099500002E960FB6F8940B
:103FE000DEBF0FBECDBFDF91CF911F910F91FF902C
:103FF000EF900895EF92FF920F931F93CF93DF936B
:1040000000D000D0CDB7DEB79A8389837C836B83E1
:1040100089819A81DC018D919C918096DC01ED91E2
:10402000FC9189819A81DC011A964D915C911B97D4
:1040300089819A81DC0118962D913C9119976B81A9
:104040007C8189819A817B018A0140E050E060E0B7
:1040500070E0099500000F900F900F900F90DF9186
:10406000CF911F910F91FF90EF900895EF92FF92E3
:104070000F931F93CF93DF93CDB7DEB760970FB643
:10408000F894DEBF0FBECDBF9E838D8378876F838C
:104090005A8749873C872B871E870D87F88AEF86CA
:1040A0002F8138858B859C852817390791F52985BF
:1040B0003A858D859E858217930764F489859A8554
:1040C0009A8389838D859E859A87898789819A813C
:1040D0009E878D878D819E81DC018D919C914C9670
:1040E000DC01ED91FC912D853E8589859A85A9019C
:1040F000481B590BCA019C012F5F3F4FAF85B88900
:1041000049855A856F8178858D819E818D010995BC
:104110006BC029853A858D859E852817390791F5CD
:104120002F8138858B859C858217930764F48F8156
:1041300098859C838B838B859C8598878F838B81C7
:104140009C819C878B878D819E81DC018D919C91C8
:104150004E96DC01ED91FC912B853C858F819885F5
:10416000A901481B590BCA019C012F5F3F4FAF8526
:10417000B88949855A856F8178858D819E818D01A9
:10418000099532C08D819E81DC018D919C910A96AA
:10419000FC01208131818D819E81F90109958D81FC
:1041A0009E81DC018D919C914496DC01ED91FC9106
:1041B0000F851889AD85BE852B853C8549855A8537
:1041C0006F8178858D819E8178018D0109958D8122
:1041D0009E81FC01808191814696DC012D913C916C
:1041E0008D819E81F9010995000060960FB6F894C3
:1041F000DEBF0FBECDBFDF91CF911F910F91FF901A
:10420000EF900895EF92FF920F931F93CF93DF9358
:10421000CDB7DEB72C970FB6F894DEBF0FBECDBF7B
:104220009A8389837C836B835E834D8338872F8356
:104230001A870987FC86EB8689819A81DC018D913A
:104240009C910A96FC012081318189819A81F90132
:10425000099589819A81DC018D919C914296DC01BE
:10426000ED91FC91AB85BC852F8138854D815E81B8
:104270006B817C8189819A818D01099589819A81DF
:10428000FC01808191814296DC01ED91FC912D81B0
:104290003E8189859A85820F931FAC014150510957
:1042A000AB85BC852F8138856B817C8189819A8122
:1042B0008D01099589819A81FC01808191814096C7
:1042C000DC01ED91FC91AB85BC8529853A854D815A
:1042D0005E816B817C8189819A818D0109958981BB
:1042E0009A81FC01808191814096DC01ED91FC91E5
:1042F0002B813C818F819885820F931FBC01615077
:104300007109AB85BC8529853A854D815E8189819E
:104310009A818D01099589819A81FC018081918121
:104320004696DC012D913C9189819A81F90109958C
:1043300000002C960FB6F894DEBF0FBECDBFDF9104
:10434000CF911F910F91FF90EF900895CF92DF9240
:10435000EF92FF920F931F93CF93DF93CDB7DEB70A
:10436000C454D1090FB6F894DEBF0FBECDBF98AFCD
:104370008FAB7AAF69AF5CAF4BAF2DAF1FAF0EAF56
:10438000CE01805C9F4FDC01ED92FC92CE018E5BF2
:104390009F4FFC01C0828FA998ADDC0158968D918A
:1043A0009C915997892B09F031C28FA998ADFC01D6
:1043B0002085318589AD9AAD821793070CF0BDC376
:1043C0008FA998ADDC011A962D913C911B978BAD6E
:1043D0009CAD821793070CF0B0C3CE018E5B9F4F4C
:1043E000FC018081282F30E0C901880F991F820FBE
:1043F000931F880F991F9C0189AD9AAD820F931F5F
:10440000019799230CF499C3CE018E5B9F4FDC0179
:104410008C91882F90E09C01220F331F220F331FB5
:10442000220F331F8BAD9CAD820F931F01979923F1
:104430000CF483C38FA998ADFC01978981E089278B
:10444000882331F08DAD803B18F08DAD8F5F8DAF3F
:104450008FA998ADDC018D919C910A96FC01208179
:1044600031818FA998ADF90109951982898185302B
:104470000CF047C18DAD282F30E0C901880F991F7E
:10448000880F991F280F391F8981082E000C990B5E
:10449000820F931F88539D4F9F878E878E859F85A0
:1044A000FC018491888B88898A831B828B81883068
:1044B0000CF023C18A81882F90E081709927892B85
:1044C00009F47FC0CE018E5B9F4FDC018C9181305F
:1044D00009F58FA998ADFC01808191810C96DC01D2
:1044E000ED91FC918B81282F880F330B8BAD9CAD08
:1044F000A901480F591F8981282F880F330B89ADD7
:104500009AADB901680F791F2EAD3FAD8FA998AD57
:104510000995E9C08FA998ADFC01808191810E9623
:10452000DC010D90BC91A02D2596BFAFAEAF2597B5
:10453000CE018E5B9F4FFC018081082F10E0CE01E1
:104540008E5B9F4FDC018C91C82ED12C8B81482F24
:10455000880F550BCE018E5B9F4FFC018081882F09
:1045600090E0489F9001499F300D589F300D1124D5
:104570008BAD9CADD901A80FB91F8981482F880F39
:10458000550BCE018E5B9F4FFC018081882F90E000
:10459000489F9001499F300D589F300D112489ADDF
:1045A0009AADB901680F791F2EAD3FAD8FA998ADB7
:1045B00079019601AD012596EEADFFAD25970995E0
:1045C00092C0CE01805C9F4FDC012D913C918EAD5D
:1045D0009FAD2817390709F486C0CE018E5B9F4F27
:1045E000FC018081813029F58FA998ADDC018D9186
:1045F0009C910C96DC01ED91FC918B81282F880F0A
:10460000330B8BAD9CADA901480F591F8981282F11
:10461000880F330B89AD9AADB901680F791FCE01B0
:10462000805C9F4FDC012D913C918FA998AD09953D
:104630005AC08FA998ADFC01808191810E96DC0152
:104640000D90BC91A02D2596BFAFAEAF2597CE01A2
:104650008E5B9F4FFC018081082F10E0CE018E5BA6
:104660009F4FDC018C91C82ED12C8B81482F880F55
:10467000550BCE018E5B9F4FFC018081882F90E00F
:10468000489F9001499F300D589F300D11248BADEC
:104690009CADD901A80FB91F8981482F880F550BF0
:1046A000CE018E5B9F4FFC018081882F90E0489F58
:1046B0009001499F300D589F300D112489AD9AAD5E
:1046C000B901680F791FCE01805C9F4FFC012081EA
:1046D00031818FA998AD79019601AD012596EEAD96
:1046E000FFAD259709958B818F5F8B838A81882FFA
:1046F00090E0959587958A83D9CE89818F5F89834C
:10470000B5CECE01805C9F4FDC012D913C918EADEA
:104710009FAD2817390709F46BC0CE018E5B9F4F00
:10472000FC0180818130E9F48FA998ADDC018D9185
:104730009C914096DC01ED91FC9189AD9AADBC0154
:104740006B5F7F4FCE01805C9F4FDC012D913C91D0
:104750004BAD5CAD8FA998AD890128E030E009959B
:1047600047C08FA998ADFC01808191810E96DC0134
:104770000D90BC91A02D2596BFAFAEAF2597CE0171
:104780008E5B9F4FFC018081882F90E08C01000F91
:10479000111F000F111F000F111FCE018E5B9F4FC5
:1047A000DC018C91A82FB0E0CE018E5B9F4FFC0105
:1047B0008081282F30E0C901880F991F880F991F29
:1047C000280F391F89AD9AADB901680F791FCE0145
:1047D000805C9F4FFC01208131814BAD5CAD8FA986
:1047E00098AD79019D012596EEADFFAD2597099510
:1047F0008FA998ADDC018D919C914696FC0120819A
:1048000031818FA998ADF901099598C18FA998AD0B
:10481000DC0158968D919C91599704969A8B898BBF
:1048200089899A89FC0184918B8B8B899DADF92FA5
:10483000F81B8F2F8DAF8DAD282F30E0C901880F69
:10484000991F880F991F880F991FAC01421B530BAA
:104850009A018FA998ADDC0158968D919C9159973A
:1048600002969D8B8C8B8C899D89FC01459154917E
:10487000CF015F8B4E8B9D8B8C8B8E899F89820F96
:10488000931F998F888F8FA998ADDC0158968D91D1
:104890009C9159979B8F8A8F8A8D9B8DFC012591C6
:1048A0003491CF013D8F2C8F9B8F8A8F8C8D9D8D66
:1048B0009F8F8E8F888D998D99A388A388A199A1A8
:1048C000FC0125913491CF013BA32AA399A388A38E
:1048D0008AA19BA19D838C83888D998D02969DA32F
:1048E0008CA38CA19DA1FC0184918EA38EA18FA38A
:1048F000888D998D039699A788A788A599A5FC010D
:1049000084918AA78AA58BA7888D998D05969DA7E6
:104910008CA78CA59DA5FC0184918EA78EA58FA741
:10492000888D998D069699AB88AB88A999A9FC01C9
:1049300084918AAB8AA98BAB188619861B861A8646
:104940001D861C86CE018E5B9F4FDC018C918230D0
:1049500060F08FA5082E000C990B9B878A878BA986
:10496000082E000C990B9D878C878FA998ADFC01B0
:10497000808191810A96DC012D913C918FA998AD9F
:10498000F90109951F829F818BA5981708F0C7C070
:104990001E829E818FA1981708F0BDC0898591E085
:1049A000980F9987882F90E08770992721E0892BAD
:1049B00009F020E02223A1F08C819D819C012F5FD2
:1049C0003F4F3D832C832E8D3F8D820F931F9DABD8
:1049D0008CAB8CA99DA9FC0184918EAB8EA9888794
:1049E000888588230CF090C0CE018E5B9F4FDC0140
:1049F0008C91813059F58FA998ADFC01808191810E
:104A00000C96DC01ED91FC918BA9282F880F330BBC
:104A10008BAD9CAD280F391F8F81882F90E0A901A5
:104A2000480F591F8FA5282F880F330B89AD9AADDA
:104A3000280F391F8E81882F90E0B901680F791FE8
:104A40002EAD3FAD8FA998AD09955EC08FA998ADE9
:104A5000FC01808191810E96DC010D90BC91A02D0E
:104A60002596BFAFAEAF2597CE018E5B9F4FFC0161
:104A70008081082F10E0CE018E5B9F4FDC018C916E
:104A8000C82ED12C8F81282F30E08C859D85A901DF
:104A9000480F591FCE018E5B9F4FFC018081882FEC
:104AA00090E0489F9001499F300D589F300D112490
:104AB0008BAD9CADD901A80FB91F8E81282F30E096
:104AC0008A859B85A901480F591FCE018E5B9F4F98
:104AD000FC018081882F90E0489F9001499F300D14
:104AE000589F300D112489AD9AADB901680F791F17
:104AF0002EAD3FAD8FA998AD79019601AD012596F8
:104B0000EEADFFAD259709958885880F88878E8142
:104B10008F5F8E833ECF8F818F5F8F8334CF8FA93E
:104B200098ADDC018D919C914696FC0120813181EC
:104B30008FA998ADF901099501C00000CC5BDF4F4A
:104B40000FB6F894DEBF0FBECDBFDF91CF911F919E
:104B50000F91FF90EF90DF90CF900895CF92EF925A
:104B6000FF920F931F93CF93DF93CDB7DEB7A89734
:104B70000FB6F894DEBF0FBECDBF9DA38CA36EA36E
:104B80008CA19DA1FC01808D918D892B09F0A4C081
:104B90008EA18A30F1F48CA19DA1FC0115861486AA
:104BA0008CA19DA1FC01268537858CA19DA1FC01CE
:104BB0008489882F90E0880F991F880F991F880F8C
:104BC000991F280F391F8CA19DA1FC0137872687CB
:104BD000E3C18EA18D3009F4DFC18CA19DA1FC0140
:104BE00086898823D1F18CA19DA1FC01448555853E
:104BF0008CA19DA1FC018489282F30E0C901880F78
:104C0000991F820F931F880F991F9A01280F391F30
:104C10008CA19DA1FC018085918582179307ECF4FE
:104C20008CA19DA1FC01158614868CA19DA1FC017F
:104C3000268537858CA19DA1FC018489882F90E071
:104C4000880F991F880F991F880F991F280F391FE8
:104C50008CA19DA1FC01378726878CA19DA1FC0119
:104C6000A4898CA19DA1FC010288F389E02DF8A7FD
:104C7000EFA38CA19DA1FC01208931898CA19DA16C
:104C8000FC01468557858CA19DA1FC016485758535
:104C90008CA19DA1CA2EEFA0F8A489012EA10E948B
:104CA000A6218CA19DA1FC01448555858CA19DA1C7
:104CB000FC018489282F30E0C901880F991F820FD9
:104CC000931F880F991F9A01280F391F8CA19DA14E
:104CD000FC013587248760C18EA18A3079F58CA1CB
:104CE0009DA1FC01158614868CA19DA1FC018489DF
:104CF000482F50E08CA19DA1FC01808D918D0696DE
:104D00009A83898389819A81FC0184918B838B8129
:104D1000282F30E0429FC001439F900D529F900D7D
:104D200011242CA13DA1F90126853785280F391FB3
:104D30008CA19DA1FC01378726872EC18EA18D30C5
:104D400009F42AC18CA19DA1FC01808D918D04964E
:104D50009D838C838C819D81FC0184918E838E81C7
:104D60008F839EA18F81981798F08CA19DA1FC0143
:104D7000808D918D05969987888788859985FC0116
:104D800084918A879A858EA1981710F081E001C0DE
:104D900080E0882309F400C18EA1282F30E08F81A4
:104DA000882F90E0A901481B590BCA019C01C90139
:104DB000880F991F880F991F880F991FFC01E21B0C
:104DC000F30B9F018CA19DA1FC01808D918D02961A
:104DD0009C878B878B859C85FC0145915491CF01E5
:104DE0005E874D879C878B878D859E85820F931F5D
:104DF000988B8F878F85988902969A8B898B898962
:104E00009A89FC0184918B8B8B898C8B8F859889F7
:104E100003969E8B8D8B8D899E89FC0184918F8B4F
:104E20008F89888F8C89882309F490C0888D882386
:104E300009F48CC08F85988905969A8F898F898D02
:104E40009A8DFC0184918B8F8B8D082E000C990B11
:104E50009D8F8C8F8CA19DA1FC018689882309F4EC
:104E600051C08CA19DA1FC01248535858CA19DA1FB
:104E7000FC018489682F70E08C89482F50E08C8D6C
:104E80009D8D480F591F649FC001659F900D749FB1
:104E9000900D1124280F391F8CA19DA1FC01808544
:104EA00091858217930774F58CA19DA1FC0115864D
:104EB00014868CA19DA1FC018489482F50E08CA10F
:104EC0009DA1FC01808D918D06969F8F8E8F8E8D7A
:104ED0009F8DFC01849188A388A1282F30E0429FF8
:104EE000C001439F900D529F900D11242CA13DA114
:104EF000F90126853785280F391F8CA19DA1FC015A
:104F0000378726878CA19DA1FC01A4898CA19DA136
:104F1000FC010288F389E02DF8A7EFA38CA19DA1E5
:104F2000FC01208931898CA19DA1FC014685578512
:104F30008CA19DA1FC01648575858CA19DA1CA2EC3
:104F4000EFA0F8A489012EA10E94A6218F8598893F
:104F500004969AA389A389A19AA1FC0184918BA3A9
:104F60008BA1482F50E08CA19DA1FC018489282FA2
:104F700030E0429FC001439F900D529F900D11243D
:104F80002CA13DA1F90124853585280F391F8CA15D
:104F90009DA1FC013587248781E090E0A8960FB69B
:104FA000F894DEBF0FBECDBFDF91CF911F910F915F
:104FB000FF90EF90CF900895CF93DF9300D000D073
:104FC00000D0CDB7DEB79A8389837C836B835E8301
:104FD0004D8389819A812B813C81FC01358724870F
:104FE00089819A812D813E81FC01378726870000C7
:104FF00026960FB6F894DEBF0FBECDBFDF91CF91DE
:105000000895CF93DF9300D01F92CDB7DEB79A8378
:1050100089836B838B81882311F02B8101C021E070
:1050200089819A81FC01248B00000F900F900F90D2
:10503000DF91CF910895CF93DF9300D000D0CDB70B
:10504000DEB79A8389837C836B8389819A812B81E4
:105050003C81FC01338B228B89819A81FC0122895E
:10506000338989819A81FC01318B208B00000F905C
:105070000F900F900F90DF91CF910895CF93DF9312
:1050800000D0CDB7DEB79A83898389819A81FC01EC
:1050900085890F900F90DF91CF910895CF93DF9383
:1050A00000D01F92CDB7DEB79A8389836B838B8143
:1050B000282F237089819A81FC01258B89819A810F
:1050C000FC018589882F90E08130910509F18230BB
:1050D00091051CF4892B39F030C08230910519F00C
:1050E0000397B1F02AC089819A81FC01248135811E
:1050F00089819A81FC013187208789819A81FC010D
:105100002681378189819A81FC013387228715C0E6
:1051100089819A81FC012681378189819A81FC01EC
:105120003187208789819A81FC0124813581898199
:105130009A81FC0133872287000000000F900F90B6
:105140000F90DF91CF910895CF93DF9300D0CDB72B
:10515000DEB79A83898389819A81FC018085918554
:105160000F900F90DF91CF910895CF93DF9300D0F0
:10517000CDB7DEB79A83898389819A81FC018285C4
:1051800093850F900F90DF91CF910895CF93DF9388
:1051900000D01F92CDB7DEB79A8389836B8300005E
:1051A0000F900F900F90DF91CF910895CF93DF93E1
:1051B00000D000D0CDB7DEB79A8389837C836B8320
:1051C00089819A81FC0180819181FC01208131815A
:1051D0004B8189819A81642FF90109950F900F9075
:1051E0000F900F90DF91CF9108950F93CF93DF939E
:1051F000CDB7DEB728970FB6F894DEBF0FBECDBF90
:105200009A8389834B835C836D837E832F83088796
:105210008B819C81AD81BE81E981FA8108852F81D6
:10522000AC01BD01CF010E942029000028960FB6D5
:10523000F894DEBF0FBECDBFDF91CF910F910895DF
:105240000F93CF93DF93CDB7DEB765970FB6F89482
:10525000DEBF0FBECDBF9F878E87488B598B6A8B71
:105260007B8B2C8B0D8B8E859F859A838983888978
:105270009989AA89BB898B839C83AD83BE838C89E2
:105280008F838D89888780E092E1AAE7B0E08987E3
:105290009A87AB87BC871D868D858630E8F42B8185
:1052A0003C814D815E8189859A85AB85BC852817B7
:1052B00039074A075B0780F489859A85AB85BC85E9
:1052C000B695A7959795879589879A87AB87BC8769
:1052D0008D858F5F8D87E0CF8D85863011F487E0D7
:1052E0008D879D8581E089278D878F81882311F4A3
:1052F00080E701C080E598859C70292F282B8D853B
:10530000882F90E0959587958370822B282F89812F
:105310009A81FC0120838D85282F217089819A81B3
:10532000FC012183000065960FB6F894DEBF0FBE26
:10533000CDBFDF91CF910F910895CF93DF93CDB77C
:10534000DEB72C970FB6F894DEBF0FBECDBF9E839D
:105350008D8378876F835A8749873C872B878F8116
:1053600098859923C4F08D819E810E94A4289C0178
:105370008F8198858217930774F489859A8599237C
:1053800054F08D819E810E94B5289C0189859A8563
:105390008217930714F081E001C080E0882309F0B0
:1053A00018C18D819E810E943E28882F90E0823016
:1053B000910509F183309105D9F1019709F053C0A6
:1053C0008F8198859A83898389859A8598878F8329
:1053D00089819A819A8789878D819E81FC012481A8
:1053E00035818F819885A901481B590BCA01019706
:1053F00098878F8338C08D819E81FC0124813581FF
:105400008F819885A901481B590BCA01019798877C
:105410008F838D819E81FC012681378189859A85C4
:10542000A901481B590BCA0101979A8789871BC09C
:105430008F8198859C838B8389859A8598878F83B4
:105440008B819C819A8789878D819E81FC01268131
:10545000378189859A85A901481B590BCA01019793
:105460009A87898700008B859C858130910539F06A
:1054700081309105E0F1029709F472C0ABC08985D3
:105480009A8599230CF40796959587959595879518
:1054900095958795AC015695542F44275795479578
:1054A0002F813885240F351FAC015695542F442782
:1054B000579547958F819885840F951F8A5E9E4FDB
:1054C000FC018081682F89859A85AC01477055273A
:1054D00081E090E002C0880F991F4A95E2F7862B81
:1054E000482FC9018A5E9E4FFC01408373C08985A5
:1054F0009A8599230CF407969595879595958795A8
:1055000095958795AC015695542F44275795479507
:105510002F813885240F351FAC015695542F442711
:10552000579547958F819885840F951F8A5E9E4F6A
:10553000FC018081682F89859A85AC0147705527C9
:1055400081E090E002C0880F991F4A95E2F78095AC
:105550008623482FC9018A5E9E4FFC0140833AC0D2
:1055600089859A8599230CF4079695958795959545
:10557000879595958795AC015695542F4427579557
:1055800047952F813885240F351FAC015695542F30
:105590004427579547958F819885840F951F8A5E7C
:1055A0009E4FFC018081682F89859A85AC014770E8
:1055B000552781E090E002C0880F991F4A95E2F7D5
:1055C0008627482FC9018A5E9E4FFC014083000058
:1055D00001C000002C960FB6F894DEBF0FBECDBF01
:1055E000DF91CF910895CF93DF9300D01F92CDB775
:1055F000DEB79A8389836B8389819A8140E250E088
:1056000060E870E00E94521C24EC33E089819A81AA
:10561000FC013183208389819A812FEFFC01248F43
:1056200089819A81FC01248D89819A81FC0120A3C2
:1056300089819A81FC0120A189819A81FC01268FB0
:1056400089819A81FC01268D89819A81FC01258FAF
:1056500089819A812B81FC01278F00000F900F9088
:105660000F90DF91CF9108950F93CF93DF93CDB734
:10567000DEB7AF970FB6F894DEBF0FBECDBF9CA7C5
:105680008BA76DA74EA72FA72DA58BA59CA5FC01C9
:10569000238F2EA58BA59CA5FC01228F8BA59CA5F5
:1056A000FC01848D8F3F09F43CC18BA59CA5FC01B6
:1056B000868D61E00E94281A8BA59CA5FC0180A123
:1056C00061E00E94281A8BA59CA5FC0180A1082EF0
:1056D000000C990B84579D4F9A83898389819A8105
:1056E000FC0184918B838B81882F90E0880F991F18
:1056F00088589D4F9D838C838C819D81FC012591D1
:105700003491CF013F832E839D838C838E819F8133
:105710009C018BA59CA5FC0137A326A38BA59CA56A
:10572000FC0180A1082E000C990B80569D4F998793
:10573000888788859985FC0184918A878BA59CA59B
:105740002A85FC0124A78BA59CA5FC01868D082E2B
:10575000000C990B84579D4F9C878B878B859C856C
:10576000FC0184918D878D85882F90E0880F991F8B
:1057700088589D4F9F878E878E859F85FC01259138
:105780003491CF01398B288B9F878E87888999899F
:105790009C018BA59CA5FC0131A720A78BA59CA5EE
:1057A000FC01868D082E000C990B80569D4F9B8B1B
:1057B0008A8B8A899B89FC0184918C8B8BA59CA503
:1057C0002C89FC0125A78BA59CA5FC0191A181E05A
:1057D0008927882309F48EC08BA59CA5FC01848DA4
:1057E00061E00E94281A8BA59CA5FC01858D61E0D3
:1057F0000E94281A8BA59CA5FC01858D082E000C03
:10580000990B84579D4F9E8B8D8B8D899E89FC01B2
:1058100084918F8B8F89882F90E0880F991F8858EB
:105820009D4F998F888F888D998DFC01259134919A
:10583000CF013B8F2A8F998F888F8A8D9B8D9C01FA
:105840008BA59CA5FC0135A324A38BA59CA5FC01DD
:10585000858D082E000C990B80569D4F9D8F8C8F47
:105860008C8D9D8DFC0184918E8F8BA59CA52E8D9A
:10587000FC0123A78BA59CA5FC01848D082E000CA0
:10588000990B84579D4F98A38F8F8F8D98A1FC0102
:10589000849189A389A1882F90E0880F991F885847
:1058A0009D4F9BA38AA38AA19BA1FC0125913491C2
:1058B000CF013DA32CA39BA38AA38CA19DA19C01F6
:1058C0008BA59CA5FC0133A322A38BA59CA5FC0161
:1058D000848D082E000C990B80569D4F9FA38EA39C
:1058E0008EA19FA1FC01849188A78BA59CA528A5CA
:1058F000FC0122A78BA59CA5FC0181A18823A9F00E
:105900000E946534CE01899600E021E040E052E13A
:105910006AE770E00E94F52889A59AA50E947F0594
:1059200004C08FE895E00E944B358FA5882371F164
:105930008BA59CA5FC01878D882344F18BA59CA594
:10594000FC01878D61E00E94281A8BA59CA5FC01B3
:10595000878D61E00E94521B61E070E080E090E082
:105960000E940D198BA59CA5FC01878D60E00E940B
:10597000521B6AE070E080E090E00E940D198BA558
:105980009CA5FC01878D61E00E94521B8BA59CA504
:105990006EEA0E94652D8BA59CA565ED0E94652D84
:1059A0008BA59CA560E80E94652D8BA59CA568EA47
:1059B0000E94652D8BA59CA56FE10E94652D8BA58E
:1059C0009CA563ED0E94652D8BA59CA560E00E94BF
:1059D000652D8BA59CA560E40E94652D8BA59CA5DB
:1059E0006DE80E94652D8DA5813031F48BA59CA5B5
:1059F00060E10E94652D05C08BA59CA564E10E9415
:105A0000652D8BA59CA560E20E94652D8BA59CA5AC
:105A100060E00E94652D8BA59CA561EA0E94652D22
:105A20008BA59CA568EC0E94652D8BA59CA56AEDB5
:105A30000E94652D8BA59CA562E00E94652D8BA51B
:105A40009CA561E80E94652D8BA59CA56FE80E942E
:105A5000652D8BA59CA569ED0E94652D8DA58130D6
:105A600031F48BA59CA562E20E94652D05C08BA533
:105A70009CA561EF0E94652D8BA59CA56BED0E94F6
:105A8000652D8BA59CA560E40E94652D8BA59CA52A
:105A900064EA0E94652D8BA59CA566EA0E94652D8F
:105AA0008BA59CA56EE20E94652D8BA59CA56FEA37
:105AB0000E94652D0000AF960FB6F894DEBF0FBEB2
:105AC000CDBFDF91CF910F910895CF93DF9300D099
:105AD00000D0CDB7DEB79B838A836C838A819B819C
